{
  "transactions": [
    {
      "hash": "0x841f2c7722f20cdc150b7575ffcd0cdab72b6c35a8ce654b0429c5e7ca1fc61d",
      "transactionType": "CALL",
      "contractName": null,
      "contractAddress": "0xf8a2c39111fceb9c950aaf28a9e34ebad99b85c1",
      "function": "approve(address,uint256)",
      "arguments": [
        "0xc5a076cad94176c2996B32d8466Be1cE757FAa27",
        "115792089237316195423570985008687907853269984665640564039457584007913129639935"
      ],
      "transaction": {
        "from": "0x017596303ee2f3c1250aa67d2d33dbae1d1c4dbf",
        "to": "0xf8a2c39111fceb9c950aaf28a9e34ebad99b85c1",
        "gas": "0x9eb1",
        "value": "0x0",
        "input": "0x095ea7b3000000000000000000000000c5a076cad94176c2996b32d8466be1ce757faa27ffffffffffffffffffffffffffffffffffffffffffffffffffffffffffffffff",
        "nonce": "0x176",
        "chainId": "0x2105"
      },
      "additionalContracts": [],
      "isFixedGasLimit": false
    },
    {
      "hash": "0xf5f27043d028c4a37174c91190ef5af770fc8d62fabec7fbdc7377bfa9eeb418",
      "transactionType": "CALL",
      "contractName": null,
      "contractAddress": "0xf8a2c39111fceb9c950aaf28a9e34ebad99b85c1",
      "function": "approve(address,uint256)",
      "arguments": [
        "0x337c5b96f03fB335b433291695A4171fd5dED8B0",
        "115792089237316195423570985008687907853269984665640564039457584007913129639935"
      ],
      "transaction": {
        "from": "0x017596303ee2f3c1250aa67d2d33dbae1d1c4dbf",
        "to": "0xf8a2c39111fceb9c950aaf28a9e34ebad99b85c1",
        "gas": "0x10a10",
        "value": "0x0",
        "input": "0x095ea7b3000000000000000000000000337c5b96f03fb335b433291695a4171fd5ded8b0ffffffffffffffffffffffffffffffffffffffffffffffffffffffffffffffff",
        "nonce": "0x177",
        "chainId": "0x2105"
      },
      "additionalContracts": [],
      "isFixedGasLimit": false
    },
    {
      "hash": "0x0c6ef655671eb8fa7b3ad2fac46c41e69d8b594cd57a74fba58a3c51cefe04cf",
      "transactionType": "CALL",
      "contractName": null,
      "contractAddress": "0x337c5b96f03fb335b433291695a4171fd5ded8b0",
      "function": "createStoryline(string,string,bytes32,bool)",
      "arguments": [
        "E2E Story Alpha",
        "QmYwAPJzv5CZsnA625s3Xf2nemtYgPpHdWEz79ojWnPbdG",
        "0x8f6c3b9d39cbc591403253a4df109a036c0d8a37da33871f0144d491f6712aff",
        "true"
      ],
      "transaction": {
        "from": "0x017596303ee2f3c1250aa67d2d33dbae1d1c4dbf",
        "to": "0x337c5b96f03fb335b433291695a4171fd5ded8b0",
        "gas": "0x12babda",
        "value": "0x27ca57357c000",
        "input": "0xe3c8fc1c000000000000000000000000000000000000000000000000000000000000008000000000000000000000000000000000000000000000000000000000000000c08f6c3b9d39cbc591403253a4df109a036c0d8a37da33871f0144d491f6712aff0000000000000000000000000000000000000000000000000000000000000001000000000000000000000000000000000000000000000000000000000000000f4532452053746f727920416c7068610000000000000000000000000000000000000000000000000000000000000000000000000000000000000000000000002e516d597741504a7a7635435a736e4136323573335866326e656d7459675070486457457a37396f6a576e50626447000000000000000000000000000000000000",
        "nonce": "0x178",
        "chainId": "0x2105"
      },
      "additionalContracts": [
        {
          "transactionType": "CREATE2",
          "contractName": null,
          "address": "0xc2af849d38847aacbd5b27b8f9a6899aca57412e",
          "initCode": "0x3d602d80600a3d3981f3363d3d373d3d3d363d73aa70bc79fd1cb4a6fba717018351f0c3c64b79df5af43d82803e903d91602b57fd5bf3"
        }
      ],
      "isFixedGasLimit": false
    },
    {
      "hash": "0xc826bb3d47089264a7575c98f4bbd2eaa6141e77ef8b1e79f33d9aad84a52390",
      "transactionType": "CALL",
      "contractName": null,
      "contractAddress": "0x337c5b96f03fb335b433291695a4171fd5ded8b0",
      "function": "chainPlot(uint256,string,string,bytes32)",
      "arguments": [
        "9",
        "Chapter 2",
        "QmYwAPJzv5CZsnA625s3Xf2nemtYgPpHdWEz79ojWnPbdG",
        "0xd83685d7ba5bbdb6c987b35ceafd4693a99b54da7667bc695671e82095a5b5a7"
      ],
      "transaction": {
        "from": "0x017596303ee2f3c1250aa67d2d33dbae1d1c4dbf",
        "to": "0x337c5b96f03fb335b433291695a4171fd5ded8b0",
        "gas": "0xda19",
        "value": "0x0",
        "input": "0xa37ac92c0000000000000000000000000000000000000000000000000000000000000009000000000000000000000000000000000000000000000000000000000000008000000000000000000000000000000000000000000000000000000000000000c0d83685d7ba5bbdb6c987b35ceafd4693a99b54da7667bc695671e82095a5b5a700000000000000000000000000000000000000000000000000000000000000094368617074657220320000000000000000000000000000000000000000000000000000000000000000000000000000000000000000000000000000000000002e516d597741504a7a7635435a736e4136323573335866326e656d7459675070486457457a37396f6a576e50626447000000000000000000000000000000000000",
        "nonce": "0x179",
        "chainId": "0x2105"
      },
      "additionalContracts": [],
      "isFixedGasLimit": false
    },
    {
      "hash": "0x66687abecb72e6ad426308dfa4c9165421e3cff49342c7f1256c10b8a222ffe9",
      "transactionType": "CALL",
      "contractName": null,
      "contractAddress": "0x337c5b96f03fb335b433291695a4171fd5ded8b0",
      "function": "chainPlot(uint256,string,string,bytes32)",
      "arguments": [
        "9",
        "Chapter 3",
        "QmYwAPJzv5CZsnA625s3Xf2nemtYgPpHdWEz79ojWnPbdG",
        "0xc5d05cab670030f536225458cf1ea376c3c16dda15d8948f31ffb56ee8317cc6"
      ],
      "transaction": {
        "from": "0x017596303ee2f3c1250aa67d2d33dbae1d1c4dbf",
        "to": "0x337c5b96f03fb335b433291695a4171fd5ded8b0",
        "gas": "0xcdeb",
        "value": "0x0",
        "input": "0xa37ac92c0000000000000000000000000000000000000000000000000000000000000009000000000000000000000000000000000000000000000000000000000000008000000000000000000000000000000000000000000000000000000000000000c0c5d05cab670030f536225458cf1ea376c3c16dda15d8948f31ffb56ee8317cc600000000000000000000000000000000000000000000000000000000000000094368617074657220330000000000000000000000000000000000000000000000000000000000000000000000000000000000000000000000000000000000002e516d597741504a7a7635435a736e4136323573335866326e656d7459675070486457457a37396f6a576e50626447000000000000000000000000000000000000",
        "nonce": "0x17a",
        "chainId": "0x2105"
      },
      "additionalContracts": [],
      "isFixedGasLimit": false
    },
    {
      "hash": "0x32489037bfe7082b80fd0b7a78aa475146e4185317c7b415fafba14da854cf0d",
      "transactionType": "CALL",
      "contractName": null,
      "contractAddress": "0x337c5b96f03fb335b433291695a4171fd5ded8b0",
      "function": "chainPlot(uint256,string,string,bytes32)",
      "arguments": [
        "9",
        "Chapter 4",
        "QmYwAPJzv5CZsnA625s3Xf2nemtYgPpHdWEz79ojWnPbdG",
        "0x612ff55809eba72f2ccd5438f5e96262fdcad3c1c95949ba60bc50e0037f953c"
      ],
      "transaction": {
        "from": "0x017596303ee2f3c1250aa67d2d33dbae1d1c4dbf",
        "to": "0x337c5b96f03fb335b433291695a4171fd5ded8b0",
        "gas": "0xda19",
        "value": "0x0",
        "input": "0xa37ac92c0000000000000000000000000000000000000000000000000000000000000009000000000000000000000000000000000000000000000000000000000000008000000000000000000000000000000000000000000000000000000000000000c0612ff55809eba72f2ccd5438f5e96262fdcad3c1c95949ba60bc50e0037f953c00000000000000000000000000000000000000000000000000000000000000094368617074657220340000000000000000000000000000000000000000000000000000000000000000000000000000000000000000000000000000000000002e516d597741504a7a7635435a736e4136323573335866326e656d7459675070486457457a37396f6a576e50626447000000000000000000000000000000000000",
        "nonce": "0x17b",
        "chainId": "0x2105"
      },
      "additionalContracts": [],
      "isFixedGasLimit": false
    },
    {
      "hash": "0xbec7d2fd9c0826212c05a66b347285c75e7a735fa0629164f1a7c10d0832c5e6",
      "transactionType": "CALL",
      "contractName": null,
      "contractAddress": "0x337c5b96f03fb335b433291695a4171fd5ded8b0",
      "function": "createStoryline(string,string,bytes32,bool)",
      "arguments": [
        "E2E Story Beta",
        "QmYwAPJzv5CZsnA625s3Xf2nemtYgPpHdWEz79ojWnPbdG",
        "0x8f6c3b9d39cbc591403253a4df109a036c0d8a37da33871f0144d491f6712aff",
        "false"
      ],
      "transaction": {
        "from": "0x017596303ee2f3c1250aa67d2d33dbae1d1c4dbf",
        "to": "0x337c5b96f03fb335b433291695a4171fd5ded8b0",
        "gas": "0x12bb243",
        "value": "0x27ca57357c000",
        "input": "0xe3c8fc1c000000000000000000000000000000000000000000000000000000000000008000000000000000000000000000000000000000000000000000000000000000c08f6c3b9d39cbc591403253a4df109a036c0d8a37da33871f0144d491f6712aff0000000000000000000000000000000000000000000000000000000000000000000000000000000000000000000000000000000000000000000000000000000e4532452053746f72792042657461000000000000000000000000000000000000000000000000000000000000000000000000000000000000000000000000002e516d597741504a7a7635435a736e4136323573335866326e656d7459675070486457457a37396f6a576e50626447000000000000000000000000000000000000",
        "nonce": "0x17c",
        "chainId": "0x2105"
      },
      "additionalContracts": [
        {
          "transactionType": "CREATE2",
          "contractName": null,
          "address": "0x72f4f07dfcec281b2db5e04524c784dac36b0ae7",
          "initCode": "0x3d602d80600a3d3981f3363d3d373d3d3d363d73aa70bc79fd1cb4a6fba717018351f0c3c64b79df5af43d82803e903d91602b57fd5bf3"
        }
      ],
      "isFixedGasLimit": false
    },
    {
      "hash": "0x794de31b3fd22c742079274f9bdf40c0b850ba2ac1c29b390695c5cd078f091c",
      "transactionType": "CALL",
      "contractName": null,
      "contractAddress": "0x337c5b96f03fb335b433291695a4171fd5ded8b0",
      "function": "chainPlot(uint256,string,string,bytes32)",
      "arguments": [
        "10",
        "Beta Chapter 2",
        "QmYwAPJzv5CZsnA625s3Xf2nemtYgPpHdWEz79ojWnPbdG",
        "0xd83685d7ba5bbdb6c987b35ceafd4693a99b54da7667bc695671e82095a5b5a7"
      ],
      "transaction": {
        "from": "0x017596303ee2f3c1250aa67d2d33dbae1d1c4dbf",
        "to": "0x337c5b96f03fb335b433291695a4171fd5ded8b0",
        "gas": "0xcc1a",
        "value": "0x0",
        "input": "0xa37ac92c000000000000000000000000000000000000000000000000000000000000000a000000000000000000000000000000000000000000000000000000000000008000000000000000000000000000000000000000000000000000000000000000c0d83685d7ba5bbdb6c987b35ceafd4693a99b54da7667bc695671e82095a5b5a7000000000000000000000000000000000000000000000000000000000000000e4265746120436861707465722032000000000000000000000000000000000000000000000000000000000000000000000000000000000000000000000000002e516d597741504a7a7635435a736e4136323573335866326e656d7459675070486457457a37396f6a576e50626447000000000000000000000000000000000000",
        "nonce": "0x17d",
        "chainId": "0x2105"
      },
      "additionalContracts": [],
      "isFixedGasLimit": false
    },
    {
      "hash": "0x3eb7b56dcb6ae85d71fa159e8be853f47002b7210a0a92517006e8313d6204d6",
      "transactionType": "CALL",
      "contractName": null,
      "contractAddress": "0x337c5b96f03fb335b433291695a4171fd5ded8b0",
      "function": "createStoryline(string,string,bytes32,bool)",
      "arguments": [
        "E2E Story Gamma",
        "QmYwAPJzv5CZsnA625s3Xf2nemtYgPpHdWEz79ojWnPbdG",
        "0x8f6c3b9d39cbc591403253a4df109a036c0d8a37da33871f0144d491f6712aff",
        "false"
      ],
      "transaction": {
        "from": "0x017596303ee2f3c1250aa67d2d33dbae1d1c4dbf",
        "to": "0x337c5b96f03fb335b433291695a4171fd5ded8b0",
        "gas": "0x12bb254",
        "value": "0x27ca57357c000",
        "input": "0xe3c8fc1c000000000000000000000000000000000000000000000000000000000000008000000000000000000000000000000000000000000000000000000000000000c08f6c3b9d39cbc591403253a4df109a036c0d8a37da33871f0144d491f6712aff0000000000000000000000000000000000000000000000000000000000000000000000000000000000000000000000000000000000000000000000000000000f4532452053746f72792047616d6d610000000000000000000000000000000000000000000000000000000000000000000000000000000000000000000000002e516d597741504a7a7635435a736e4136323573335866326e656d7459675070486457457a37396f6a576e50626447000000000000000000000000000000000000",
        "nonce": "0x17e",
        "chainId": "0x2105"
      },
      "additionalContracts": [
        {
          "transactionType": "CREATE2",
          "contractName": null,
          "address": "0xa588d3689bc5a442d1bdec3773ec065469cf6ac0",
          "initCode": "0x3d602d80600a3d3981f3363d3d373d3d3d363d73aa70bc79fd1cb4a6fba717018351f0c3c64b79df5af43d82803e903d91602b57fd5bf3"
        }
      ],
      "isFixedGasLimit": false
    },
    {
      "hash": "0x3be4d139615b8b0ae7650962c47aa744245000719c3c2d9f251bd7e78ad367a6",
      "transactionType": "CALL",
      "contractName": null,
      "contractAddress": "0xc2af849d38847aacbd5b27b8f9a6899aca57412e",
      "function": "approve(address,uint256)",
      "arguments": [
        "0xc5a076cad94176c2996B32d8466Be1cE757FAa27",
        "115792089237316195423570985008687907853269984665640564039457584007913129639935"
      ],
      "transaction": {
        "from": "0x017596303ee2f3c1250aa67d2d33dbae1d1c4dbf",
        "to": "0xc2af849d38847aacbd5b27b8f9a6899aca57412e",
        "gas": "0x10a10",
        "value": "0x0",
        "input": "0x095ea7b3000000000000000000000000c5a076cad94176c2996b32d8466be1ce757faa27ffffffffffffffffffffffffffffffffffffffffffffffffffffffffffffffff",
        "nonce": "0x17f",
        "chainId": "0x2105"
      },
      "additionalContracts": [],
      "isFixedGasLimit": false
    },
    {
      "hash": "0x95046cff8e2c1c0a08b46e19a024e915a7295e3d7a7b75820102c9d1bb22a4c6",
      "transactionType": "CALL",
      "contractName": null,
      "contractAddress": "0xc5a076cad94176c2996b32d8466be1ce757faa27",
      "function": "mint(address,uint256,uint256,address)",
      "arguments": [
        "0xC2aF849d38847AACBD5b27b8f9a6899AcA57412e",
        "1000000000000000000",
        "115792089237316195423570985008687907853269984665640564039457584007913129639935",
        "0x017596303EE2F3C1250Aa67d2d33DBae1D1c4dBf"
      ],
      "transaction": {
        "from": "0x017596303ee2f3c1250aa67d2d33dbae1d1c4dbf",
        "to": "0xc5a076cad94176c2996b32d8466be1ce757faa27",
        "gas": "0x1b9102",
        "value": "0x0",
        "input": "0xf74bfe8e000000000000000000000000c2af849d38847aacbd5b27b8f9a6899aca57412e0000000000000000000000000000000000000000000000000de0b6b3a7640000ffffffffffffffffffffffffffffffffffffffffffffffffffffffffffffffff000000000000000000000000017596303ee2f3c1250aa67d2d33dbae1d1c4dbf",
        "nonce": "0x180",
        "chainId": "0x2105"
      },
      "additionalContracts": [],
      "isFixedGasLimit": false
    },
    {
      "hash": "0x0d6736ff33636a8de5777600e9956b38b3d64c201d55b56d3dad75231b10f5c3",
      "transactionType": "CALL",
      "contractName": null,
      "contractAddress": "0xc5a076cad94176c2996b32d8466be1ce757faa27",
      "function": "mint(address,uint256,uint256,address)",
      "arguments": [
        "0xC2aF849d38847AACBD5b27b8f9a6899AcA57412e",
        "1000000000000000000000",
        "115792089237316195423570985008687907853269984665640564039457584007913129639935",
        "0x017596303EE2F3C1250Aa67d2d33DBae1D1c4dBf"
      ],
      "transaction": {
        "from": "0x017596303ee2f3c1250aa67d2d33dbae1d1c4dbf",
        "to": "0xc5a076cad94176c2996b32d8466be1ce757faa27",
        "gas": "0x1a7c48",
        "value": "0x0",
        "input": "0xf74bfe8e000000000000000000000000c2af849d38847aacbd5b27b8f9a6899aca57412e00000000000000000000000000000000000000000000003635c9adc5dea00000ffffffffffffffffffffffffffffffffffffffffffffffffffffffffffffffff000000000000000000000000017596303ee2f3c1250aa67d2d33dbae1d1c4dbf",
        "nonce": "0x181",
        "chainId": "0x2105"
      },
      "additionalContracts": [],
      "isFixedGasLimit": false
    },
    {
      "hash": "0x4319004bcb9c3ed0e4fd8dcadb7232e4b9dcfe90f54667cc2fbd443b16b0581b",
      "transactionType": "CALL",
      "contractName": null,
      "contractAddress": "0xc5a076cad94176c2996b32d8466be1ce757faa27",
      "function": "mint(address,uint256,uint256,address)",
      "arguments": [
        "0xC2aF849d38847AACBD5b27b8f9a6899AcA57412e",
        "10000000000000000000000",
        "115792089237316195423570985008687907853269984665640564039457584007913129639935",
        "0x017596303EE2F3C1250Aa67d2d33DBae1D1c4dBf"
      ],
      "transaction": {
        "from": "0x017596303ee2f3c1250aa67d2d33dbae1d1c4dbf",
        "to": "0xc5a076cad94176c2996b32d8466be1ce757faa27",
        "gas": "0x1a972a",
        "value": "0x0",
        "input": "0xf74bfe8e000000000000000000000000c2af849d38847aacbd5b27b8f9a6899aca57412e00000000000000000000000000000000000000000000021e19e0c9bab2400000ffffffffffffffffffffffffffffffffffffffffffffffffffffffffffffffff000000000000000000000000017596303ee2f3c1250aa67d2d33dbae1d1c4dbf",
        "nonce": "0x182",
        "chainId": "0x2105"
      },
      "additionalContracts": [],
      "isFixedGasLimit": false
    },
    {
      "hash": "0x83713da7b553c90e387d33dba11264f8cdddad325b2852d89a9152e5ec69a77e",
      "transactionType": "CALL",
      "contractName": null,
      "contractAddress": "0xc5a076cad94176c2996b32d8466be1ce757faa27",
      "function": "burn(address,uint256,uint256,address)",
      "arguments": [
        "0xC2aF849d38847AACBD5b27b8f9a6899AcA57412e",
        "500000000000000000000",
        "0",
        "0x017596303EE2F3C1250Aa67d2d33DBae1D1c4dBf"
      ],
      "transaction": {
        "from": "0x017596303ee2f3c1250aa67d2d33dbae1d1c4dbf",
        "to": "0xc5a076cad94176c2996b32d8466be1ce757faa27",
        "gas": "0x1a85a9",
        "value": "0x0",
        "input": "0x5a4d5311000000000000000000000000c2af849d38847aacbd5b27b8f9a6899aca57412e00000000000000000000000000000000000000000000001b1ae4d6e2ef5000000000000000000000000000000000000000000000000000000000000000000000000000000000000000000000017596303ee2f3c1250aa67d2d33dbae1d1c4dbf",
        "nonce": "0x183",
        "chainId": "0x2105"
      },
      "additionalContracts": [],
      "isFixedGasLimit": false
    },
    {
      "hash": "0x0459b9a16c453fb80cca9d0e70aef0f39a24a93f4cbc457cb2224b0380771f62",
      "transactionType": "CALL",
      "contractName": null,
      "contractAddress": "0xc5a076cad94176c2996b32d8466be1ce757faa27",
      "function": "burn(address,uint256,uint256,address)",
      "arguments": [
        "0xC2aF849d38847AACBD5b27b8f9a6899AcA57412e",
        "10501000000000000000000",
        "0",
        "0x017596303EE2F3C1250Aa67d2d33DBae1D1c4dBf"
      ],
      "transaction": {
        "from": "0x017596303ee2f3c1250aa67d2d33dbae1d1c4dbf",
        "to": "0xc5a076cad94176c2996b32d8466be1ce757faa27",
        "gas": "0x1a4e5b",
        "value": "0x0",
        "input": "0x5a4d5311000000000000000000000000c2af849d38847aacbd5b27b8f9a6899aca57412e00000000000000000000000000000000000000000000023942a6575148f400000000000000000000000000000000000000000000000000000000000000000000000000000000000000000000017596303ee2f3c1250aa67d2d33dbae1d1c4dbf",
        "nonce": "0x184",
        "chainId": "0x2105"
      },
      "additionalContracts": [],
      "isFixedGasLimit": false
    },
    {
      "hash": "0x3f20d744c43ea7d0219d4b86b5ace5c12b8856631156af5e49deafc0cdc72915",
      "transactionType": "CALL",
      "contractName": null,
      "contractAddress": "0xf8a2c39111fceb9c950aaf28a9e34ebad99b85c1",
      "function": "transfer(address,uint256)",
      "arguments": [
        "0x43F43406e842d6ad8a8aB7546015D5F955C349BB",
        "5000000000000000000"
      ],
      "transaction": {
        "from": "0x017596303ee2f3c1250aa67d2d33dbae1d1c4dbf",
        "to": "0xf8a2c39111fceb9c950aaf28a9e34ebad99b85c1",
        "gas": "0xc7ef",
        "value": "0x0",
        "input": "0xa9059cbb00000000000000000000000043f43406e842d6ad8a8ab7546015d5f955c349bb0000000000000000000000000000000000000000000000004563918244f40000",
        "nonce": "0x185",
        "chainId": "0x2105"
      },
      "additionalContracts": [],
      "isFixedGasLimit": false
    },
    {
      "hash": "0xda227f15c06ec490cdcdde068800a6bb3a2fb0bb1664a698620c5f8bbee1055d",
      "transactionType": "CALL",
      "contractName": null,
      "contractAddress": "0xf8a2c39111fceb9c950aaf28a9e34ebad99b85c1",
      "function": "approve(address,uint256)",
      "arguments": [
        "0x337c5b96f03fB335b433291695A4171fd5dED8B0",
        "115792089237316195423570985008687907853269984665640564039457584007913129639935"
      ],
      "transaction": {
        "from": "0x43f43406e842d6ad8a8ab7546015d5f955c349bb",
        "to": "0xf8a2c39111fceb9c950aaf28a9e34ebad99b85c1",
        "gas": "0x10a10",
        "value": "0x0",
        "input": "0x095ea7b3000000000000000000000000337c5b96f03fb335b433291695a4171fd5ded8b0ffffffffffffffffffffffffffffffffffffffffffffffffffffffffffffffff",
        "nonce": "0x5",
        "chainId": "0x2105"
      },
      "additionalContracts": [],
      "isFixedGasLimit": false
    },
    {
      "hash": "0x9bd56593a4040c908f94e4783a15020ae13f3a0162769fffb4900ada2b9f5e69",
      "transactionType": "CALL",
      "contractName": null,
      "contractAddress": "0x337c5b96f03fb335b433291695a4171fd5ded8b0",
      "function": "donate(uint256,uint256)",
      "arguments": [
        "9",
        "1000000000000000"
      ],
      "transaction": {
        "from": "0x43f43406e842d6ad8a8ab7546015d5f955c349bb",
        "to": "0x337c5b96f03fb335b433291695a4171fd5ded8b0",
        "gas": "0x11059",
        "value": "0x0",
        "input": "0x0cdd53f6000000000000000000000000000000000000000000000000000000000000000900000000000000000000000000000000000000000000000000038d7ea4c68000",
        "nonce": "0x6",
        "chainId": "0x2105"
      },
      "additionalContracts": [],
      "isFixedGasLimit": false
    },
    {
      "hash": "0x2112908358fac0a2a8df2ccc83ca0c97960fac9e399419cff1197672e13fd77c",
      "transactionType": "CALL",
      "contractName": null,
      "contractAddress": "0x337c5b96f03fb335b433291695a4171fd5ded8b0",
      "function": "donate(uint256,uint256)",
      "arguments": [
        "9",
        "1000000000000000000"
      ],
      "transaction": {
        "from": "0x43f43406e842d6ad8a8ab7546015d5f955c349bb",
        "to": "0x337c5b96f03fb335b433291695a4171fd5ded8b0",
        "gas": "0x11059",
        "value": "0x0",
        "input": "0x0cdd53f600000000000000000000000000000000000000000000000000000000000000090000000000000000000000000000000000000000000000000de0b6b3a7640000",
        "nonce": "0x7",
        "chainId": "0x2105"
      },
      "additionalContracts": [],
      "isFixedGasLimit": false
    },
    {
      "hash": "0xa8c967a775a7ee21845b76cfade6c598dc9fe5e81c89c2f89dfd8b09d189685a",
      "transactionType": "CALL",
      "contractName": null,
      "contractAddress": "0x337c5b96f03fb335b433291695a4171fd5ded8b0",
      "function": "donate(uint256,uint256)",
      "arguments": [
        "9",
        "500000000000000000"
      ],
      "transaction": {
        "from": "0x43f43406e842d6ad8a8ab7546015d5f955c349bb",
        "to": "0x337c5b96f03fb335b433291695a4171fd5ded8b0",
        "gas": "0x11059",
        "value": "0x0",
        "input": "0x0cdd53f6000000000000000000000000000000000000000000000000000000000000000900000000000000000000000000000000000000000000000006f05b59d3b20000",
        "nonce": "0x8",
        "chainId": "0x2105"
      },
      "additionalContracts": [],
      "isFixedGasLimit": false
    },
    {
      "hash": "0x4b00b2177cf8a05dd1abf9e44f7d254e213a4bb356dc17115230e846d385312e",
      "transactionType": "CALL",
      "contractName": null,
      "contractAddress": "0x337c5b96f03fb335b433291695a4171fd5ded8b0",
      "function": "donate(uint256,uint256)",
      "arguments": [
        "10",
        "500000000000000000"
      ],
      "transaction": {
        "from": "0x43f43406e842d6ad8a8ab7546015d5f955c349bb",
        "to": "0x337c5b96f03fb335b433291695a4171fd5ded8b0",
        "gas": "0x11059",
        "value": "0x0",
        "input": "0x0cdd53f6000000000000000000000000000000000000000000000000000000000000000a00000000000000000000000000000000000000000000000006f05b59d3b20000",
        "nonce": "0x9",
        "chainId": "0x2105"
      },
      "additionalContracts": [],
      "isFixedGasLimit": false
    },
    {
      "hash": "0xe3dcdf2ddd98b1c800f93c0aac8e775f594966e1ad2adf7461f0f9b0284cbe6f",
      "transactionType": "CALL",
      "contractName": null,
      "contractAddress": "0xc5a076cad94176c2996b32d8466be1ce757faa27",
      "function": "claimRoyalties(address)",
      "arguments": [
        "0xF8A2C39111FCEB9C950aAf28A9E34EBaD99b85C1"
      ],
      "transaction": {
        "from": "0x017596303ee2f3c1250aa67d2d33dbae1d1c4dbf",
        "to": "0xc5a076cad94176c2996b32d8466be1ce757faa27",
        "gas": "0x1158f",
        "value": "0x0",
        "input": "0xc162c916000000000000000000000000f8a2c39111fceb9c950aaf28a9e34ebad99b85c1",
        "nonce": "0x186",
        "chainId": "0x2105"
      },
      "additionalContracts": [],
      "isFixedGasLimit": false
    },
    {
      "hash": "0x8afe38e582abe2fe53fe3ec4d12b8bca2b888af07467da8fd5a04277af94833c",
      "transactionType": "CALL",
      "contractName": null,
      "contractAddress": "0x337c5b96f03fb335b433291695a4171fd5ded8b0",
      "function": "createStoryline(string,string,bytes32,bool)",
      "arguments": [
        "Edge Min CID",
        "QmYwAPJzv5CZsnA625s3Xf2nemtYgPpHdWEz79ojWnPbdG",
        "0x8f6c3b9d39cbc591403253a4df109a036c0d8a37da33871f0144d491f6712aff",
        "false"
      ],
      "transaction": {
        "from": "0x017596303ee2f3c1250aa67d2d33dbae1d1c4dbf",
        "to": "0x337c5b96f03fb335b433291695a4171fd5ded8b0",
        "gas": "0x12bb222",
        "value": "0x27ca57357c000",
        "input": "0xe3c8fc1c000000000000000000000000000000000000000000000000000000000000008000000000000000000000000000000000000000000000000000000000000000c08f6c3b9d39cbc591403253a4df109a036c0d8a37da33871f0144d491f6712aff0000000000000000000000000000000000000000000000000000000000000000000000000000000000000000000000000000000000000000000000000000000c45646765204d696e204349440000000000000000000000000000000000000000000000000000000000000000000000000000000000000000000000000000002e516d597741504a7a7635435a736e4136323573335866326e656d7459675070486457457a37396f6a576e50626447000000000000000000000000000000000000",
        "nonce": "0x187",
        "chainId": "0x2105"
      },
      "additionalContracts": [
        {
          "transactionType": "CREATE2",
          "contractName": null,
          "address": "0x358fac554833dc61d4c0e1e8842075e40fb32da0",
          "initCode": "0x3d602d80600a3d3981f3363d3d373d3d3d363d73aa70bc79fd1cb4a6fba717018351f0c3c64b79df5af43d82803e903d91602b57fd5bf3"
        }
      ],
      "isFixedGasLimit": false
    },
    {
      "hash": "0x0b90453a5eb5ae01e3cb3259a23758e2b9cf0e10b80aeda2dd7d83286add1a84",
      "transactionType": "CALL",
      "contractName": null,
      "contractAddress": "0x337c5b96f03fb335b433291695a4171fd5ded8b0",
      "function": "createStoryline(string,string,bytes32,bool)",
      "arguments": [
        "Edge Max CID",
        "bafybeigdyrzt5sfp7udm7hu76uh7y26nf3efuylqabf3oclgtqy55fbzdi1234567890abcdefghijklmnopqrstuvwxyz12345",
        "0x8f6c3b9d39cbc591403253a4df109a036c0d8a37da33871f0144d491f6712aff",
        "false"
      ],
      "transaction": {
        "from": "0x017596303ee2f3c1250aa67d2d33dbae1d1c4dbf",
        "to": "0x337c5b96f03fb335b433291695a4171fd5ded8b0",
        "gas": "0x12bbc9a",
        "value": "0x27ca57357c000",
        "input": "0xe3c8fc1c000000000000000000000000000000000000000000000000000000000000008000000000000000000000000000000000000000000000000000000000000000c08f6c3b9d39cbc591403253a4df109a036c0d8a37da33871f0144d491f6712aff0000000000000000000000000000000000000000000000000000000000000000000000000000000000000000000000000000000000000000000000000000000c45646765204d6178204349440000000000000000000000000000000000000000000000000000000000000000000000000000000000000000000000000000006462616679626569676479727a74357366703775646d37687537367568377932366e6633656675796c71616266336f636c67747179353566627a6469313233343536373839306162636465666768696a6b6c6d6e6f707172737475767778797a313233343500000000000000000000000000000000000000000000000000000000",
        "nonce": "0x188",
        "chainId": "0x2105"
      },
      "additionalContracts": [
        {
          "transactionType": "CREATE2",
          "contractName": null,
          "address": "0x139f38e4638caa2e3462e97d32929a0c758daa76",
          "initCode": "0x3d602d80600a3d3981f3363d3d373d3d3d363d73aa70bc79fd1cb4a6fba717018351f0c3c64b79df5af43d82803e903d91602b57fd5bf3"
        }
      ],
      "isFixedGasLimit": false
    },
    {
      "hash": "0xc8022456bf1ea92ca134a55be21ca4372c461925960e864e6f240d7d9c1e28c6",
      "transactionType": "CALL",
      "contractName": null,
      "contractAddress": "0x337c5b96f03fb335b433291695a4171fd5ded8b0",
      "function": "chainPlot(uint256,string,string,bytes32)",
      "arguments": [
        "12",
        "F1 Chapter 2",
        "QmYwAPJzv5CZsnA625s3Xf2nemtYgPpHdWEz79ojWnPbdG",
        "0xd83685d7ba5bbdb6c987b35ceafd4693a99b54da7667bc695671e82095a5b5a7"
      ],
      "transaction": {
        "from": "0x017596303ee2f3c1250aa67d2d33dbae1d1c4dbf",
        "to": "0x337c5b96f03fb335b433291695a4171fd5ded8b0",
        "gas": "0xcbf9",
        "value": "0x0",
        "input": "0xa37ac92c000000000000000000000000000000000000000000000000000000000000000c000000000000000000000000000000000000000000000000000000000000008000000000000000000000000000000000000000000000000000000000000000c0d83685d7ba5bbdb6c987b35ceafd4693a99b54da7667bc695671e82095a5b5a7000000000000000000000000000000000000000000000000000000000000000c4631204368617074657220320000000000000000000000000000000000000000000000000000000000000000000000000000000000000000000000000000002e516d597741504a7a7635435a736e4136323573335866326e656d7459675070486457457a37396f6a576e50626447000000000000000000000000000000000000",
        "nonce": "0x189",
        "chainId": "0x2105"
      },
      "additionalContracts": [],
      "isFixedGasLimit": false
    },
    {
      "hash": "0xa0581f4b40dd24ac6a39a4953a465504170ca9013dcaa2e716362f4e7d701642",
      "transactionType": "CALL",
      "contractName": null,
      "contractAddress": "0x358fac554833dc61d4c0e1e8842075e40fb32da0",
      "function": "approve(address,uint256)",
      "arguments": [
        "0xc5a076cad94176c2996B32d8466Be1cE757FAa27",
        "115792089237316195423570985008687907853269984665640564039457584007913129639935"
      ],
      "transaction": {
        "from": "0x017596303ee2f3c1250aa67d2d33dbae1d1c4dbf",
        "to": "0x358fac554833dc61d4c0e1e8842075e40fb32da0",
        "gas": "0x10a10",
        "value": "0x0",
        "input": "0x095ea7b3000000000000000000000000c5a076cad94176c2996b32d8466be1ce757faa27ffffffffffffffffffffffffffffffffffffffffffffffffffffffffffffffff",
        "nonce": "0x18a",
        "chainId": "0x2105"
      },
      "additionalContracts": [],
      "isFixedGasLimit": false
    },
    {
      "hash": "0xace851a8746bff43b445fb60203fddf1b293cf7d4cb4a4e64a9e129f2ac3191f",
      "transactionType": "CALL",
      "contractName": null,
      "contractAddress": "0xc5a076cad94176c2996b32d8466be1ce757faa27",
      "function": "mint(address,uint256,uint256,address)",
      "arguments": [
        "0x358Fac554833Dc61D4C0e1e8842075E40Fb32DA0",
        "100000000000000000000",
        "115792089237316195423570985008687907853269984665640564039457584007913129639935",
        "0x017596303EE2F3C1250Aa67d2d33DBae1D1c4dBf"
      ],
      "transaction": {
        "from": "0x017596303ee2f3c1250aa67d2d33dbae1d1c4dbf",
        "to": "0xc5a076cad94176c2996b32d8466be1ce757faa27",
        "gas": "0x1bed55",
        "value": "0x0",
        "input": "0xf74bfe8e000000000000000000000000358fac554833dc61d4c0e1e8842075e40fb32da00000000000000000000000000000000000000000000000056bc75e2d63100000ffffffffffffffffffffffffffffffffffffffffffffffffffffffffffffffff000000000000000000000000017596303ee2f3c1250aa67d2d33dbae1d1c4dbf",
        "nonce": "0x18b",
        "chainId": "0x2105"
      },
      "additionalContracts": [],
      "isFixedGasLimit": false
    },
    {
      "hash": "0xd5ba9bc6864d1e40b628e811f6eeaa7884a77e22f861cba6bb8158b6cad3ba50",
      "transactionType": "CALL",
      "contractName": null,
      "contractAddress": "0xc5a076cad94176c2996b32d8466be1ce757faa27",
      "function": "burn(address,uint256,uint256,address)",
      "arguments": [
        "0x358Fac554833Dc61D4C0e1e8842075E40Fb32DA0",
        "100000000000000000000",
        "0",
        "0x017596303EE2F3C1250Aa67d2d33DBae1D1c4dBf"
      ],
      "transaction": {
        "from": "0x017596303ee2f3c1250aa67d2d33dbae1d1c4dbf",
        "to": "0xc5a076cad94176c2996b32d8466be1ce757faa27",
        "gas": "0x1bb1fb",
        "value": "0x0",
        "input": "0x5a4d5311000000000000000000000000358fac554833dc61d4c0e1e8842075e40fb32da00000000000000000000000000000000000000000000000056bc75e2d631000000000000000000000000000000000000000000000000000000000000000000000000000000000000000000000017596303ee2f3c1250aa67d2d33dbae1d1c4dbf",
        "nonce": "0x18c",
        "chainId": "0x2105"
      },
      "additionalContracts": [],
      "isFixedGasLimit": false
    },
    {
      "hash": "0xf1260934f4270a5e1e7af610117636541e15d62b37fa7d2a100cd46f5711282f",
      "transactionType": "CALL",
      "contractName": null,
      "contractAddress": "0x337c5b96f03fb335b433291695a4171fd5ded8b0",
      "function": "updateCurve(uint128[],uint128[])",
      "arguments": [
        "[500000000000000000000000, 1000000000000000000000000]",
        "[2000000000000000, 2000000000000000000]"
      ],
      "transaction": {
        "from": "0x017596303ee2f3c1250aa67d2d33dbae1d1c4dbf",
        "to": "0x337c5b96f03fb335b433291695a4171fd5ded8b0",
        "gas": "0x2b4369",
        "value": "0x0",
        "input": "0x7501229f000000000000000000000000000000000000000000000000000000000000004000000000000000000000000000000000000000000000000000000000000000a000000000000000000000000000000000000000000000000000000000000000020000000000000000000000000000000000000000000069e10de76676d080000000000000000000000000000000000000000000000000d3c21bcecceda1000000000000000000000000000000000000000000000000000000000000000000000200000000000000000000000000000000000000000000000000071afd498d00000000000000000000000000000000000000000000000000001bc16d674ec80000",
        "nonce": "0x18d",
        "chainId": "0x2105"
      },
      "additionalContracts": [],
      "isFixedGasLimit": false
    },
    {
      "hash": "0xda12ed1a9dc29c4a0fb3133cbd10734e4e94b527da3d99c67536ba80d03e5d79",
      "transactionType": "CALL",
      "contractName": null,
      "contractAddress": "0x337c5b96f03fb335b433291695a4171fd5ded8b0",
      "function": "createStoryline(string,string,bytes32,bool)",
      "arguments": [
        "Updated Curve Story",
        "QmYwAPJzv5CZsnA625s3Xf2nemtYgPpHdWEz79ojWnPbdG",
        "0x8f6c3b9d39cbc591403253a4df109a036c0d8a37da33871f0144d491f6712aff",
        "false"
      ],
      "transaction": {
        "from": "0x017596303ee2f3c1250aa67d2d33dbae1d1c4dbf",
        "to": "0x337c5b96f03fb335b433291695a4171fd5ded8b0",
        "gas": "0x925d6",
        "value": "0x27ca57357c000",
        "input": "0xe3c8fc1c000000000000000000000000000000000000000000000000000000000000008000000000000000000000000000000000000000000000000000000000000000c08f6c3b9d39cbc591403253a4df109a036c0d8a37da33871f0144d491f6712aff00000000000000000000000000000000000000000000000000000000000000000000000000000000000000000000000000000000000000000000000000000013557064617465642043757276652053746f727900000000000000000000000000000000000000000000000000000000000000000000000000000000000000002e516d597741504a7a7635435a736e4136323573335866326e656d7459675070486457457a37396f6a576e50626447000000000000000000000000000000000000",
        "nonce": "0x18e",
        "chainId": "0x2105"
      },
      "additionalContracts": [
        {
          "transactionType": "CREATE2",
          "contractName": null,
          "address": "0xcedf4946193e40d7010edf11e0803571edc8e5a7",
          "initCode": "0x3d602d80600a3d3981f3363d3d373d3d3d363d73aa70bc79fd1cb4a6fba717018351f0c3c64b79df5af43d82803e903d91602b57fd5bf3"
        }
      ],
      "isFixedGasLimit": false
    },
    {
      "hash": "0x4bf8ea1fdf64112c4cb754a364aa5d38309edeb9fc99f94d8fe2389e53d089ce",
      "transactionType": "CALL",
      "contractName": null,
      "contractAddress": "0xcedf4946193e40d7010edf11e0803571edc8e5a7",
      "function": "approve(address,uint256)",
      "arguments": [
        "0xc5a076cad94176c2996B32d8466Be1cE757FAa27",
        "115792089237316195423570985008687907853269984665640564039457584007913129639935"
      ],
      "transaction": {
        "from": "0x017596303ee2f3c1250aa67d2d33dbae1d1c4dbf",
        "to": "0xcedf4946193e40d7010edf11e0803571edc8e5a7",
        "gas": "0x10a10",
        "value": "0x0",
        "input": "0x095ea7b3000000000000000000000000c5a076cad94176c2996b32d8466be1ce757faa27ffffffffffffffffffffffffffffffffffffffffffffffffffffffffffffffff",
        "nonce": "0x18f",
        "chainId": "0x2105"
      },
      "additionalContracts": [],
      "isFixedGasLimit": false
    },
    {
      "hash": "0x60ce2ee1b345ad56fe5dab6f0b79951d2b8c9735b95c91d22d4de15ffefddac0",
      "transactionType": "CALL",
      "contractName": null,
      "contractAddress": "0xc5a076cad94176c2996b32d8466be1ce757faa27",
      "function": "mint(address,uint256,uint256,address)",
      "arguments": [
        "0xcEdF4946193E40D7010edf11E0803571EDC8E5a7",
        "1000000000000000000",
        "115792089237316195423570985008687907853269984665640564039457584007913129639935",
        "0x017596303EE2F3C1250Aa67d2d33DBae1D1c4dBf"
      ],
      "transaction": {
        "from": "0x017596303ee2f3c1250aa67d2d33dbae1d1c4dbf",
        "to": "0xc5a076cad94176c2996b32d8466be1ce757faa27",
        "gas": "0x33197",
        "value": "0x0",
        "input": "0xf74bfe8e000000000000000000000000cedf4946193e40d7010edf11e0803571edc8e5a70000000000000000000000000000000000000000000000000de0b6b3a7640000ffffffffffffffffffffffffffffffffffffffffffffffffffffffffffffffff000000000000000000000000017596303ee2f3c1250aa67d2d33dbae1d1c4dbf",
        "nonce": "0x190",
        "chainId": "0x2105"
      },
      "additionalContracts": [],
      "isFixedGasLimit": false
    },
    {
      "hash": "0xcd22f6b30de087c28355beeb0561032fd8c7889efa4535fe2d84db79b91c9980",
      "transactionType": "CALL",
      "contractName": null,
      "contractAddress": "0xc5a076cad94176c2996b32d8466be1ce757faa27",
      "function": "burn(address,uint256,uint256,address)",
      "arguments": [
        "0xcEdF4946193E40D7010edf11E0803571EDC8E5a7",
        "1000000000000000000",
        "0",
        "0x017596303EE2F3C1250Aa67d2d33DBae1D1c4dBf"
      ],
      "transaction": {
        "from": "0x017596303ee2f3c1250aa67d2d33dbae1d1c4dbf",
        "to": "0xc5a076cad94176c2996b32d8466be1ce757faa27",
        "gas": "0x1e382",
        "value": "0x0",
        "input": "0x5a4d5311000000000000000000000000cedf4946193e40d7010edf11e0803571edc8e5a70000000000000000000000000000000000000000000000000de0b6b3a76400000000000000000000000000000000000000000000000000000000000000000000000000000000000000000000017596303ee2f3c1250aa67d2d33dbae1d1c4dbf",
        "nonce": "0x191",
        "chainId": "0x2105"
      },
      "additionalContracts": [],
      "isFixedGasLimit": false
    }
  ],
  "receipts": [
    {
      "status": "0x1",
      "cumulativeGasUsed": "0xfa90c2",
      "logs": [
        {
          "address": "0xf8a2c39111fceb9c950aaf28a9e34ebad99b85c1",
          "topics": [
            "0x8c5be1e5ebec7d5bd14f71427d1e84f3dd0314c0f7b2291e5b200ac8c7c3b925",
            "0x000000000000000000000000017596303ee2f3c1250aa67d2d33dbae1d1c4dbf",
            "0x000000000000000000000000c5a076cad94176c2996b32d8466be1ce757faa27"
          ],
          "data": "0xffffffffffffffffffffffffffffffffffffffffffffffffffffffffffffffff",
          "blockHash": "0x0000000000000000000000000000000000000000000000000000000000000000",
          "blockNumber": "0x2996d76",
          "blockTimestamp": "0x69bd37cf",
          "transactionHash": "0x841f2c7722f20cdc150b7575ffcd0cdab72b6c35a8ce654b0429c5e7ca1fc61d",
          "transactionIndex": "0x31",
          "logIndex": "0x1ae",
          "removed": false
        }
      ],
      "logsBloom": "0x00000000000000000000000000000000000000000000000000000000040000000000000000000000000000000000004000000000000000000000000000200000000000000000000000001000000000000000000000000000000000000000000200000000000000000080000000000000000000000000000000000000000000000000000000000000000000000000000000000000000000000000000000000000020000000000000000000000800000000000000000000000000000800000000000000000000000000000000000000000200000000000000000000000040000000010000000000000000000000000000000000000000000000000000000000000",
      "type": "0x2",
      "transactionHash": "0x841f2c7722f20cdc150b7575ffcd0cdab72b6c35a8ce654b0429c5e7ca1fc61d",
      "transactionIndex": "0x31",
      "blockHash": "0x0000000000000000000000000000000000000000000000000000000000000000",
      "blockNumber": "0x2996d76",
      "gasUsed": "0x72e4",
      "effectiveGasPrice": "0x4efa36",
      "blobGasUsed": "0x364c",
      "from": "0x017596303ee2f3c1250aa67d2d33dbae1d1c4dbf",
      "to": "0xf8a2c39111fceb9c950aaf28a9e34ebad99b85c1",
      "contractAddress": null,
      "daFootprintGasScalar": "0x8b",
      "l1BaseFeeScalar": "0x8dd",
      "l1BlobBaseFee": "0x261119",
      "l1BlobBaseFeeScalar": "0x101c12",
      "l1Fee": "0x1bedc47b",
      "l1GasPrice": "0x35e63d8",
      "l1GasUsed": "0x640"
    },
    {
      "status": "0x1",
      "cumulativeGasUsed": "0x2c11aa0",
      "logs": [
        {
          "address": "0xf8a2c39111fceb9c950aaf28a9e34ebad99b85c1",
          "topics": [
            "0x8c5be1e5ebec7d5bd14f71427d1e84f3dd0314c0f7b2291e5b200ac8c7c3b925",
            "0x000000000000000000000000017596303ee2f3c1250aa67d2d33dbae1d1c4dbf",
            "0x000000000000000000000000337c5b96f03fb335b433291695a4171fd5ded8b0"
          ],
          "data": "0xffffffffffffffffffffffffffffffffffffffffffffffffffffffffffffffff",
          "blockHash": "0x0000000000000000000000000000000000000000000000000000000000000000",
          "blockNumber": "0x2996d77",
          "blockTimestamp": "0x69bd37d1",
          "transactionHash": "0xf5f27043d028c4a37174c91190ef5af770fc8d62fabec7fbdc7377bfa9eeb418",
          "transactionIndex": "0xb8",
          "logIndex": "0x3ee",
          "removed": false
        }
      ],
      "logsBloom": "0x00000000000000000000000000000000000000000000000000000000040000000000000000000000000000000004004000000000000000000000400000200000000000000000000000001000000000000000000000000000000000000000000200000000000000000000000000000000000000000000000000000000000000000000000000000000000000000000000000000000000000000000000001000000020000000000000000000000000000000000000000000000000000800000000000000000000000000000000000000000200000000000000000000000000000000010000000000000000000000000000000000000000000000000000000000000",
      "type": "0x2",
      "transactionHash": "0xf5f27043d028c4a37174c91190ef5af770fc8d62fabec7fbdc7377bfa9eeb418",
      "transactionIndex": "0xb8",
      "blockHash": "0x0000000000000000000000000000000000000000000000000000000000000000",
      "blockNumber": "0x2996d77",
      "gasUsed": "0xc0a0",
      "effectiveGasPrice": "0x4efa36",
      "blobGasUsed": "0x364c",
      "from": "0x017596303ee2f3c1250aa67d2d33dbae1d1c4dbf",
      "to": "0xf8a2c39111fceb9c950aaf28a9e34ebad99b85c1",
      "contractAddress": null,
      "daFootprintGasScalar": "0x8b",
      "l1BaseFeeScalar": "0x8dd",
      "l1BlobBaseFee": "0x261119",
      "l1BlobBaseFeeScalar": "0x101c12",
      "l1Fee": "0x94d6ffa1",
      "l1GasPrice": "0x35e63d8",
      "l1GasUsed": "0x640"
    },
    {
      "status": "0x1",
      "cumulativeGasUsed": "0x6264b1a",
      "logs": [
        {
          "address": "0xc5a076cad94176c2996b32d8466be1ce757faa27",
          "topics": [
            "0x6596c1670eb3390048d23721809c3da5d3f531375ac0e2cab0f77a808ed64331",
            "0x000000000000000000000000c2af849d38847aacbd5b27b8f9a6899aca57412e",
            "0x000000000000000000000000f8a2c39111fceb9c950aaf28a9e34ebad99b85c1"
          ],
          "data": "0x00000000000000000000000000000000000000000000000000000000000000400000000000000000000000000000000000000000000000000000000000000080000000000000000000000000000000000000000000000000000000000000000f4532452053746f727920416c70686100000000000000000000000000000000000000000000000000000000000000000000000000000000000000000000000004504c2d3900000000000000000000000000000000000000000000000000000000",
          "blockHash": "0x0000000000000000000000000000000000000000000000000000000000000000",
          "blockNumber": "0x2996d78",
          "blockTimestamp": "0x69bd37d3",
          "transactionHash": "0x0c6ef655671eb8fa7b3ad2fac46c41e69d8b594cd57a74fba58a3c51cefe04cf",
          "transactionIndex": "0x22d",
          "logIndex": "0x51e",
          "removed": false
        },
        {
          "address": "0xc5a076cad94176c2996b32d8466be1ce757faa27",
          "topics": [
            "0x9dcef3aa57f22970dfc6ff519e5421e041cc4153300a7dabe19bffe85e255688",
            "0x000000000000000000000000c2af849d38847aacbd5b27b8f9a6899aca57412e",
            "0x000000000000000000000000017596303ee2f3c1250aa67d2d33dbae1d1c4dbf"
          ],
          "data": "0x",
          "blockHash": "0x0000000000000000000000000000000000000000000000000000000000000000",
          "blockNumber": "0x2996d78",
          "blockTimestamp": "0x69bd37d3",
          "transactionHash": "0x0c6ef655671eb8fa7b3ad2fac46c41e69d8b594cd57a74fba58a3c51cefe04cf",
          "transactionIndex": "0x22d",
          "logIndex": "0x51f",
          "removed": false
        },
        {
          "address": "0x337c5b96f03fb335b433291695a4171fd5ded8b0",
          "topics": [
            "0xff972730618409d15438e7d96bd0047cc7fdcfb51ea622b67460d396b4602853",
            "0x0000000000000000000000000000000000000000000000000000000000000009",
            "0x000000000000000000000000017596303ee2f3c1250aa67d2d33dbae1d1c4dbf"
          ],
          "data": "0x000000000000000000000000c2af849d38847aacbd5b27b8f9a6899aca57412e00000000000000000000000000000000000000000000000000000000000000a0000000000000000000000000000000000000000000000000000000000000000100000000000000000000000000000000000000000000000000000000000000e08f6c3b9d39cbc591403253a4df109a036c0d8a37da33871f0144d491f6712aff000000000000000000000000000000000000000000000000000000000000000f4532452053746f727920416c7068610000000000000000000000000000000000000000000000000000000000000000000000000000000000000000000000002e516d597741504a7a7635435a736e4136323573335866326e656d7459675070486457457a37396f6a576e50626447000000000000000000000000000000000000",
          "blockHash": "0x0000000000000000000000000000000000000000000000000000000000000000",
          "blockNumber": "0x2996d78",
          "blockTimestamp": "0x69bd37d3",
          "transactionHash": "0x0c6ef655671eb8fa7b3ad2fac46c41e69d8b594cd57a74fba58a3c51cefe04cf",
          "transactionIndex": "0x22d",
          "logIndex": "0x520",
          "removed": false
        },
        {
          "address": "0x337c5b96f03fb335b433291695a4171fd5ded8b0",
          "topics": [
            "0xcdd5a1c6ea1934cc5ea61aadac9c2782a941967d902fdea4f7034463d9a0cfb8",
            "0x0000000000000000000000000000000000000000000000000000000000000009",
            "0x0000000000000000000000000000000000000000000000000000000000000000",
            "0x000000000000000000000000017596303ee2f3c1250aa67d2d33dbae1d1c4dbf"
          ],
          "data": "0x000000000000000000000000000000000000000000000000000000000000006000000000000000000000000000000000000000000000000000000000000000a08f6c3b9d39cbc591403253a4df109a036c0d8a37da33871f0144d491f6712aff000000000000000000000000000000000000000000000000000000000000000f4532452053746f727920416c7068610000000000000000000000000000000000000000000000000000000000000000000000000000000000000000000000002e516d597741504a7a7635435a736e4136323573335866326e656d7459675070486457457a37396f6a576e50626447000000000000000000000000000000000000",
          "blockHash": "0x0000000000000000000000000000000000000000000000000000000000000000",
          "blockNumber": "0x2996d78",
          "blockTimestamp": "0x69bd37d3",
          "transactionHash": "0x0c6ef655671eb8fa7b3ad2fac46c41e69d8b594cd57a74fba58a3c51cefe04cf",
          "transactionIndex": "0x22d",
          "logIndex": "0x521",
          "removed": false
        }
      ],
      "logsBloom": "0x00000000000000000000000000000000000000000000000000000000040021000000000000000000001000000001000001000000000000000000000000200000000000000000000001000020000000000000000000000000400020000000000200000000022000040000000000000800000000000100000000000800000000000000000000000000000000000000000000001000000800000000000000000000000000002000000000000000000000000000000000000000000000800000040000000000008080000000000000000000004000000000002000000000000020000000080000000000000000000000000000001000000000020000000000800800",
      "type": "0x2",
      "transactionHash": "0x0c6ef655671eb8fa7b3ad2fac46c41e69d8b594cd57a74fba58a3c51cefe04cf",
      "transactionIndex": "0x22d",
      "blockHash": "0x0000000000000000000000000000000000000000000000000000000000000000",
      "blockNumber": "0x2996d78",
      "gasUsed": "0xd8f4e4",
      "effectiveGasPrice": "0x4f1a63",
      "blobGasUsed": "0x601b",
      "from": "0x017596303ee2f3c1250aa67d2d33dbae1d1c4dbf",
      "to": "0x337c5b96f03fb335b433291695a4171fd5ded8b0",
      "contractAddress": null,
      "daFootprintGasScalar": "0x8b",
      "l1BaseFeeScalar": "0x8dd",
      "l1BlobBaseFee": "0x261119",
      "l1BlobBaseFeeScalar": "0x101c12",
      "l1Fee": "0x1bedc47b",
      "l1GasPrice": "0x35e63d8",
      "l1GasUsed": "0xb16"
    },
    {
      "status": "0x1",
      "cumulativeGasUsed": "0x253830a",
      "logs": [
        {
          "address": "0x337c5b96f03fb335b433291695a4171fd5ded8b0",
          "topics": [
            "0xcdd5a1c6ea1934cc5ea61aadac9c2782a941967d902fdea4f7034463d9a0cfb8",
            "0x0000000000000000000000000000000000000000000000000000000000000009",
            "0x0000000000000000000000000000000000000000000000000000000000000001",
            "0x000000000000000000000000017596303ee2f3c1250aa67d2d33dbae1d1c4dbf"
          ],
          "data": "0x000000000000000000000000000000000000000000000000000000000000006000000000000000000000000000000000000000000000000000000000000000a0d83685d7ba5bbdb6c987b35ceafd4693a99b54da7667bc695671e82095a5b5a700000000000000000000000000000000000000000000000000000000000000094368617074657220320000000000000000000000000000000000000000000000000000000000000000000000000000000000000000000000000000000000002e516d597741504a7a7635435a736e4136323573335866326e656d7459675070486457457a37396f6a576e50626447000000000000000000000000000000000000",
          "blockHash": "0x0000000000000000000000000000000000000000000000000000000000000000",
          "blockNumber": "0x2996d79",
          "blockTimestamp": "0x69bd37d5",
          "transactionHash": "0xc826bb3d47089264a7575c98f4bbd2eaa6141e77ef8b1e79f33d9aad84a52390",
          "transactionIndex": "0x9d",
          "logIndex": "0x2cd",
          "removed": false
        }
      ],
      "logsBloom": "0x00000000000000000000000000000000000000000000000000000000040000000000000000000000001000000000000001000000000000000000000000240000000000000000000001000000000000000000000000040000400000000000000200000000000000000000000000000000000000000000000000000000000000000000000000000000000000000000000000001000000000000000000000000000000000000000000000000000000000000000000000000000000000800000000000000000008000000000000000000000000000000000002000000000000040000000000000000000000000000000000000000000000000000000000000800000",
      "type": "0x2",
      "transactionHash": "0xc826bb3d47089264a7575c98f4bbd2eaa6141e77ef8b1e79f33d9aad84a52390",
      "transactionIndex": "0x9d",
      "blockHash": "0x0000000000000000000000000000000000000000000000000000000000000000",
      "blockNumber": "0x2996d79",
      "gasUsed": "0x9521",
      "effectiveGasPrice": "0x4fa4ee",
      "blobGasUsed": "0x590c",
      "from": "0x017596303ee2f3c1250aa67d2d33dbae1d1c4dbf",
      "to": "0x337c5b96f03fb335b433291695a4171fd5ded8b0",
      "contractAddress": null,
      "daFootprintGasScalar": "0x8b",
      "l1BaseFeeScalar": "0x8dd",
      "l1BlobBaseFee": "0x261119",
      "l1BlobBaseFeeScalar": "0x101c12",
      "l1Fee": "0x22d4ca26",
      "l1GasPrice": "0x35e63d8",
      "l1GasUsed": "0xa4d"
    },
    {
      "status": "0x1",
      "cumulativeGasUsed": "0x1b439d9",
      "logs": [
        {
          "address": "0x337c5b96f03fb335b433291695a4171fd5ded8b0",
          "topics": [
            "0xcdd5a1c6ea1934cc5ea61aadac9c2782a941967d902fdea4f7034463d9a0cfb8",
            "0x0000000000000000000000000000000000000000000000000000000000000009",
            "0x0000000000000000000000000000000000000000000000000000000000000002",
            "0x000000000000000000000000017596303ee2f3c1250aa67d2d33dbae1d1c4dbf"
          ],
          "data": "0x000000000000000000000000000000000000000000000000000000000000006000000000000000000000000000000000000000000000000000000000000000a0c5d05cab670030f536225458cf1ea376c3c16dda15d8948f31ffb56ee8317cc600000000000000000000000000000000000000000000000000000000000000094368617074657220330000000000000000000000000000000000000000000000000000000000000000000000000000000000000000000000000000000000002e516d597741504a7a7635435a736e4136323573335866326e656d7459675070486457457a37396f6a576e50626447000000000000000000000000000000000000",
          "blockHash": "0x0000000000000000000000000000000000000000000000000000000000000000",
          "blockNumber": "0x2996d7a",
          "blockTimestamp": "0x69bd37d7",
          "transactionHash": "0x66687abecb72e6ad426308dfa4c9165421e3cff49342c7f1256c10b8a222ffe9",
          "transactionIndex": "0x76",
          "logIndex": "0x2a1",
          "removed": false
        }
      ],
      "logsBloom": "0x04000000000000000000000000000000000000000000000000000000040000000000000000000000001000000000000001000000000000000000000000200000000000000000000001000000000000000000000000000000400000000000000200000000000000000000000000000000000000000000000000000000000000000000000000000000000000000000000000001000000000000000000000000000000000000000000000000100000000000000000000000000000000800000000000000000008000000000000000000000000000000000002000000000000000000000000000000000000000000000000000000000008000000000000000800000",
      "type": "0x2",
      "transactionHash": "0x66687abecb72e6ad426308dfa4c9165421e3cff49342c7f1256c10b8a222ffe9",
      "transactionIndex": "0x76",
      "blockHash": "0x0000000000000000000000000000000000000000000000000000000000000000",
      "blockNumber": "0x2996d7a",
      "gasUsed": "0x9515",
      "effectiveGasPrice": "0x4f9712",
      "blobGasUsed": "0x590c",
      "from": "0x017596303ee2f3c1250aa67d2d33dbae1d1c4dbf",
      "to": "0x337c5b96f03fb335b433291695a4171fd5ded8b0",
      "contractAddress": null,
      "daFootprintGasScalar": "0x8b",
      "l1BaseFeeScalar": "0x8dd",
      "l1BlobBaseFee": "0x261119",
      "l1BlobBaseFeeScalar": "0x101c12",
      "l1Fee": "0x32044c06",
      "l1GasPrice": "0x35e63d8",
      "l1GasUsed": "0xa4d"
    },
    {
      "status": "0x1",
      "cumulativeGasUsed": "0x150cc5b",
      "logs": [
        {
          "address": "0x337c5b96f03fb335b433291695a4171fd5ded8b0",
          "topics": [
            "0xcdd5a1c6ea1934cc5ea61aadac9c2782a941967d902fdea4f7034463d9a0cfb8",
            "0x0000000000000000000000000000000000000000000000000000000000000009",
            "0x0000000000000000000000000000000000000000000000000000000000000003",
            "0x000000000000000000000000017596303ee2f3c1250aa67d2d33dbae1d1c4dbf"
          ],
          "data": "0x000000000000000000000000000000000000000000000000000000000000006000000000000000000000000000000000000000000000000000000000000000a0612ff55809eba72f2ccd5438f5e96262fdcad3c1c95949ba60bc50e0037f953c00000000000000000000000000000000000000000000000000000000000000094368617074657220340000000000000000000000000000000000000000000000000000000000000000000000000000000000000000000000000000000000002e516d597741504a7a7635435a736e4136323573335866326e656d7459675070486457457a37396f6a576e50626447000000000000000000000000000000000000",
          "blockHash": "0x0000000000000000000000000000000000000000000000000000000000000000",
          "blockNumber": "0x2996d7b",
          "blockTimestamp": "0x69bd37d9",
          "transactionHash": "0x32489037bfe7082b80fd0b7a78aa475146e4185317c7b415fafba14da854cf0d",
          "transactionIndex": "0x5d",
          "logIndex": "0x223",
          "removed": false
        }
      ],
      "logsBloom": "0x00000000000000000000000000000000000000000000000000000000040000000000000000000000001000000000000001000000020000000000000000200000000000000000000001000000000000000000000000000000400000000000000200000000000000000000000000000000000000000000000000000000000000000000000000000000000000000000000000001000000000000000000000000000000000000000000000000000000000000000000000800000000000800000400000000000008000000000000000000000000000000000002000000000000000000000000000000000000000000000000000000000000000000000000000800000",
      "type": "0x2",
      "transactionHash": "0x32489037bfe7082b80fd0b7a78aa475146e4185317c7b415fafba14da854cf0d",
      "transactionIndex": "0x5d",
      "blockHash": "0x0000000000000000000000000000000000000000000000000000000000000000",
      "blockNumber": "0x2996d7b",
      "gasUsed": "0x9521",
      "effectiveGasPrice": "0x4f6e09",
      "blobGasUsed": "0x590c",
      "from": "0x017596303ee2f3c1250aa67d2d33dbae1d1c4dbf",
      "to": "0x337c5b96f03fb335b433291695a4171fd5ded8b0",
      "contractAddress": null,
      "daFootprintGasScalar": "0x8b",
      "l1BaseFeeScalar": "0x8dd",
      "l1BlobBaseFee": "0x261119",
      "l1BlobBaseFeeScalar": "0x101c12",
      "l1Fee": "0x38174cc7",
      "l1GasPrice": "0x35e63d8",
      "l1GasUsed": "0xa4d"
    },
    {
      "status": "0x1",
      "cumulativeGasUsed": "0x38b1fdf",
      "logs": [
        {
          "address": "0xc5a076cad94176c2996b32d8466be1ce757faa27",
          "topics": [
            "0x6596c1670eb3390048d23721809c3da5d3f531375ac0e2cab0f77a808ed64331",
            "0x00000000000000000000000072f4f07dfcec281b2db5e04524c784dac36b0ae7",
            "0x000000000000000000000000f8a2c39111fceb9c950aaf28a9e34ebad99b85c1"
          ],
          "data": "0x00000000000000000000000000000000000000000000000000000000000000400000000000000000000000000000000000000000000000000000000000000080000000000000000000000000000000000000000000000000000000000000000e4532452053746f727920426574610000000000000000000000000000000000000000000000000000000000000000000000000000000000000000000000000005504c2d3130000000000000000000000000000000000000000000000000000000",
          "blockHash": "0x0000000000000000000000000000000000000000000000000000000000000000",
          "blockNumber": "0x2996d7c",
          "blockTimestamp": "0x69bd37db",
          "transactionHash": "0xbec7d2fd9c0826212c05a66b347285c75e7a735fa0629164f1a7c10d0832c5e6",
          "transactionIndex": "0xc1",
          "logIndex": "0x3c4",
          "removed": false
        },
        {
          "address": "0xc5a076cad94176c2996b32d8466be1ce757faa27",
          "topics": [
            "0x9dcef3aa57f22970dfc6ff519e5421e041cc4153300a7dabe19bffe85e255688",
            "0x00000000000000000000000072f4f07dfcec281b2db5e04524c784dac36b0ae7",
            "0x000000000000000000000000017596303ee2f3c1250aa67d2d33dbae1d1c4dbf"
          ],
          "data": "0x",
          "blockHash": "0x0000000000000000000000000000000000000000000000000000000000000000",
          "blockNumber": "0x2996d7c",
          "blockTimestamp": "0x69bd37db",
          "transactionHash": "0xbec7d2fd9c0826212c05a66b347285c75e7a735fa0629164f1a7c10d0832c5e6",
          "transactionIndex": "0xc1",
          "logIndex": "0x3c5",
          "removed": false
        },
        {
          "address": "0x337c5b96f03fb335b433291695a4171fd5ded8b0",
          "topics": [
            "0xff972730618409d15438e7d96bd0047cc7fdcfb51ea622b67460d396b4602853",
            "0x000000000000000000000000000000000000000000000000000000000000000a",
            "0x000000000000000000000000017596303ee2f3c1250aa67d2d33dbae1d1c4dbf"
          ],
          "data": "0x00000000000000000000000072f4f07dfcec281b2db5e04524c784dac36b0ae700000000000000000000000000000000000000000000000000000000000000a0000000000000000000000000000000000000000000000000000000000000000000000000000000000000000000000000000000000000000000000000000000e08f6c3b9d39cbc591403253a4df109a036c0d8a37da33871f0144d491f6712aff000000000000000000000000000000000000000000000000000000000000000e4532452053746f72792042657461000000000000000000000000000000000000000000000000000000000000000000000000000000000000000000000000002e516d597741504a7a7635435a736e4136323573335866326e656d7459675070486457457a37396f6a576e50626447000000000000000000000000000000000000",
          "blockHash": "0x0000000000000000000000000000000000000000000000000000000000000000",
          "blockNumber": "0x2996d7c",
          "blockTimestamp": "0x69bd37db",
          "transactionHash": "0xbec7d2fd9c0826212c05a66b347285c75e7a735fa0629164f1a7c10d0832c5e6",
          "transactionIndex": "0xc1",
          "logIndex": "0x3c6",
          "removed": false
        },
        {
          "address": "0x337c5b96f03fb335b433291695a4171fd5ded8b0",
          "topics": [
            "0xcdd5a1c6ea1934cc5ea61aadac9c2782a941967d902fdea4f7034463d9a0cfb8",
            "0x000000000000000000000000000000000000000000000000000000000000000a",
            "0x0000000000000000000000000000000000000000000000000000000000000000",
            "0x000000000000000000000000017596303ee2f3c1250aa67d2d33dbae1d1c4dbf"
          ],
          "data": "0x000000000000000000000000000000000000000000000000000000000000006000000000000000000000000000000000000000000000000000000000000000a08f6c3b9d39cbc591403253a4df109a036c0d8a37da33871f0144d491f6712aff000000000000000000000000000000000000000000000000000000000000000e4532452053746f72792042657461000000000000000000000000000000000000000000000000000000000000000000000000000000000000000000000000002e516d597741504a7a7635435a736e4136323573335866326e656d7459675070486457457a37396f6a576e50626447000000000000000000000000000000000000",
          "blockHash": "0x0000000000000000000000000000000000000000000000000000000000000000",
          "blockNumber": "0x2996d7c",
          "blockTimestamp": "0x69bd37db",
          "transactionHash": "0xbec7d2fd9c0826212c05a66b347285c75e7a735fa0629164f1a7c10d0832c5e6",
          "transactionIndex": "0xc1",
          "logIndex": "0x3c7",
          "removed": false
        }
      ],
      "logsBloom": "0x00000000000000000000000000000000000000000000000000000000040020001000000000000000001000000000000001000000040000000020000000000000000000000000000001100000000000000000000000000000400020000000000200000000022000040000000000000800000000000100000000000800000000000000000000000000010000000000000000000000000800000000000000000000000000002000000000000000000000000000000000000000000000800000040000000000008080000000000000040000004000000000002000000000000020000000080000000000000000000000000000001000000000020000000000000800",
      "type": "0x2",
      "transactionHash": "0xbec7d2fd9c0826212c05a66b347285c75e7a735fa0629164f1a7c10d0832c5e6",
      "transactionIndex": "0xc1",
      "blockHash": "0x0000000000000000000000000000000000000000000000000000000000000000",
      "blockNumber": "0x2996d7c",
      "gasUsed": "0xd8f988",
      "effectiveGasPrice": "0x4f6d48",
      "blobGasUsed": "0x5bc3",
      "from": "0x017596303ee2f3c1250aa67d2d33dbae1d1c4dbf",
      "to": "0x337c5b96f03fb335b433291695a4171fd5ded8b0",
      "contractAddress": null,
      "daFootprintGasScalar": "0x8b",
      "l1BaseFeeScalar": "0x8dd",
      "l1BlobBaseFee": "0x271388",
      "l1BlobBaseFeeScalar": "0x101c12",
      "l1Fee": "0x23b0cfdc",
      "l1GasPrice": "0x371a0bc",
      "l1GasUsed": "0xa90"
    },
    {
      "status": "0x1",
      "cumulativeGasUsed": "0x28f64b1",
      "logs": [
        {
          "address": "0x337c5b96f03fb335b433291695a4171fd5ded8b0",
          "topics": [
            "0xcdd5a1c6ea1934cc5ea61aadac9c2782a941967d902fdea4f7034463d9a0cfb8",
            "0x000000000000000000000000000000000000000000000000000000000000000a",
            "0x0000000000000000000000000000000000000000000000000000000000000001",
            "0x000000000000000000000000017596303ee2f3c1250aa67d2d33dbae1d1c4dbf"
          ],
          "data": "0x000000000000000000000000000000000000000000000000000000000000006000000000000000000000000000000000000000000000000000000000000000a0d83685d7ba5bbdb6c987b35ceafd4693a99b54da7667bc695671e82095a5b5a7000000000000000000000000000000000000000000000000000000000000000e4265746120436861707465722032000000000000000000000000000000000000000000000000000000000000000000000000000000000000000000000000002e516d597741504a7a7635435a736e4136323573335866326e656d7459675070486457457a37396f6a576e50626447000000000000000000000000000000000000",
          "blockHash": "0x0000000000000000000000000000000000000000000000000000000000000000",
          "blockNumber": "0x2996d7d",
          "blockTimestamp": "0x69bd37dd",
          "transactionHash": "0x794de31b3fd22c742079274f9bdf40c0b850ba2ac1c29b390695c5cd078f091c",
          "transactionIndex": "0x85",
          "logIndex": "0x3de",
          "removed": false
        }
      ],
      "logsBloom": "0x00000000000000000000000000000000000000000000000000000000040000000000000000000000001000000000000001000000040000000020000000040000000000000000000001000000000000000000000000040000400000000000000200000000000000000000000000000000000000000000000000000000000000000000000000000000010000000000000000000000000000000000000000000000000000000000000000000000000000000000000000000000000000800000000000000000008000000000000000000000000000000000002000000000000040000000000000000000000000000000000000000000000000000000000000000000",
      "type": "0x2",
      "transactionHash": "0x794de31b3fd22c742079274f9bdf40c0b850ba2ac1c29b390695c5cd078f091c",
      "transactionIndex": "0x85",
      "blockHash": "0x0000000000000000000000000000000000000000000000000000000000000000",
      "blockNumber": "0x2996d7d",
      "gasUsed": "0x93c5",
      "effectiveGasPrice": "0x4f90ff",
      "blobGasUsed": "0x5bc3",
      "from": "0x017596303ee2f3c1250aa67d2d33dbae1d1c4dbf",
      "to": "0x337c5b96f03fb335b433291695a4171fd5ded8b0",
      "contractAddress": null,
      "daFootprintGasScalar": "0x8b",
      "l1BaseFeeScalar": "0x8dd",
      "l1BlobBaseFee": "0x271388",
      "l1BlobBaseFeeScalar": "0x101c12",
      "l1Fee": "0x1c9e303d",
      "l1GasPrice": "0x371a0bc",
      "l1GasUsed": "0xa90"
    },
    {
      "status": "0x1",
      "cumulativeGasUsed": "0x345b09f",
      "logs": [
        {
          "address": "0xc5a076cad94176c2996b32d8466be1ce757faa27",
          "topics": [
            "0x6596c1670eb3390048d23721809c3da5d3f531375ac0e2cab0f77a808ed64331",
            "0x000000000000000000000000a588d3689bc5a442d1bdec3773ec065469cf6ac0",
            "0x000000000000000000000000f8a2c39111fceb9c950aaf28a9e34ebad99b85c1"
          ],
          "data": "0x00000000000000000000000000000000000000000000000000000000000000400000000000000000000000000000000000000000000000000000000000000080000000000000000000000000000000000000000000000000000000000000000f4532452053746f72792047616d6d6100000000000000000000000000000000000000000000000000000000000000000000000000000000000000000000000005504c2d3131000000000000000000000000000000000000000000000000000000",
          "blockHash": "0x0000000000000000000000000000000000000000000000000000000000000000",
          "blockNumber": "0x2996d7e",
          "blockTimestamp": "0x69bd37df",
          "transactionHash": "0x3eb7b56dcb6ae85d71fa159e8be853f47002b7210a0a92517006e8313d6204d6",
          "transactionIndex": "0xa3",
          "logIndex": "0x31f",
          "removed": false
        },
        {
          "address": "0xc5a076cad94176c2996b32d8466be1ce757faa27",
          "topics": [
            "0x9dcef3aa57f22970dfc6ff519e5421e041cc4153300a7dabe19bffe85e255688",
            "0x000000000000000000000000a588d3689bc5a442d1bdec3773ec065469cf6ac0",
            "0x000000000000000000000000017596303ee2f3c1250aa67d2d33dbae1d1c4dbf"
          ],
          "data": "0x",
          "blockHash": "0x0000000000000000000000000000000000000000000000000000000000000000",
          "blockNumber": "0x2996d7e",
          "blockTimestamp": "0x69bd37df",
          "transactionHash": "0x3eb7b56dcb6ae85d71fa159e8be853f47002b7210a0a92517006e8313d6204d6",
          "transactionIndex": "0xa3",
          "logIndex": "0x320",
          "removed": false
        },
        {
          "address": "0x337c5b96f03fb335b433291695a4171fd5ded8b0",
          "topics": [
            "0xff972730618409d15438e7d96bd0047cc7fdcfb51ea622b67460d396b4602853",
            "0x000000000000000000000000000000000000000000000000000000000000000b",
            "0x000000000000000000000000017596303ee2f3c1250aa67d2d33dbae1d1c4dbf"
          ],
          "data": "0x000000000000000000000000a588d3689bc5a442d1bdec3773ec065469cf6ac000000000000000000000000000000000000000000000000000000000000000a0000000000000000000000000000000000000000000000000000000000000000000000000000000000000000000000000000000000000000000000000000000e08f6c3b9d39cbc591403253a4df109a036c0d8a37da33871f0144d491f6712aff000000000000000000000000000000000000000000000000000000000000000f4532452053746f72792047616d6d610000000000000000000000000000000000000000000000000000000000000000000000000000000000000000000000002e516d597741504a7a7635435a736e4136323573335866326e656d7459675070486457457a37396f6a576e50626447000000000000000000000000000000000000",
          "blockHash": "0x0000000000000000000000000000000000000000000000000000000000000000",
          "blockNumber": "0x2996d7e",
          "blockTimestamp": "0x69bd37df",
          "transactionHash": "0x3eb7b56dcb6ae85d71fa159e8be853f47002b7210a0a92517006e8313d6204d6",
          "transactionIndex": "0xa3",
          "logIndex": "0x321",
          "removed": false
        },
        {
          "address": "0x337c5b96f03fb335b433291695a4171fd5ded8b0",
          "topics": [
            "0xcdd5a1c6ea1934cc5ea61aadac9c2782a941967d902fdea4f7034463d9a0cfb8",
            "0x000000000000000000000000000000000000000000000000000000000000000b",
            "0x0000000000000000000000000000000000000000000000000000000000000000",
            "0x000000000000000000000000017596303ee2f3c1250aa67d2d33dbae1d1c4dbf"
          ],
          "data": "0x000000000000000000000000000000000000000000000000000000000000006000000000000000000000000000000000000000000000000000000000000000a08f6c3b9d39cbc591403253a4df109a036c0d8a37da33871f0144d491f6712aff000000000000000000000000000000000000000000000000000000000000000f4532452053746f72792047616d6d610000000000000000000000000000000000000000000000000000000000000000000000000000000000000000000000002e516d597741504a7a7635435a736e4136323573335866326e656d7459675070486457457a37396f6a576e50626447000000000000000000000000000000000000",
          "blockHash": "0x0000000000000000000000000000000000000000000000000000000000000000",
          "blockNumber": "0x2996d7e",
          "blockTimestamp": "0x69bd37df",
          "transactionHash": "0x3eb7b56dcb6ae85d71fa159e8be853f47002b7210a0a92517006e8313d6204d6",
          "transactionIndex": "0xa3",
          "logIndex": "0x322",
          "removed": false
        }
      ],
      "logsBloom": "0x00000000000000000000004000000000000000000000000000000000060020000000000000000000001000000000000001000000000000000000000000000000000000000000000001000000000000000000000000000000400020000000000200002000022020040000000000000800000000000100000000000800000000000000000000000000000000000000000000000000000800000000000000000000000000002000000000000000000000000000000000000000000000800000040000000000008080000000000000000000006000000000002000000000000020000000080000000000000000000000000000001000000000060000000000000800",
      "type": "0x2",
      "transactionHash": "0x3eb7b56dcb6ae85d71fa159e8be853f47002b7210a0a92517006e8313d6204d6",
      "transactionIndex": "0xa3",
      "blockHash": "0x0000000000000000000000000000000000000000000000000000000000000000",
      "blockNumber": "0x2996d7e",
      "gasUsed": "0xd8f994",
      "effectiveGasPrice": "0x4f9c39",
      "blobGasUsed": "0x5bc3",
      "from": "0x017596303ee2f3c1250aa67d2d33dbae1d1c4dbf",
      "to": "0x337c5b96f03fb335b433291695a4171fd5ded8b0",
      "contractAddress": null,
      "daFootprintGasScalar": "0x8b",
      "l1BaseFeeScalar": "0x8dd",
      "l1BlobBaseFee": "0x271388",
      "l1BlobBaseFeeScalar": "0x101c12",
      "l1Fee": "0x1c9e303d",
      "l1GasPrice": "0x371a0bc",
      "l1GasUsed": "0xa9e"
    },
    {
      "status": "0x1",
      "cumulativeGasUsed": "0x1b18705",
      "logs": [
        {
          "address": "0xc2af849d38847aacbd5b27b8f9a6899aca57412e",
          "topics": [
            "0x8c5be1e5ebec7d5bd14f71427d1e84f3dd0314c0f7b2291e5b200ac8c7c3b925",
            "0x000000000000000000000000017596303ee2f3c1250aa67d2d33dbae1d1c4dbf",
            "0x000000000000000000000000c5a076cad94176c2996b32d8466be1ce757faa27"
          ],
          "data": "0xffffffffffffffffffffffffffffffffffffffffffffffffffffffffffffffff",
          "blockHash": "0x0000000000000000000000000000000000000000000000000000000000000000",
          "blockNumber": "0x2996d7f",
          "blockTimestamp": "0x69bd37e1",
          "transactionHash": "0x3be4d139615b8b0ae7650962c47aa744245000719c3c2d9f251bd7e78ad367a6",
          "transactionIndex": "0x80",
          "logIndex": "0x28f",
          "removed": false
        }
      ],
      "logsBloom": "0x00000000000000000000000000000000000000000000000000000000040000000000000000000000000000000000000000000000000000000000000000200000000000000000000000000000000000000000000000000000000000004000000200000000000000000080000020000000000000000000000000000000000000000000000000000000000000000000000000000000000000000000000000000000020000000000000000000000800000000000000000000000000000800000000000000000000000000000000000000400000000000000000000000000040000000010000000000000000000000000000000000000000000000000000000000000",
      "type": "0x2",
      "transactionHash": "0x3be4d139615b8b0ae7650962c47aa744245000719c3c2d9f251bd7e78ad367a6",
      "transactionIndex": "0x80",
      "blockHash": "0x0000000000000000000000000000000000000000000000000000000000000000",
      "blockNumber": "0x2996d7f",
      "gasUsed": "0xc0a0",
      "effectiveGasPrice": "0x4fc8b7",
      "blobGasUsed": "0x364c",
      "from": "0x017596303ee2f3c1250aa67d2d33dbae1d1c4dbf",
      "to": "0xc2af849d38847aacbd5b27b8f9a6899aca57412e",
      "contractAddress": null,
      "daFootprintGasScalar": "0x8b",
      "l1BaseFeeScalar": "0x8dd",
      "l1BlobBaseFee": "0x271388",
      "l1BlobBaseFeeScalar": "0x101c12",
      "l1Fee": "0x210eb156",
      "l1GasPrice": "0x371a0bc",
      "l1GasUsed": "0x640"
    },
    {
      "status": "0x1",
      "cumulativeGasUsed": "0x256dd1b",
      "logs": [
        {
          "address": "0xc2af849d38847aacbd5b27b8f9a6899aca57412e",
          "topics": [
            "0xddf252ad1be2c89b69c2b068fc378daa952ba7f163c4a11628f55a4df523b3ef",
            "0x0000000000000000000000000000000000000000000000000000000000000000",
            "0x000000000000000000000000017596303ee2f3c1250aa67d2d33dbae1d1c4dbf"
          ],
          "data": "0x0000000000000000000000000000000000000000000000000de0b6b3a7640000",
          "blockHash": "0x0000000000000000000000000000000000000000000000000000000000000000",
          "blockNumber": "0x2996d80",
          "blockTimestamp": "0x69bd37e3",
          "transactionHash": "0x95046cff8e2c1c0a08b46e19a024e915a7295e3d7a7b75820102c9d1bb22a4c6",
          "transactionIndex": "0xe5",
          "logIndex": "0x33d",
          "removed": false
        },
        {
          "address": "0xf8a2c39111fceb9c950aaf28a9e34ebad99b85c1",
          "topics": [
            "0xddf252ad1be2c89b69c2b068fc378daa952ba7f163c4a11628f55a4df523b3ef",
            "0x000000000000000000000000017596303ee2f3c1250aa67d2d33dbae1d1c4dbf",
            "0x000000000000000000000000c5a076cad94176c2996b32d8466be1ce757faa27"
          ],
          "data": "0x00000000000000000000000000000000000000000000000000039696f3392000",
          "blockHash": "0x0000000000000000000000000000000000000000000000000000000000000000",
          "blockNumber": "0x2996d80",
          "blockTimestamp": "0x69bd37e3",
          "transactionHash": "0x95046cff8e2c1c0a08b46e19a024e915a7295e3d7a7b75820102c9d1bb22a4c6",
          "transactionIndex": "0xe5",
          "logIndex": "0x33e",
          "removed": false
        },
        {
          "address": "0xc5a076cad94176c2996b32d8466be1ce757faa27",
          "topics": [
            "0x02ed9b10d8b33a6a9fda664247bfd8f6248f74cff85cc84e56b7530c2fce560a",
            "0x000000000000000000000000c2af849d38847aacbd5b27b8f9a6899aca57412e",
            "0x000000000000000000000000017596303ee2f3c1250aa67d2d33dbae1d1c4dbf",
            "0x000000000000000000000000f8a2c39111fceb9c950aaf28a9e34ebad99b85c1"
          ],
          "data": "0x000000000000000000000000017596303ee2f3c1250aa67d2d33dbae1d1c4dbf0000000000000000000000000000000000000000000000000de0b6b3a764000000000000000000000000000000000000000000000000000000039696f3392000",
          "blockHash": "0x0000000000000000000000000000000000000000000000000000000000000000",
          "blockNumber": "0x2996d80",
          "blockTimestamp": "0x69bd37e3",
          "transactionHash": "0x95046cff8e2c1c0a08b46e19a024e915a7295e3d7a7b75820102c9d1bb22a4c6",
          "transactionIndex": "0xe5",
          "logIndex": "0x33f",
          "removed": false
        }
      ],
      "logsBloom": "0x00000000000000800000000000000000000000000000000000000000040001000000000000000000000000000001004000000000000000000000000000000000000000000000000000001028000000000000000000000000000020004000000200000000022000040080000020000880000000000000000000000010000000000000000000000000000000000000000000000000000800000000000000000000000000000000000000000000800000000000000000001000000000800000000000000002000080000000000000000400204000000000000000000000040020000000000000000000000000000000000000000000000000000000000000000000",
      "type": "0x2",
      "transactionHash": "0x95046cff8e2c1c0a08b46e19a024e915a7295e3d7a7b75820102c9d1bb22a4c6",
      "transactionIndex": "0xe5",
      "blockHash": "0x0000000000000000000000000000000000000000000000000000000000000000",
      "blockNumber": "0x2996d80",
      "gasUsed": "0x13f526",
      "effectiveGasPrice": "0x4fc3c6",
      "blobGasUsed": "0x3e71",
      "from": "0x017596303ee2f3c1250aa67d2d33dbae1d1c4dbf",
      "to": "0xc5a076cad94176c2996b32d8466be1ce757faa27",
      "contractAddress": null,
      "daFootprintGasScalar": "0x8b",
      "l1BaseFeeScalar": "0x8dd",
      "l1BlobBaseFee": "0x271388",
      "l1BlobBaseFeeScalar": "0x101c12",
      "l1Fee": "0x1db4b909",
      "l1GasPrice": "0x371a0bc",
      "l1GasUsed": "0x738"
    },
    {
      "status": "0x1",
      "cumulativeGasUsed": "0x380c095",
      "logs": [
        {
          "address": "0xc2af849d38847aacbd5b27b8f9a6899aca57412e",
          "topics": [
            "0xddf252ad1be2c89b69c2b068fc378daa952ba7f163c4a11628f55a4df523b3ef",
            "0x0000000000000000000000000000000000000000000000000000000000000000",
            "0x000000000000000000000000017596303ee2f3c1250aa67d2d33dbae1d1c4dbf"
          ],
          "data": "0x00000000000000000000000000000000000000000000003635c9adc5dea00000",
          "blockHash": "0x0000000000000000000000000000000000000000000000000000000000000000",
          "blockNumber": "0x2996d81",
          "blockTimestamp": "0x69bd37e5",
          "transactionHash": "0x0d6736ff33636a8de5777600e9956b38b3d64c201d55b56d3dad75231b10f5c3",
          "transactionIndex": "0x11c",
          "logIndex": "0x795",
          "removed": false
        },
        {
          "address": "0xf8a2c39111fceb9c950aaf28a9e34ebad99b85c1",
          "topics": [
            "0xddf252ad1be2c89b69c2b068fc378daa952ba7f163c4a11628f55a4df523b3ef",
            "0x000000000000000000000000017596303ee2f3c1250aa67d2d33dbae1d1c4dbf",
            "0x000000000000000000000000c5a076cad94176c2996b32d8466be1ce757faa27"
          ],
          "data": "0x0000000000000000000000000000000000000000000000000e043da617250000",
          "blockHash": "0x0000000000000000000000000000000000000000000000000000000000000000",
          "blockNumber": "0x2996d81",
          "blockTimestamp": "0x69bd37e5",
          "transactionHash": "0x0d6736ff33636a8de5777600e9956b38b3d64c201d55b56d3dad75231b10f5c3",
          "transactionIndex": "0x11c",
          "logIndex": "0x796",
          "removed": false
        },
        {
          "address": "0xc5a076cad94176c2996b32d8466be1ce757faa27",
          "topics": [
            "0x02ed9b10d8b33a6a9fda664247bfd8f6248f74cff85cc84e56b7530c2fce560a",
            "0x000000000000000000000000c2af849d38847aacbd5b27b8f9a6899aca57412e",
            "0x000000000000000000000000017596303ee2f3c1250aa67d2d33dbae1d1c4dbf",
            "0x000000000000000000000000f8a2c39111fceb9c950aaf28a9e34ebad99b85c1"
          ],
          "data": "0x000000000000000000000000017596303ee2f3c1250aa67d2d33dbae1d1c4dbf00000000000000000000000000000000000000000000003635c9adc5dea000000000000000000000000000000000000000000000000000000e043da617250000",
          "blockHash": "0x0000000000000000000000000000000000000000000000000000000000000000",
          "blockNumber": "0x2996d81",
          "blockTimestamp": "0x69bd37e5",
          "transactionHash": "0x0d6736ff33636a8de5777600e9956b38b3d64c201d55b56d3dad75231b10f5c3",
          "transactionIndex": "0x11c",
          "logIndex": "0x797",
          "removed": false
        }
      ],
      "logsBloom": "0x00000000000000800000000000000000000000000000000000000000040001000000000000000000000000000001004000000000000000000000000000000000000000000000000000001028000000000000000000000000000020004000000200000000022000040080000020000880000000000000000000000010000000000000000000000000000000000000000000000000000800000000000000000000000000000000000000000000800000000000000000001000000000800000000000000002000080000000000000000400204000000000000000000000040020000000000000000000000000000000000000000000000000000000000000000000",
      "type": "0x2",
      "transactionHash": "0x0d6736ff33636a8de5777600e9956b38b3d64c201d55b56d3dad75231b10f5c3",
      "transactionIndex": "0x11c",
      "blockHash": "0x0000000000000000000000000000000000000000000000000000000000000000",
      "blockNumber": "0x2996d81",
      "gasUsed": "0x132cce",
      "effectiveGasPrice": "0x4fd524",
      "blobGasUsed": "0x3efc",
      "from": "0x017596303ee2f3c1250aa67d2d33dbae1d1c4dbf",
      "to": "0xc5a076cad94176c2996b32d8466be1ce757faa27",
      "contractAddress": null,
      "daFootprintGasScalar": "0x8b",
      "l1BaseFeeScalar": "0x8dd",
      "l1BlobBaseFee": "0x271388",
      "l1BlobBaseFeeScalar": "0x101c12",
      "l1Fee": "0x23ee1874",
      "l1GasPrice": "0x371a0bc",
      "l1GasUsed": "0x745"
    },
    {
      "status": "0x1",
      "cumulativeGasUsed": "0x2a9ac3c",
      "logs": [
        {
          "address": "0xc2af849d38847aacbd5b27b8f9a6899aca57412e",
          "topics": [
            "0xddf252ad1be2c89b69c2b068fc378daa952ba7f163c4a11628f55a4df523b3ef",
            "0x0000000000000000000000000000000000000000000000000000000000000000",
            "0x000000000000000000000000017596303ee2f3c1250aa67d2d33dbae1d1c4dbf"
          ],
          "data": "0x00000000000000000000000000000000000000000000021e19e0c9bab2400000",
          "blockHash": "0x0000000000000000000000000000000000000000000000000000000000000000",
          "blockNumber": "0x2996d82",
          "blockTimestamp": "0x69bd37e7",
          "transactionHash": "0x4319004bcb9c3ed0e4fd8dcadb7232e4b9dcfe90f54667cc2fbd443b16b0581b",
          "transactionIndex": "0xd3",
          "logIndex": "0x338",
          "removed": false
        },
        {
          "address": "0xf8a2c39111fceb9c950aaf28a9e34ebad99b85c1",
          "topics": [
            "0xddf252ad1be2c89b69c2b068fc378daa952ba7f163c4a11628f55a4df523b3ef",
            "0x000000000000000000000000017596303ee2f3c1250aa67d2d33dbae1d1c4dbf",
            "0x000000000000000000000000c5a076cad94176c2996b32d8466be1ce757faa27"
          ],
          "data": "0x000000000000000000000000000000000000000000000000919a4fabfb81c00e",
          "blockHash": "0x0000000000000000000000000000000000000000000000000000000000000000",
          "blockNumber": "0x2996d82",
          "blockTimestamp": "0x69bd37e7",
          "transactionHash": "0x4319004bcb9c3ed0e4fd8dcadb7232e4b9dcfe90f54667cc2fbd443b16b0581b",
          "transactionIndex": "0xd3",
          "logIndex": "0x339",
          "removed": false
        },
        {
          "address": "0xc5a076cad94176c2996b32d8466be1ce757faa27",
          "topics": [
            "0x02ed9b10d8b33a6a9fda664247bfd8f6248f74cff85cc84e56b7530c2fce560a",
            "0x000000000000000000000000c2af849d38847aacbd5b27b8f9a6899aca57412e",
            "0x000000000000000000000000017596303ee2f3c1250aa67d2d33dbae1d1c4dbf",
            "0x000000000000000000000000f8a2c39111fceb9c950aaf28a9e34ebad99b85c1"
          ],
          "data": "0x000000000000000000000000017596303ee2f3c1250aa67d2d33dbae1d1c4dbf00000000000000000000000000000000000000000000021e19e0c9bab2400000000000000000000000000000000000000000000000000000919a4fabfb81c00e",
          "blockHash": "0x0000000000000000000000000000000000000000000000000000000000000000",
          "blockNumber": "0x2996d82",
          "blockTimestamp": "0x69bd37e7",
          "transactionHash": "0x4319004bcb9c3ed0e4fd8dcadb7232e4b9dcfe90f54667cc2fbd443b16b0581b",
          "transactionIndex": "0xd3",
          "logIndex": "0x33a",
          "removed": false
        }
      ],
      "logsBloom": "0x00000000000000800000000000000000000000000000000000000000040001000000000000000000000000000001004000000000000000000000000000000000000000000000000000001028000000000000000000000000000020004000000200000000022000040080000020000880000000000000000000000010000000000000000000000000000000000000000000000000000800000000000000000000000000000000000000000000800000000000000000001000000000800000000000000002000080000000000000000400204000000000000000000000040020000000000000000000000000000000000000000000000000000000000000000000",
      "type": "0x2",
      "transactionHash": "0x4319004bcb9c3ed0e4fd8dcadb7232e4b9dcfe90f54667cc2fbd443b16b0581b",
      "transactionIndex": "0xd3",
      "blockHash": "0x0000000000000000000000000000000000000000000000000000000000000000",
      "blockNumber": "0x2996d82",
      "gasUsed": "0x134044",
      "effectiveGasPrice": "0x4ff8b3",
      "blobGasUsed": "0x4012",
      "from": "0x017596303ee2f3c1250aa67d2d33dbae1d1c4dbf",
      "to": "0xc5a076cad94176c2996b32d8466be1ce757faa27",
      "contractAddress": null,
      "daFootprintGasScalar": "0x8b",
      "l1BaseFeeScalar": "0x8dd",
      "l1BlobBaseFee": "0x271388",
      "l1BlobBaseFeeScalar": "0x101c12",
      "l1Fee": "0x1bbe3197",
      "l1GasPrice": "0x333ed9a",
      "l1GasUsed": "0x760"
    },
    {
      "status": "0x1",
      "cumulativeGasUsed": "0x304708c",
      "logs": [
        {
          "address": "0xc2af849d38847aacbd5b27b8f9a6899aca57412e",
          "topics": [
            "0xddf252ad1be2c89b69c2b068fc378daa952ba7f163c4a11628f55a4df523b3ef",
            "0x000000000000000000000000017596303ee2f3c1250aa67d2d33dbae1d1c4dbf",
            "0x0000000000000000000000000000000000000000000000000000000000000000"
          ],
          "data": "0x00000000000000000000000000000000000000000000001b1ae4d6e2ef500000",
          "blockHash": "0x0000000000000000000000000000000000000000000000000000000000000000",
          "blockNumber": "0x2996d83",
          "blockTimestamp": "0x69bd37e9",
          "transactionHash": "0x83713da7b553c90e387d33dba11264f8cdddad325b2852d89a9152e5ec69a77e",
          "transactionIndex": "0xc6",
          "logIndex": "0x460",
          "removed": false
        },
        {
          "address": "0xf8a2c39111fceb9c950aaf28a9e34ebad99b85c1",
          "topics": [
            "0xddf252ad1be2c89b69c2b068fc378daa952ba7f163c4a11628f55a4df523b3ef",
            "0x000000000000000000000000c5a076cad94176c2996b32d8466be1ce757faa27",
            "0x000000000000000000000000017596303ee2f3c1250aa67d2d33dbae1d1c4dbf"
          ],
          "data": "0x0000000000000000000000000000000000000000000000000768ab5d6fdd57e2",
          "blockHash": "0x0000000000000000000000000000000000000000000000000000000000000000",
          "blockNumber": "0x2996d83",
          "blockTimestamp": "0x69bd37e9",
          "transactionHash": "0x83713da7b553c90e387d33dba11264f8cdddad325b2852d89a9152e5ec69a77e",
          "transactionIndex": "0xc6",
          "logIndex": "0x461",
          "removed": false
        },
        {
          "address": "0xc5a076cad94176c2996b32d8466be1ce757faa27",
          "topics": [
            "0x80a56de61873550ae491e454783a8dfc9d08a6f8bdace0887eabd4315c4b9da8",
            "0x000000000000000000000000c2af849d38847aacbd5b27b8f9a6899aca57412e",
            "0x000000000000000000000000017596303ee2f3c1250aa67d2d33dbae1d1c4dbf",
            "0x000000000000000000000000f8a2c39111fceb9c950aaf28a9e34ebad99b85c1"
          ],
          "data": "0x000000000000000000000000017596303ee2f3c1250aa67d2d33dbae1d1c4dbf00000000000000000000000000000000000000000000001b1ae4d6e2ef5000000000000000000000000000000000000000000000000000000768ab5d6fdd57e2",
          "blockHash": "0x0000000000000000000000000000000000000000000000000000000000000000",
          "blockNumber": "0x2996d83",
          "blockTimestamp": "0x69bd37e9",
          "transactionHash": "0x83713da7b553c90e387d33dba11264f8cdddad325b2852d89a9152e5ec69a77e",
          "transactionIndex": "0xc6",
          "logIndex": "0x462",
          "removed": false
        }
      ],
      "logsBloom": "0x00000000000000000000000000000000000000000000000000000000040001000000000000000000000000000001004000000000000000000000000000000000000000000000000000001028000000000000000000000000000020004000000200000000022000040080000020000800000000000000000000000010000000000000000000000000000000000000000000080000000800000000000000000000000000000000000000000000800000000000000000000000000000800000000000000002000080000000000000000400204000000000000000000000040020000000000000000000000000000000000000000000000000040000000001000000",
      "type": "0x2",
      "transactionHash": "0x83713da7b553c90e387d33dba11264f8cdddad325b2852d89a9152e5ec69a77e",
      "transactionIndex": "0xc6",
      "blockHash": "0x0000000000000000000000000000000000000000000000000000000000000000",
      "blockNumber": "0x2996d83",
      "gasUsed": "0x133398",
      "effectiveGasPrice": "0x501837",
      "blobGasUsed": "0x3d5b",
      "from": "0x017596303ee2f3c1250aa67d2d33dbae1d1c4dbf",
      "to": "0xc5a076cad94176c2996b32d8466be1ce757faa27",
      "contractAddress": null,
      "daFootprintGasScalar": "0x8b",
      "l1BaseFeeScalar": "0x8dd",
      "l1BlobBaseFee": "0x271388",
      "l1BlobBaseFeeScalar": "0x101c12",
      "l1Fee": "0x1bbe3197",
      "l1GasPrice": "0x333ed9a",
      "l1GasUsed": "0x71d"
    },
    {
      "status": "0x1",
      "cumulativeGasUsed": "0x226cc40",
      "logs": [
        {
          "address": "0xc2af849d38847aacbd5b27b8f9a6899aca57412e",
          "topics": [
            "0xddf252ad1be2c89b69c2b068fc378daa952ba7f163c4a11628f55a4df523b3ef",
            "0x000000000000000000000000017596303ee2f3c1250aa67d2d33dbae1d1c4dbf",
            "0x0000000000000000000000000000000000000000000000000000000000000000"
          ],
          "data": "0x00000000000000000000000000000000000000000000023942a6575148f40000",
          "blockHash": "0x0000000000000000000000000000000000000000000000000000000000000000",
          "blockNumber": "0x2996d84",
          "blockTimestamp": "0x69bd37eb",
          "transactionHash": "0x0459b9a16c453fb80cca9d0e70aef0f39a24a93f4cbc457cb2224b0380771f62",
          "transactionIndex": "0xaa",
          "logIndex": "0x2b8",
          "removed": false
        },
        {
          "address": "0xf8a2c39111fceb9c950aaf28a9e34ebad99b85c1",
          "topics": [
            "0xddf252ad1be2c89b69c2b068fc378daa952ba7f163c4a11628f55a4df523b3ef",
            "0x000000000000000000000000c5a076cad94176c2996b32d8466be1ce757faa27",
            "0x000000000000000000000000017596303ee2f3c1250aa67d2d33dbae1d1c4dbf"
          ],
          "data": "0x00000000000000000000000000000000000000000000000095103d89819dc82c",
          "blockHash": "0x0000000000000000000000000000000000000000000000000000000000000000",
          "blockNumber": "0x2996d84",
          "blockTimestamp": "0x69bd37eb",
          "transactionHash": "0x0459b9a16c453fb80cca9d0e70aef0f39a24a93f4cbc457cb2224b0380771f62",
          "transactionIndex": "0xaa",
          "logIndex": "0x2b9",
          "removed": false
        },
        {
          "address": "0xc5a076cad94176c2996b32d8466be1ce757faa27",
          "topics": [
            "0x80a56de61873550ae491e454783a8dfc9d08a6f8bdace0887eabd4315c4b9da8",
            "0x000000000000000000000000c2af849d38847aacbd5b27b8f9a6899aca57412e",
            "0x000000000000000000000000017596303ee2f3c1250aa67d2d33dbae1d1c4dbf",
            "0x000000000000000000000000f8a2c39111fceb9c950aaf28a9e34ebad99b85c1"
          ],
          "data": "0x000000000000000000000000017596303ee2f3c1250aa67d2d33dbae1d1c4dbf00000000000000000000000000000000000000000000023942a6575148f4000000000000000000000000000000000000000000000000000095103d89819dc82c",
          "blockHash": "0x0000000000000000000000000000000000000000000000000000000000000000",
          "blockNumber": "0x2996d84",
          "blockTimestamp": "0x69bd37eb",
          "transactionHash": "0x0459b9a16c453fb80cca9d0e70aef0f39a24a93f4cbc457cb2224b0380771f62",
          "transactionIndex": "0xaa",
          "logIndex": "0x2ba",
          "removed": false
        }
      ],
      "logsBloom": "0x00000000000000000000000000000000000000000000000000000000040001000000000000000000000000000001004000000000000000000000000000000000000000000000000000001028000000000000000000000000000020004000000200000000022000040080000020000800000000000000000000000010000000000000000000000000000000000000000000080000000800000000000000000000000000000000000000000000800000000000000000000000000000800000000000000002000080000000000000000400204000000000000000000000040020000000000000000000000000000000000000000000000000040000000001000000",
      "type": "0x2",
      "transactionHash": "0x0459b9a16c453fb80cca9d0e70aef0f39a24a93f4cbc457cb2224b0380771f62",
      "transactionIndex": "0xaa",
      "blockHash": "0x0000000000000000000000000000000000000000000000000000000000000000",
      "blockNumber": "0x2996d84",
      "gasUsed": "0x130b8e",
      "effectiveGasPrice": "0x501441",
      "blobGasUsed": "0x3de6",
      "from": "0x017596303ee2f3c1250aa67d2d33dbae1d1c4dbf",
      "to": "0xc5a076cad94176c2996b32d8466be1ce757faa27",
      "contractAddress": null,
      "daFootprintGasScalar": "0x8b",
      "l1BaseFeeScalar": "0x8dd",
      "l1BlobBaseFee": "0x271388",
      "l1BlobBaseFeeScalar": "0x101c12",
      "l1Fee": "0x1bbe3197",
      "l1GasPrice": "0x333ed9a",
      "l1GasUsed": "0x72a"
    },
    {
      "status": "0x1",
      "cumulativeGasUsed": "0x292c2d6",
      "logs": [
        {
          "address": "0xf8a2c39111fceb9c950aaf28a9e34ebad99b85c1",
          "topics": [
            "0xddf252ad1be2c89b69c2b068fc378daa952ba7f163c4a11628f55a4df523b3ef",
            "0x000000000000000000000000017596303ee2f3c1250aa67d2d33dbae1d1c4dbf",
            "0x00000000000000000000000043f43406e842d6ad8a8ab7546015d5f955c349bb"
          ],
          "data": "0x0000000000000000000000000000000000000000000000004563918244f40000",
          "blockHash": "0x0000000000000000000000000000000000000000000000000000000000000000",
          "blockNumber": "0x2996d85",
          "blockTimestamp": "0x69bd37ed",
          "transactionHash": "0x3f20d744c43ea7d0219d4b86b5ace5c12b8856631156af5e49deafc0cdc72915",
          "transactionIndex": "0xe7",
          "logIndex": "0x3c3",
          "removed": false
        }
      ],
      "logsBloom": "0x00000000000000000000000000000000000000000000000000000000040000000000000000000000000000000000004000000000000000000000000000000000000000000000000000001008000000000000010000000000000000000000000200000000000000000000000000000000000000000000000000000010000000000000000000000000000000000000000000000000000000000000000000000000000000000000000080000000000000000000000000000000000000800000000000000002000000000000000000000000200000000000000000000000000000080000000000000000000000000000000000000000000000000000000000000000",
      "type": "0x2",
      "transactionHash": "0x3f20d744c43ea7d0219d4b86b5ace5c12b8856631156af5e49deafc0cdc72915",
      "transactionIndex": "0xe7",
      "blockHash": "0x0000000000000000000000000000000000000000000000000000000000000000",
      "blockNumber": "0x2996d85",
      "gasUsed": "0x90c0",
      "effectiveGasPrice": "0x500d18",
      "blobGasUsed": "0x364c",
      "from": "0x017596303ee2f3c1250aa67d2d33dbae1d1c4dbf",
      "to": "0xf8a2c39111fceb9c950aaf28a9e34ebad99b85c1",
      "contractAddress": null,
      "daFootprintGasScalar": "0x8b",
      "l1BaseFeeScalar": "0x8dd",
      "l1BlobBaseFee": "0x271388",
      "l1BlobBaseFeeScalar": "0x101c12",
      "l1Fee": "0x1ee2e692",
      "l1GasPrice": "0x333ed9a",
      "l1GasUsed": "0x640"
    },
    {
      "status": "0x1",
      "cumulativeGasUsed": "0x33dc081",
      "logs": [
        {
          "address": "0xf8a2c39111fceb9c950aaf28a9e34ebad99b85c1",
          "topics": [
            "0x8c5be1e5ebec7d5bd14f71427d1e84f3dd0314c0f7b2291e5b200ac8c7c3b925",
            "0x00000000000000000000000043f43406e842d6ad8a8ab7546015d5f955c349bb",
            "0x000000000000000000000000337c5b96f03fb335b433291695a4171fd5ded8b0"
          ],
          "data": "0xffffffffffffffffffffffffffffffffffffffffffffffffffffffffffffffff",
          "blockHash": "0x0000000000000000000000000000000000000000000000000000000000000000",
          "blockNumber": "0x2996d85",
          "blockTimestamp": "0x69bd37ed",
          "transactionHash": "0xda227f15c06ec490cdcdde068800a6bb3a2fb0bb1664a698620c5f8bbee1055d",
          "transactionIndex": "0x122",
          "logIndex": "0x4a2",
          "removed": false
        }
      ],
      "logsBloom": "0x00000000000000000000000000000000000000000000000000000000000000000000000000000000000000000004004000000000000000000000400000200000000000000000000000001000000000000000010000000000000000000000000000000000000000000000000000000000000000000000000000000000000000000000000000000000000000000000000000000000000000000000000001000000020000000000000080000000000000000000000000000000000000000000000000000000000000000000000000000000200000000000000000000000000000080010000000000000000000000000000000000000000000000000000000000000",
      "type": "0x2",
      "transactionHash": "0xda227f15c06ec490cdcdde068800a6bb3a2fb0bb1664a698620c5f8bbee1055d",
      "transactionIndex": "0x122",
      "blockHash": "0x0000000000000000000000000000000000000000000000000000000000000000",
      "blockNumber": "0x2996d85",
      "gasUsed": "0xc0a0",
      "effectiveGasPrice": "0x500d18",
      "blobGasUsed": "0x364c",
      "from": "0x43f43406e842d6ad8a8ab7546015d5f955c349bb",
      "to": "0xf8a2c39111fceb9c950aaf28a9e34ebad99b85c1",
      "contractAddress": null,
      "daFootprintGasScalar": "0x8b",
      "l1BaseFeeScalar": "0x8dd",
      "l1BlobBaseFee": "0x271388",
      "l1BlobBaseFeeScalar": "0x101c12",
      "l1Fee": "0x1ee2e692",
      "l1GasPrice": "0x333ed9a",
      "l1GasUsed": "0x640"
    },
    {
      "status": "0x1",
      "cumulativeGasUsed": "0x26c89ed",
      "logs": [
        {
          "address": "0xf8a2c39111fceb9c950aaf28a9e34ebad99b85c1",
          "topics": [
            "0xddf252ad1be2c89b69c2b068fc378daa952ba7f163c4a11628f55a4df523b3ef",
            "0x00000000000000000000000043f43406e842d6ad8a8ab7546015d5f955c349bb",
            "0x000000000000000000000000017596303ee2f3c1250aa67d2d33dbae1d1c4dbf"
          ],
          "data": "0x00000000000000000000000000000000000000000000000000038d7ea4c68000",
          "blockHash": "0x0000000000000000000000000000000000000000000000000000000000000000",
          "blockNumber": "0x2996d86",
          "blockTimestamp": "0x69bd37ef",
          "transactionHash": "0x9bd56593a4040c908f94e4783a15020ae13f3a0162769fffb4900ada2b9f5e69",
          "transactionIndex": "0xf5",
          "logIndex": "0x3b8",
          "removed": false
        },
        {
          "address": "0x337c5b96f03fb335b433291695a4171fd5ded8b0",
          "topics": [
            "0xf8365d4d9099667b0e8a25091b48c493c5bc6e86ec76cff2edac212a8e776b40",
            "0x0000000000000000000000000000000000000000000000000000000000000009",
            "0x00000000000000000000000043f43406e842d6ad8a8ab7546015d5f955c349bb"
          ],
          "data": "0x00000000000000000000000000000000000000000000000000038d7ea4c68000",
          "blockHash": "0x0000000000000000000000000000000000000000000000000000000000000000",
          "blockNumber": "0x2996d86",
          "blockTimestamp": "0x69bd37ef",
          "transactionHash": "0x9bd56593a4040c908f94e4783a15020ae13f3a0162769fffb4900ada2b9f5e69",
          "transactionIndex": "0xf5",
          "logIndex": "0x3b9",
          "removed": false
        }
      ],
      "logsBloom": "0x00000000000000000000000000000000000000000000000000000000040000000000000000000000000000000000004000000000000000000000000000200000000000000000000001001008000000000000010000400000400000000000000200000000000000000000000000000000000000000000000000040010000000000000000000000000000000000000000000001000000000000000000000000000000000000000000080000000000000000000000000000000000000800000000000000002000000000000000000000000200000000000002000004000000000080000000000000000000000000000000000000000000000000000000000800000",
      "type": "0x2",
      "transactionHash": "0x9bd56593a4040c908f94e4783a15020ae13f3a0162769fffb4900ada2b9f5e69",
      "transactionIndex": "0xf5",
      "blockHash": "0x0000000000000000000000000000000000000000000000000000000000000000",
      "blockNumber": "0x2996d86",
      "gasUsed": "0xba39",
      "effectiveGasPrice": "0x5013f0",
      "blobGasUsed": "0x364c",
      "from": "0x43f43406e842d6ad8a8ab7546015d5f955c349bb",
      "to": "0x337c5b96f03fb335b433291695a4171fd5ded8b0",
      "contractAddress": null,
      "daFootprintGasScalar": "0x8b",
      "l1BaseFeeScalar": "0x8dd",
      "l1BlobBaseFee": "0x271388",
      "l1BlobBaseFeeScalar": "0x101c12",
      "l1Fee": "0x23104729",
      "l1GasPrice": "0x333ed9a",
      "l1GasUsed": "0x640"
    },
    {
      "status": "0x1",
      "cumulativeGasUsed": "0x27a121e",
      "logs": [
        {
          "address": "0xf8a2c39111fceb9c950aaf28a9e34ebad99b85c1",
          "topics": [
            "0xddf252ad1be2c89b69c2b068fc378daa952ba7f163c4a11628f55a4df523b3ef",
            "0x00000000000000000000000043f43406e842d6ad8a8ab7546015d5f955c349bb",
            "0x000000000000000000000000017596303ee2f3c1250aa67d2d33dbae1d1c4dbf"
          ],
          "data": "0x0000000000000000000000000000000000000000000000000de0b6b3a7640000",
          "blockHash": "0x0000000000000000000000000000000000000000000000000000000000000000",
          "blockNumber": "0x2996d87",
          "blockTimestamp": "0x69bd37f1",
          "transactionHash": "0x2112908358fac0a2a8df2ccc83ca0c97960fac9e399419cff1197672e13fd77c",
          "transactionIndex": "0x8e",
          "logIndex": "0x365",
          "removed": false
        },
        {
          "address": "0x337c5b96f03fb335b433291695a4171fd5ded8b0",
          "topics": [
            "0xf8365d4d9099667b0e8a25091b48c493c5bc6e86ec76cff2edac212a8e776b40",
            "0x0000000000000000000000000000000000000000000000000000000000000009",
            "0x00000000000000000000000043f43406e842d6ad8a8ab7546015d5f955c349bb"
          ],
          "data": "0x0000000000000000000000000000000000000000000000000de0b6b3a7640000",
          "blockHash": "0x0000000000000000000000000000000000000000000000000000000000000000",
          "blockNumber": "0x2996d87",
          "blockTimestamp": "0x69bd37f1",
          "transactionHash": "0x2112908358fac0a2a8df2ccc83ca0c97960fac9e399419cff1197672e13fd77c",
          "transactionIndex": "0x8e",
          "logIndex": "0x366",
          "removed": false
        }
      ],
      "logsBloom": "0x00000000000000000000000000000000000000000000000000000000040000000000000000000000000000000000004000000000000000000000000000200000000000000000000001001008000000000000010000400000400000000000000200000000000000000000000000000000000000000000000000040010000000000000000000000000000000000000000000001000000000000000000000000000000000000000000080000000000000000000000000000000000000800000000000000002000000000000000000000000200000000000002000004000000000080000000000000000000000000000000000000000000000000000000000800000",
      "type": "0x2",
      "transactionHash": "0x2112908358fac0a2a8df2ccc83ca0c97960fac9e399419cff1197672e13fd77c",
      "transactionIndex": "0x8e",
      "blockHash": "0x0000000000000000000000000000000000000000000000000000000000000000",
      "blockNumber": "0x2996d87",
      "gasUsed": "0xba39",
      "effectiveGasPrice": "0x5007c0",
      "blobGasUsed": "0x364c",
      "from": "0x43f43406e842d6ad8a8ab7546015d5f955c349bb",
      "to": "0x337c5b96f03fb335b433291695a4171fd5ded8b0",
      "contractAddress": null,
      "daFootprintGasScalar": "0x8b",
      "l1BaseFeeScalar": "0x8dd",
      "l1BlobBaseFee": "0x271388",
      "l1BlobBaseFeeScalar": "0x101c12",
      "l1Fee": "0x939e0e2f",
      "l1GasPrice": "0x333ed9a",
      "l1GasUsed": "0x640"
    },
    {
      "status": "0x1",
      "cumulativeGasUsed": "0xff6612",
      "logs": [
        {
          "address": "0xf8a2c39111fceb9c950aaf28a9e34ebad99b85c1",
          "topics": [
            "0xddf252ad1be2c89b69c2b068fc378daa952ba7f163c4a11628f55a4df523b3ef",
            "0x00000000000000000000000043f43406e842d6ad8a8ab7546015d5f955c349bb",
            "0x000000000000000000000000017596303ee2f3c1250aa67d2d33dbae1d1c4dbf"
          ],
          "data": "0x00000000000000000000000000000000000000000000000006f05b59d3b20000",
          "blockHash": "0x0000000000000000000000000000000000000000000000000000000000000000",
          "blockNumber": "0x2996d89",
          "blockTimestamp": "0x69bd37f5",
          "transactionHash": "0xa8c967a775a7ee21845b76cfade6c598dc9fe5e81c89c2f89dfd8b09d189685a",
          "transactionIndex": "0x43",
          "logIndex": "0x239",
          "removed": false
        },
        {
          "address": "0x337c5b96f03fb335b433291695a4171fd5ded8b0",
          "topics": [
            "0xf8365d4d9099667b0e8a25091b48c493c5bc6e86ec76cff2edac212a8e776b40",
            "0x0000000000000000000000000000000000000000000000000000000000000009",
            "0x00000000000000000000000043f43406e842d6ad8a8ab7546015d5f955c349bb"
          ],
          "data": "0x00000000000000000000000000000000000000000000000006f05b59d3b20000",
          "blockHash": "0x0000000000000000000000000000000000000000000000000000000000000000",
          "blockNumber": "0x2996d89",
          "blockTimestamp": "0x69bd37f5",
          "transactionHash": "0xa8c967a775a7ee21845b76cfade6c598dc9fe5e81c89c2f89dfd8b09d189685a",
          "transactionIndex": "0x43",
          "logIndex": "0x23a",
          "removed": false
        }
      ],
      "logsBloom": "0x00000000000000000000000000000000000000000000000000000000040000000000000000000000000000000000004000000000000000000000000000200000000000000000000001001008000000000000010000400000400000000000000200000000000000000000000000000000000000000000000000040010000000000000000000000000000000000000000000001000000000000000000000000000000000000000000080000000000000000000000000000000000000800000000000000002000000000000000000000000200000000000002000004000000000080000000000000000000000000000000000000000000000000000000000800000",
      "type": "0x2",
      "transactionHash": "0xa8c967a775a7ee21845b76cfade6c598dc9fe5e81c89c2f89dfd8b09d189685a",
      "transactionIndex": "0x43",
      "blockHash": "0x0000000000000000000000000000000000000000000000000000000000000000",
      "blockNumber": "0x2996d89",
      "gasUsed": "0xba39",
      "effectiveGasPrice": "0x501b41",
      "blobGasUsed": "0x364c",
      "from": "0x43f43406e842d6ad8a8ab7546015d5f955c349bb",
      "to": "0x337c5b96f03fb335b433291695a4171fd5ded8b0",
      "contractAddress": null,
      "daFootprintGasScalar": "0x8b",
      "l1BaseFeeScalar": "0x8dd",
      "l1BlobBaseFee": "0x27d051",
      "l1BlobBaseFeeScalar": "0x101c12",
      "l1Fee": "0x3365abf3",
      "l1GasPrice": "0x36b6fa9",
      "l1GasUsed": "0x640"
    },
    {
      "status": "0x1",
      "cumulativeGasUsed": "0x230ad2a",
      "logs": [
        {
          "address": "0xf8a2c39111fceb9c950aaf28a9e34ebad99b85c1",
          "topics": [
            "0xddf252ad1be2c89b69c2b068fc378daa952ba7f163c4a11628f55a4df523b3ef",
            "0x00000000000000000000000043f43406e842d6ad8a8ab7546015d5f955c349bb",
            "0x000000000000000000000000017596303ee2f3c1250aa67d2d33dbae1d1c4dbf"
          ],
          "data": "0x00000000000000000000000000000000000000000000000006f05b59d3b20000",
          "blockHash": "0x0000000000000000000000000000000000000000000000000000000000000000",
          "blockNumber": "0x2996d8a",
          "blockTimestamp": "0x69bd37f7",
          "transactionHash": "0x4b00b2177cf8a05dd1abf9e44f7d254e213a4bb356dc17115230e846d385312e",
          "transactionIndex": "0x98",
          "logIndex": "0x2ec",
          "removed": false
        },
        {
          "address": "0x337c5b96f03fb335b433291695a4171fd5ded8b0",
          "topics": [
            "0xf8365d4d9099667b0e8a25091b48c493c5bc6e86ec76cff2edac212a8e776b40",
            "0x000000000000000000000000000000000000000000000000000000000000000a",
            "0x00000000000000000000000043f43406e842d6ad8a8ab7546015d5f955c349bb"
          ],
          "data": "0x00000000000000000000000000000000000000000000000006f05b59d3b20000",
          "blockHash": "0x0000000000000000000000000000000000000000000000000000000000000000",
          "blockNumber": "0x2996d8a",
          "blockTimestamp": "0x69bd37f7",
          "transactionHash": "0x4b00b2177cf8a05dd1abf9e44f7d254e213a4bb356dc17115230e846d385312e",
          "transactionIndex": "0x98",
          "logIndex": "0x2ed",
          "removed": false
        }
      ],
      "logsBloom": "0x00000000000000000000000000000000000000000000000000000000040000000000000000000000000000000000004000000000040000000020000000000000000000000000000001001008000000000000010000400000400000000000000200000000000000000000000000000000000000000000000000040010000000000000000000000000010000000000000000000000000000000000000000000000000000000000000080000000000000000000000000000000000000800000000000000002000000000000000000000000200000000000002000004000000000080000000000000000000000000000000000000000000000000000000000000000",
      "type": "0x2",
      "transactionHash": "0x4b00b2177cf8a05dd1abf9e44f7d254e213a4bb356dc17115230e846d385312e",
      "transactionIndex": "0x98",
      "blockHash": "0x0000000000000000000000000000000000000000000000000000000000000000",
      "blockNumber": "0x2996d8a",
      "gasUsed": "0xba39",
      "effectiveGasPrice": "0x5030d2",
      "blobGasUsed": "0x364c",
      "from": "0x43f43406e842d6ad8a8ab7546015d5f955c349bb",
      "to": "0x337c5b96f03fb335b433291695a4171fd5ded8b0",
      "contractAddress": null,
      "daFootprintGasScalar": "0x8b",
      "l1BaseFeeScalar": "0x8dd",
      "l1BlobBaseFee": "0x27d051",
      "l1BlobBaseFeeScalar": "0x101c12",
      "l1Fee": "0x2283653d",
      "l1GasPrice": "0x36b6fa9",
      "l1GasUsed": "0x640"
    },
    {
      "status": "0x1",
      "cumulativeGasUsed": "0xd78284",
      "logs": [
        {
          "address": "0xf8a2c39111fceb9c950aaf28a9e34ebad99b85c1",
          "topics": [
            "0xddf252ad1be2c89b69c2b068fc378daa952ba7f163c4a11628f55a4df523b3ef",
            "0x000000000000000000000000c5a076cad94176c2996b32d8466be1ce757faa27",
            "0x000000000000000000000000017596303ee2f3c1250aa67d2d33dbae1d1c4dbf"
          ],
          "data": "0x00000000000000000000000000000000000000000000000002a3ce5d3684999a",
          "blockHash": "0x0000000000000000000000000000000000000000000000000000000000000000",
          "blockNumber": "0x2996d8b",
          "blockTimestamp": "0x69bd37f9",
          "transactionHash": "0xe3dcdf2ddd98b1c800f93c0aac8e775f594966e1ad2adf7461f0f9b0284cbe6f",
          "transactionIndex": "0x3e",
          "logIndex": "0x1d7",
          "removed": false
        },
        {
          "address": "0xc5a076cad94176c2996b32d8466be1ce757faa27",
          "topics": [
            "0xd1b893da855ca6a7c9cfbaff142da78c734a39d4811ad711fe7acfd6e5e433a4",
            "0x000000000000000000000000017596303ee2f3c1250aa67d2d33dbae1d1c4dbf"
          ],
          "data": "0x000000000000000000000000f8a2c39111fceb9c950aaf28a9e34ebad99b85c100000000000000000000000000000000000000000000000002a3ce5d3684999a",
          "blockHash": "0x0000000000000000000000000000000000000000000000000000000000000000",
          "blockNumber": "0x2996d8b",
          "blockTimestamp": "0x69bd37f9",
          "transactionHash": "0xe3dcdf2ddd98b1c800f93c0aac8e775f594966e1ad2adf7461f0f9b0284cbe6f",
          "transactionIndex": "0x3e",
          "logIndex": "0x1d8",
          "removed": false
        }
      ],
      "logsBloom": "0x00000000000000000000000000000000000000000000000000000000040000000000000000000000000000000000004000000000000000000000000000000000000000000000000000001008000000000000000000000000000020000000000200000000000000040080000000000000000000000000000000000010000000000000000000000000000000000000002000000000000000000000000000000000000000000000000000000000800000000000000000000000000000800000000000000002000000000000000000000000204000000008000000000000040002000000000000000000000000000000000000000000000000000000000000000000",
      "type": "0x2",
      "transactionHash": "0xe3dcdf2ddd98b1c800f93c0aac8e775f594966e1ad2adf7461f0f9b0284cbe6f",
      "transactionIndex": "0x3e",
      "blockHash": "0x0000000000000000000000000000000000000000000000000000000000000000",
      "blockNumber": "0x2996d8b",
      "gasUsed": "0xbdc9",
      "effectiveGasPrice": "0x5026a7",
      "blobGasUsed": "0x364c",
      "from": "0x017596303ee2f3c1250aa67d2d33dbae1d1c4dbf",
      "to": "0xc5a076cad94176c2996b32d8466be1ce757faa27",
      "contractAddress": null,
      "daFootprintGasScalar": "0x8b",
      "l1BaseFeeScalar": "0x8dd",
      "l1BlobBaseFee": "0x27d051",
      "l1BlobBaseFeeScalar": "0x101c12",
      "l1Fee": "0x1cd59101",
      "l1GasPrice": "0x36b6fa9",
      "l1GasUsed": "0x640"
    },
    {
      "status": "0x1",
      "cumulativeGasUsed": "0x323bab6",
      "logs": [
        {
          "address": "0xc5a076cad94176c2996b32d8466be1ce757faa27",
          "topics": [
            "0x6596c1670eb3390048d23721809c3da5d3f531375ac0e2cab0f77a808ed64331",
            "0x000000000000000000000000358fac554833dc61d4c0e1e8842075e40fb32da0",
            "0x000000000000000000000000f8a2c39111fceb9c950aaf28a9e34ebad99b85c1"
          ],
          "data": "0x00000000000000000000000000000000000000000000000000000000000000400000000000000000000000000000000000000000000000000000000000000080000000000000000000000000000000000000000000000000000000000000000c45646765204d696e2043494400000000000000000000000000000000000000000000000000000000000000000000000000000000000000000000000000000005504c2d3132000000000000000000000000000000000000000000000000000000",
          "blockHash": "0x0000000000000000000000000000000000000000000000000000000000000000",
          "blockNumber": "0x2996d8c",
          "blockTimestamp": "0x69bd37fb",
          "transactionHash": "0x8afe38e582abe2fe53fe3ec4d12b8bca2b888af07467da8fd5a04277af94833c",
          "transactionIndex": "0xa0",
          "logIndex": "0x374",
          "removed": false
        },
        {
          "address": "0xc5a076cad94176c2996b32d8466be1ce757faa27",
          "topics": [
            "0x9dcef3aa57f22970dfc6ff519e5421e041cc4153300a7dabe19bffe85e255688",
            "0x000000000000000000000000358fac554833dc61d4c0e1e8842075e40fb32da0",
            "0x000000000000000000000000017596303ee2f3c1250aa67d2d33dbae1d1c4dbf"
          ],
          "data": "0x",
          "blockHash": "0x0000000000000000000000000000000000000000000000000000000000000000",
          "blockNumber": "0x2996d8c",
          "blockTimestamp": "0x69bd37fb",
          "transactionHash": "0x8afe38e582abe2fe53fe3ec4d12b8bca2b888af07467da8fd5a04277af94833c",
          "transactionIndex": "0xa0",
          "logIndex": "0x375",
          "removed": false
        },
        {
          "address": "0x337c5b96f03fb335b433291695a4171fd5ded8b0",
          "topics": [
            "0xff972730618409d15438e7d96bd0047cc7fdcfb51ea622b67460d396b4602853",
            "0x000000000000000000000000000000000000000000000000000000000000000c",
            "0x000000000000000000000000017596303ee2f3c1250aa67d2d33dbae1d1c4dbf"
          ],
          "data": "0x000000000000000000000000358fac554833dc61d4c0e1e8842075e40fb32da000000000000000000000000000000000000000000000000000000000000000a0000000000000000000000000000000000000000000000000000000000000000000000000000000000000000000000000000000000000000000000000000000e08f6c3b9d39cbc591403253a4df109a036c0d8a37da33871f0144d491f6712aff000000000000000000000000000000000000000000000000000000000000000c45646765204d696e204349440000000000000000000000000000000000000000000000000000000000000000000000000000000000000000000000000000002e516d597741504a7a7635435a736e4136323573335866326e656d7459675070486457457a37396f6a576e50626447000000000000000000000000000000000000",
          "blockHash": "0x0000000000000000000000000000000000000000000000000000000000000000",
          "blockNumber": "0x2996d8c",
          "blockTimestamp": "0x69bd37fb",
          "transactionHash": "0x8afe38e582abe2fe53fe3ec4d12b8bca2b888af07467da8fd5a04277af94833c",
          "transactionIndex": "0xa0",
          "logIndex": "0x376",
          "removed": false
        },
        {
          "address": "0x337c5b96f03fb335b433291695a4171fd5ded8b0",
          "topics": [
            "0xcdd5a1c6ea1934cc5ea61aadac9c2782a941967d902fdea4f7034463d9a0cfb8",
            "0x000000000000000000000000000000000000000000000000000000000000000c",
            "0x0000000000000000000000000000000000000000000000000000000000000000",
            "0x000000000000000000000000017596303ee2f3c1250aa67d2d33dbae1d1c4dbf"
          ],
          "data": "0x000000000000000000000000000000000000000000000000000000000000006000000000000000000000000000000000000000000000000000000000000000a08f6c3b9d39cbc591403253a4df109a036c0d8a37da33871f0144d491f6712aff000000000000000000000000000000000000000000000000000000000000000c45646765204d696e204349440000000000000000000000000000000000000000000000000000000000000000000000000000000000000000000000000000002e516d597741504a7a7635435a736e4136323573335866326e656d7459675070486457457a37396f6a576e50626447000000000000000000000000000000000000",
          "blockHash": "0x0000000000000000000000000000000000000000000000000000000000000000",
          "blockNumber": "0x2996d8c",
          "blockTimestamp": "0x69bd37fb",
          "transactionHash": "0x8afe38e582abe2fe53fe3ec4d12b8bca2b888af07467da8fd5a04277af94833c",
          "transactionIndex": "0xa0",
          "logIndex": "0x377",
          "removed": false
        }
      ],
      "logsBloom": "0x00000000000000000000000000000000000002000000000000000000040020000000000000000200001000000000000001000000000000000000000000000000000000000000000001000000000000000000000000000000400020000000000200000000022000040000000000000800000000000100000000000800000000000000000000000000000000000000000000000000000800000000000000000000000000002000000000000000000000000000400000000000000000800000840000000000008080000000000000000000004000000000002000000000400020200000080000000000000000000000000000001000000000020000000000000800",
      "type": "0x2",
      "transactionHash": "0x8afe38e582abe2fe53fe3ec4d12b8bca2b888af07467da8fd5a04277af94833c",
      "transactionIndex": "0xa0",
      "blockHash": "0x0000000000000000000000000000000000000000000000000000000000000000",
      "blockNumber": "0x2996d8c",
      "gasUsed": "0xd8f970",
      "effectiveGasPrice": "0x500988",
      "blobGasUsed": "0x5aad",
      "from": "0x017596303ee2f3c1250aa67d2d33dbae1d1c4dbf",
      "to": "0x337c5b96f03fb335b433291695a4171fd5ded8b0",
      "contractAddress": null,
      "daFootprintGasScalar": "0x8b",
      "l1BaseFeeScalar": "0x8dd",
      "l1BlobBaseFee": "0x27d051",
      "l1BlobBaseFeeScalar": "0x101c12",
      "l1Fee": "0x1cd59101",
      "l1GasPrice": "0x36b6fa9",
      "l1GasUsed": "0xa76"
    },
    {
      "status": "0x1",
      "cumulativeGasUsed": "0x2e30a87",
      "logs": [
        {
          "address": "0xc5a076cad94176c2996b32d8466be1ce757faa27",
          "topics": [
            "0x6596c1670eb3390048d23721809c3da5d3f531375ac0e2cab0f77a808ed64331",
            "0x000000000000000000000000139f38e4638caa2e3462e97d32929a0c758daa76",
            "0x000000000000000000000000f8a2c39111fceb9c950aaf28a9e34ebad99b85c1"
          ],
          "data": "0x00000000000000000000000000000000000000000000000000000000000000400000000000000000000000000000000000000000000000000000000000000080000000000000000000000000000000000000000000000000000000000000000c45646765204d61782043494400000000000000000000000000000000000000000000000000000000000000000000000000000000000000000000000000000005504c2d3133000000000000000000000000000000000000000000000000000000",
          "blockHash": "0x0000000000000000000000000000000000000000000000000000000000000000",
          "blockNumber": "0x2996d8d",
          "blockTimestamp": "0x69bd37fd",
          "transactionHash": "0x0b90453a5eb5ae01e3cb3259a23758e2b9cf0e10b80aeda2dd7d83286add1a84",
          "transactionIndex": "0x97",
          "logIndex": "0x32b",
          "removed": false
        },
        {
          "address": "0xc5a076cad94176c2996b32d8466be1ce757faa27",
          "topics": [
            "0x9dcef3aa57f22970dfc6ff519e5421e041cc4153300a7dabe19bffe85e255688",
            "0x000000000000000000000000139f38e4638caa2e3462e97d32929a0c758daa76",
            "0x000000000000000000000000017596303ee2f3c1250aa67d2d33dbae1d1c4dbf"
          ],
          "data": "0x",
          "blockHash": "0x0000000000000000000000000000000000000000000000000000000000000000",
          "blockNumber": "0x2996d8d",
          "blockTimestamp": "0x69bd37fd",
          "transactionHash": "0x0b90453a5eb5ae01e3cb3259a23758e2b9cf0e10b80aeda2dd7d83286add1a84",
          "transactionIndex": "0x97",
          "logIndex": "0x32c",
          "removed": false
        },
        {
          "address": "0x337c5b96f03fb335b433291695a4171fd5ded8b0",
          "topics": [
            "0xff972730618409d15438e7d96bd0047cc7fdcfb51ea622b67460d396b4602853",
            "0x000000000000000000000000000000000000000000000000000000000000000d",
            "0x000000000000000000000000017596303ee2f3c1250aa67d2d33dbae1d1c4dbf"
          ],
          "data": "0x000000000000000000000000139f38e4638caa2e3462e97d32929a0c758daa7600000000000000000000000000000000000000000000000000000000000000a0000000000000000000000000000000000000000000000000000000000000000000000000000000000000000000000000000000000000000000000000000000e08f6c3b9d39cbc591403253a4df109a036c0d8a37da33871f0144d491f6712aff000000000000000000000000000000000000000000000000000000000000000c45646765204d6178204349440000000000000000000000000000000000000000000000000000000000000000000000000000000000000000000000000000006462616679626569676479727a74357366703775646d37687537367568377932366e6633656675796c71616266336f636c67747179353566627a6469313233343536373839306162636465666768696a6b6c6d6e6f707172737475767778797a313233343500000000000000000000000000000000000000000000000000000000",
          "blockHash": "0x0000000000000000000000000000000000000000000000000000000000000000",
          "blockNumber": "0x2996d8d",
          "blockTimestamp": "0x69bd37fd",
          "transactionHash": "0x0b90453a5eb5ae01e3cb3259a23758e2b9cf0e10b80aeda2dd7d83286add1a84",
          "transactionIndex": "0x97",
          "logIndex": "0x32d",
          "removed": false
        },
        {
          "address": "0x337c5b96f03fb335b433291695a4171fd5ded8b0",
          "topics": [
            "0xcdd5a1c6ea1934cc5ea61aadac9c2782a941967d902fdea4f7034463d9a0cfb8",
            "0x000000000000000000000000000000000000000000000000000000000000000d",
            "0x0000000000000000000000000000000000000000000000000000000000000000",
            "0x000000000000000000000000017596303ee2f3c1250aa67d2d33dbae1d1c4dbf"
          ],
          "data": "0x000000000000000000000000000000000000000000000000000000000000006000000000000000000000000000000000000000000000000000000000000000a08f6c3b9d39cbc591403253a4df109a036c0d8a37da33871f0144d491f6712aff000000000000000000000000000000000000000000000000000000000000000c45646765204d6178204349440000000000000000000000000000000000000000000000000000000000000000000000000000000000000000000000000000006462616679626569676479727a74357366703775646d37687537367568377932366e6633656675796c71616266336f636c67747179353566627a6469313233343536373839306162636465666768696a6b6c6d6e6f707172737475767778797a313233343500000000000000000000000000000000000000000000000000000000",
          "blockHash": "0x0000000000000000000000000000000000000000000000000000000000000000",
          "blockNumber": "0x2996d8d",
          "blockTimestamp": "0x69bd37fd",
          "transactionHash": "0x0b90453a5eb5ae01e3cb3259a23758e2b9cf0e10b80aeda2dd7d83286add1a84",
          "transactionIndex": "0x97",
          "logIndex": "0x32e",
          "removed": false
        }
      ],
      "logsBloom": "0x00000000000000000040000008000000000000000000000000000000040020000000000000000000001000000000000001000000000000000000000000000000000000000000000001000000000000000002000000000000400020000000001200000000022000040000000000000800000000000100000000000800000000000000000000000000000000000000000000000000000800000000000000000000000800002000000000000000000000000000000000000000000000800000040000000000008080000000000000000000004000000000002000000000000020020000080000000000000000000000000000001000000000020000000000000800",
      "type": "0x2",
      "transactionHash": "0x0b90453a5eb5ae01e3cb3259a23758e2b9cf0e10b80aeda2dd7d83286add1a84",
      "transactionIndex": "0x97",
      "blockHash": "0x0000000000000000000000000000000000000000000000000000000000000000",
      "blockNumber": "0x2996d8d",
      "gasUsed": "0xd90104",
      "effectiveGasPrice": "0x503804",
      "blobGasUsed": "0x7206",
      "from": "0x017596303ee2f3c1250aa67d2d33dbae1d1c4dbf",
      "to": "0x337c5b96f03fb335b433291695a4171fd5ded8b0",
      "contractAddress": null,
      "daFootprintGasScalar": "0x8b",
      "l1BaseFeeScalar": "0x8dd",
      "l1BlobBaseFee": "0x27d051",
      "l1BlobBaseFeeScalar": "0x101c12",
      "l1Fee": "0x1cd59101",
      "l1GasPrice": "0x36b6fa9",
      "l1GasUsed": "0xd2d"
    },
    {
      "status": "0x1",
      "cumulativeGasUsed": "0x1f001e0",
      "logs": [
        {
          "address": "0x337c5b96f03fb335b433291695a4171fd5ded8b0",
          "topics": [
            "0xcdd5a1c6ea1934cc5ea61aadac9c2782a941967d902fdea4f7034463d9a0cfb8",
            "0x000000000000000000000000000000000000000000000000000000000000000c",
            "0x0000000000000000000000000000000000000000000000000000000000000001",
            "0x000000000000000000000000017596303ee2f3c1250aa67d2d33dbae1d1c4dbf"
          ],
          "data": "0x000000000000000000000000000000000000000000000000000000000000006000000000000000000000000000000000000000000000000000000000000000a0d83685d7ba5bbdb6c987b35ceafd4693a99b54da7667bc695671e82095a5b5a7000000000000000000000000000000000000000000000000000000000000000c4631204368617074657220320000000000000000000000000000000000000000000000000000000000000000000000000000000000000000000000000000002e516d597741504a7a7635435a736e4136323573335866326e656d7459675070486457457a37396f6a576e50626447000000000000000000000000000000000000",
          "blockHash": "0x0000000000000000000000000000000000000000000000000000000000000000",
          "blockNumber": "0x2996d8e",
          "blockTimestamp": "0x69bd37ff",
          "transactionHash": "0xc8022456bf1ea92ca134a55be21ca4372c461925960e864e6f240d7d9c1e28c6",
          "transactionIndex": "0x76",
          "logIndex": "0x294",
          "removed": false
        }
      ],
      "logsBloom": "0x00000000000000000000000000000000000002000000000000000000040000000000000000000200001000000000000001000000000000000000000000040000000000000000000001000000000000000000000000040000400000000000000200000000000000000000000000000000000000000000000000000000000000000000000000000000000000000000000000000000000000000000000000000000000000000000000000000000000000000000000000000000000000800000000000000000008000000000000000000000000000000000002000000000000040200000000000000000000000000000000000000000000000000000000000000000",
      "type": "0x2",
      "transactionHash": "0xc8022456bf1ea92ca134a55be21ca4372c461925960e864e6f240d7d9c1e28c6",
      "transactionIndex": "0x76",
      "blockHash": "0x0000000000000000000000000000000000000000000000000000000000000000",
      "blockNumber": "0x2996d8e",
      "gasUsed": "0x93ad",
      "effectiveGasPrice": "0x50578b",
      "blobGasUsed": "0x5aad",
      "from": "0x017596303ee2f3c1250aa67d2d33dbae1d1c4dbf",
      "to": "0x337c5b96f03fb335b433291695a4171fd5ded8b0",
      "contractAddress": null,
      "daFootprintGasScalar": "0x8b",
      "l1BaseFeeScalar": "0x8dd",
      "l1BlobBaseFee": "0x28de9c",
      "l1BlobBaseFeeScalar": "0x101c12",
      "l1Fee": "0x1d104d28",
      "l1GasPrice": "0x35ce8f7",
      "l1GasUsed": "0xa76"
    },
    {
      "status": "0x1",
      "cumulativeGasUsed": "0x2b98a9c",
      "logs": [
        {
          "address": "0x358fac554833dc61d4c0e1e8842075e40fb32da0",
          "topics": [
            "0x8c5be1e5ebec7d5bd14f71427d1e84f3dd0314c0f7b2291e5b200ac8c7c3b925",
            "0x000000000000000000000000017596303ee2f3c1250aa67d2d33dbae1d1c4dbf",
            "0x000000000000000000000000c5a076cad94176c2996b32d8466be1ce757faa27"
          ],
          "data": "0xffffffffffffffffffffffffffffffffffffffffffffffffffffffffffffffff",
          "blockHash": "0x0000000000000000000000000000000000000000000000000000000000000000",
          "blockNumber": "0x2996d8f",
          "blockTimestamp": "0x69bd3801",
          "transactionHash": "0xa0581f4b40dd24ac6a39a4953a465504170ca9013dcaa2e716362f4e7d701642",
          "transactionIndex": "0xd1",
          "logIndex": "0x406",
          "removed": false
        }
      ],
      "logsBloom": "0x00000000000000000000000000000000000000000000000000000000040000000000000000000000000000000000000000000000000000000000000000200000000000000000000000000000000000000000000000000000000000000000000200000000000000000080000000000000000000000000000000000000000000000000000000000000000000000000000000000000000000000000000000000000020000000000000000100000800000000000000000000000000000800000000000000000000000000000000000000000000000000000000000000000040000004010000000000000000000000000000040000000000000000000000000000000",
      "type": "0x2",
      "transactionHash": "0xa0581f4b40dd24ac6a39a4953a465504170ca9013dcaa2e716362f4e7d701642",
      "transactionIndex": "0xd1",
      "blockHash": "0x0000000000000000000000000000000000000000000000000000000000000000",
      "blockNumber": "0x2996d8f",
      "gasUsed": "0xc0a0",
      "effectiveGasPrice": "0x5053bd",
      "blobGasUsed": "0x364c",
      "from": "0x017596303ee2f3c1250aa67d2d33dbae1d1c4dbf",
      "to": "0x358fac554833dc61d4c0e1e8842075e40fb32da0",
      "contractAddress": null,
      "daFootprintGasScalar": "0x8b",
      "l1BaseFeeScalar": "0x8dd",
      "l1BlobBaseFee": "0x28de9c",
      "l1BlobBaseFeeScalar": "0x101c12",
      "l1Fee": "0x20d7cb26",
      "l1GasPrice": "0x35ce8f7",
      "l1GasUsed": "0x640"
    },
    {
      "status": "0x1",
      "cumulativeGasUsed": "0x4352579",
      "logs": [
        {
          "address": "0x358fac554833dc61d4c0e1e8842075e40fb32da0",
          "topics": [
            "0xddf252ad1be2c89b69c2b068fc378daa952ba7f163c4a11628f55a4df523b3ef",
            "0x0000000000000000000000000000000000000000000000000000000000000000",
            "0x000000000000000000000000017596303ee2f3c1250aa67d2d33dbae1d1c4dbf"
          ],
          "data": "0x0000000000000000000000000000000000000000000000056bc75e2d63100000",
          "blockHash": "0x0000000000000000000000000000000000000000000000000000000000000000",
          "blockNumber": "0x2996d90",
          "blockTimestamp": "0x69bd3803",
          "transactionHash": "0xace851a8746bff43b445fb60203fddf1b293cf7d4cb4a4e64a9e129f2ac3191f",
          "transactionIndex": "0x1b9",
          "logIndex": "0x43e",
          "removed": false
        },
        {
          "address": "0xf8a2c39111fceb9c950aaf28a9e34ebad99b85c1",
          "topics": [
            "0xddf252ad1be2c89b69c2b068fc378daa952ba7f163c4a11628f55a4df523b3ef",
            "0x000000000000000000000000017596303ee2f3c1250aa67d2d33dbae1d1c4dbf",
            "0x000000000000000000000000c5a076cad94176c2996b32d8466be1ce757faa27"
          ],
          "data": "0x0000000000000000000000000000000000000000000000000166d2f702508000",
          "blockHash": "0x0000000000000000000000000000000000000000000000000000000000000000",
          "blockNumber": "0x2996d90",
          "blockTimestamp": "0x69bd3803",
          "transactionHash": "0xace851a8746bff43b445fb60203fddf1b293cf7d4cb4a4e64a9e129f2ac3191f",
          "transactionIndex": "0x1b9",
          "logIndex": "0x43f",
          "removed": false
        },
        {
          "address": "0xc5a076cad94176c2996b32d8466be1ce757faa27",
          "topics": [
            "0x02ed9b10d8b33a6a9fda664247bfd8f6248f74cff85cc84e56b7530c2fce560a",
            "0x000000000000000000000000358fac554833dc61d4c0e1e8842075e40fb32da0",
            "0x000000000000000000000000017596303ee2f3c1250aa67d2d33dbae1d1c4dbf",
            "0x000000000000000000000000f8a2c39111fceb9c950aaf28a9e34ebad99b85c1"
          ],
          "data": "0x000000000000000000000000017596303ee2f3c1250aa67d2d33dbae1d1c4dbf0000000000000000000000000000000000000000000000056bc75e2d631000000000000000000000000000000000000000000000000000000166d2f702508000",
          "blockHash": "0x0000000000000000000000000000000000000000000000000000000000000000",
          "blockNumber": "0x2996d90",
          "blockTimestamp": "0x69bd3803",
          "transactionHash": "0xace851a8746bff43b445fb60203fddf1b293cf7d4cb4a4e64a9e129f2ac3191f",
          "transactionIndex": "0x1b9",
          "logIndex": "0x440",
          "removed": false
        }
      ],
      "logsBloom": "0x00000000000000800000000000000000000000000000000000000000040000000000000000000000000000000000004000000000000000000000000000000000000000000000000000001008000000000000000000000000000020000000000200000000022000040080000000000880000000000000000000000010000000000000000000000000000000000000000000000000000800000000000000000000000000000000000000100000800000000000400000001000000000800000800000000002000080000000000000000000204000000000000000000000440020004000000000000000000000000000000040000000000000000000000000000000",
      "type": "0x2",
      "transactionHash": "0xace851a8746bff43b445fb60203fddf1b293cf7d4cb4a4e64a9e129f2ac3191f",
      "transactionIndex": "0x1b9",
      "blockHash": "0x0000000000000000000000000000000000000000000000000000000000000000",
      "blockNumber": "0x2996d90",
      "gasUsed": "0x1437fe",
      "effectiveGasPrice": "0x5053a9",
      "blobGasUsed": "0x3efc",
      "from": "0x017596303ee2f3c1250aa67d2d33dbae1d1c4dbf",
      "to": "0xc5a076cad94176c2996b32d8466be1ce757faa27",
      "contractAddress": null,
      "daFootprintGasScalar": "0x8b",
      "l1BaseFeeScalar": "0x8dd",
      "l1BlobBaseFee": "0x28de9c",
      "l1BlobBaseFeeScalar": "0x101c12",
      "l1Fee": "0x36f7766c",
      "l1GasPrice": "0x35ce8f7",
      "l1GasUsed": "0x745"
    },
    {
      "status": "0x1",
      "cumulativeGasUsed": "0x23d4410",
      "logs": [
        {
          "address": "0x358fac554833dc61d4c0e1e8842075e40fb32da0",
          "topics": [
            "0xddf252ad1be2c89b69c2b068fc378daa952ba7f163c4a11628f55a4df523b3ef",
            "0x000000000000000000000000017596303ee2f3c1250aa67d2d33dbae1d1c4dbf",
            "0x0000000000000000000000000000000000000000000000000000000000000000"
          ],
          "data": "0x0000000000000000000000000000000000000000000000056bc75e2d63100000",
          "blockHash": "0x0000000000000000000000000000000000000000000000000000000000000000",
          "blockNumber": "0x2996d91",
          "blockTimestamp": "0x69bd3805",
          "transactionHash": "0xd5ba9bc6864d1e40b628e811f6eeaa7884a77e22f861cba6bb8158b6cad3ba50",
          "transactionIndex": "0xa2",
          "logIndex": "0x330",
          "removed": false
        },
        {
          "address": "0xf8a2c39111fceb9c950aaf28a9e34ebad99b85c1",
          "topics": [
            "0xddf252ad1be2c89b69c2b068fc378daa952ba7f163c4a11628f55a4df523b3ef",
            "0x000000000000000000000000c5a076cad94176c2996b32d8466be1ce757faa27",
            "0x000000000000000000000000017596303ee2f3c1250aa67d2d33dbae1d1c4dbf"
          ],
          "data": "0x000000000000000000000000000000000000000000000000015fb7f9b8c38000",
          "blockHash": "0x0000000000000000000000000000000000000000000000000000000000000000",
          "blockNumber": "0x2996d91",
          "blockTimestamp": "0x69bd3805",
          "transactionHash": "0xd5ba9bc6864d1e40b628e811f6eeaa7884a77e22f861cba6bb8158b6cad3ba50",
          "transactionIndex": "0xa2",
          "logIndex": "0x331",
          "removed": false
        },
        {
          "address": "0xc5a076cad94176c2996b32d8466be1ce757faa27",
          "topics": [
            "0x80a56de61873550ae491e454783a8dfc9d08a6f8bdace0887eabd4315c4b9da8",
            "0x000000000000000000000000358fac554833dc61d4c0e1e8842075e40fb32da0",
            "0x000000000000000000000000017596303ee2f3c1250aa67d2d33dbae1d1c4dbf",
            "0x000000000000000000000000f8a2c39111fceb9c950aaf28a9e34ebad99b85c1"
          ],
          "data": "0x000000000000000000000000017596303ee2f3c1250aa67d2d33dbae1d1c4dbf0000000000000000000000000000000000000000000000056bc75e2d63100000000000000000000000000000000000000000000000000000015fb7f9b8c38000",
          "blockHash": "0x0000000000000000000000000000000000000000000000000000000000000000",
          "blockNumber": "0x2996d91",
          "blockTimestamp": "0x69bd3805",
          "transactionHash": "0xd5ba9bc6864d1e40b628e811f6eeaa7884a77e22f861cba6bb8158b6cad3ba50",
          "transactionIndex": "0xa2",
          "logIndex": "0x332",
          "removed": false
        }
      ],
      "logsBloom": "0x00000000000000000000000000000000000000000000000000000000040000000000000000000000000000000000004000000000000000000000000000000000000000000000000000001008000000000000000000000000000020000000000200000000022000040080000000000800000000000000000000000010000000000000000000000000000000000000000000080000000800000000000000000000000000000000000000100000800000000000400000000000000000800000800000000002000080000000000000000000204000000000000000000000440020004000000000000000000000000000000040000000000000040000000001000000",
      "type": "0x2",
      "transactionHash": "0xd5ba9bc6864d1e40b628e811f6eeaa7884a77e22f861cba6bb8158b6cad3ba50",
      "transactionIndex": "0xa2",
      "blockHash": "0x0000000000000000000000000000000000000000000000000000000000000000",
      "blockNumber": "0x2996d91",
      "gasUsed": "0x12efda",
      "effectiveGasPrice": "0x50a313",
      "blobGasUsed": "0x3d5b",
      "from": "0x017596303ee2f3c1250aa67d2d33dbae1d1c4dbf",
      "to": "0xc5a076cad94176c2996b32d8466be1ce757faa27",
      "contractAddress": null,
      "daFootprintGasScalar": "0x8b",
      "l1BaseFeeScalar": "0x8dd",
      "l1BlobBaseFee": "0x28de9c",
      "l1BlobBaseFeeScalar": "0x101c12",
      "l1Fee": "0x3351e409",
      "l1GasPrice": "0x35ce8f7",
      "l1GasUsed": "0x71d"
    },
    {
      "status": "0x1",
      "cumulativeGasUsed": "0x2b72cd7",
      "logs": [
        {
          "address": "0x337c5b96f03fb335b433291695a4171fd5ded8b0",
          "topics": [
            "0x32118bcfab6ed24f9c1a05fc30bb179d8bea4c3fe1711c92d7bf93805a00b86c"
          ],
          "data": "0x0000000000000000000000000000000000000000000000000000000000000002",
          "blockHash": "0x0000000000000000000000000000000000000000000000000000000000000000",
          "blockNumber": "0x2996d92",
          "blockTimestamp": "0x69bd3807",
          "transactionHash": "0xf1260934f4270a5e1e7af610117636541e15d62b37fa7d2a100cd46f5711282f",
          "transactionIndex": "0x87",
          "logIndex": "0x3ea",
          "removed": false
        }
      ],
      "logsBloom": "0x00000000000000000000000000000000000000000000000000000000020000000000000000000000000000000000000000000000000000000000000000000000000000000000000001000000000000000000000000000000400000000000000000000000000000000000000000000000000000000000000000000000000000000000000000000000000000040000000000000000000000000000000000000000000000000000000000000000000000000000000000000000000000000000000000000000000000000000000000000000000000000000002000000000000000000000000000000040000000000000000000000000000000000000000000000000",
      "type": "0x2",
      "transactionHash": "0xf1260934f4270a5e1e7af610117636541e15d62b37fa7d2a100cd46f5711282f",
      "transactionIndex": "0x87",
      "blockHash": "0x0000000000000000000000000000000000000000000000000000000000000000",
      "blockNumber": "0x2996d92",
      "gasUsed": "0x1f5266",
      "effectiveGasPrice": "0x509465",
      "blobGasUsed": "0x423e",
      "from": "0x017596303ee2f3c1250aa67d2d33dbae1d1c4dbf",
      "to": "0x337c5b96f03fb335b433291695a4171fd5ded8b0",
      "contractAddress": null,
      "daFootprintGasScalar": "0x8b",
      "l1BaseFeeScalar": "0x8dd",
      "l1BlobBaseFee": "0x28de9c",
      "l1BlobBaseFeeScalar": "0x101c12",
      "l1Fee": "0x1d104d28",
      "l1GasPrice": "0x35ce8f7",
      "l1GasUsed": "0x7a3"
    },
    {
      "status": "0x1",
      "cumulativeGasUsed": "0x2889ac7",
      "logs": [
        {
          "address": "0xc5a076cad94176c2996b32d8466be1ce757faa27",
          "topics": [
            "0x6596c1670eb3390048d23721809c3da5d3f531375ac0e2cab0f77a808ed64331",
            "0x000000000000000000000000cedf4946193e40d7010edf11e0803571edc8e5a7",
            "0x000000000000000000000000f8a2c39111fceb9c950aaf28a9e34ebad99b85c1"
          ],
          "data": "0x000000000000000000000000000000000000000000000000000000000000004000000000000000000000000000000000000000000000000000000000000000800000000000000000000000000000000000000000000000000000000000000013557064617465642043757276652053746f7279000000000000000000000000000000000000000000000000000000000000000000000000000000000000000005504c2d3134000000000000000000000000000000000000000000000000000000",
          "blockHash": "0x0000000000000000000000000000000000000000000000000000000000000000",
          "blockNumber": "0x2996d93",
          "blockTimestamp": "0x69bd3809",
          "transactionHash": "0xda12ed1a9dc29c4a0fb3133cbd10734e4e94b527da3d99c67536ba80d03e5d79",
          "transactionIndex": "0xb9",
          "logIndex": "0x364",
          "removed": false
        },
        {
          "address": "0xc5a076cad94176c2996b32d8466be1ce757faa27",
          "topics": [
            "0x9dcef3aa57f22970dfc6ff519e5421e041cc4153300a7dabe19bffe85e255688",
            "0x000000000000000000000000cedf4946193e40d7010edf11e0803571edc8e5a7",
            "0x000000000000000000000000017596303ee2f3c1250aa67d2d33dbae1d1c4dbf"
          ],
          "data": "0x",
          "blockHash": "0x0000000000000000000000000000000000000000000000000000000000000000",
          "blockNumber": "0x2996d93",
          "blockTimestamp": "0x69bd3809",
          "transactionHash": "0xda12ed1a9dc29c4a0fb3133cbd10734e4e94b527da3d99c67536ba80d03e5d79",
          "transactionIndex": "0xb9",
          "logIndex": "0x365",
          "removed": false
        },
        {
          "address": "0x337c5b96f03fb335b433291695a4171fd5ded8b0",
          "topics": [
            "0xff972730618409d15438e7d96bd0047cc7fdcfb51ea622b67460d396b4602853",
            "0x000000000000000000000000000000000000000000000000000000000000000e",
            "0x000000000000000000000000017596303ee2f3c1250aa67d2d33dbae1d1c4dbf"
          ],
          "data": "0x000000000000000000000000cedf4946193e40d7010edf11e0803571edc8e5a700000000000000000000000000000000000000000000000000000000000000a0000000000000000000000000000000000000000000000000000000000000000000000000000000000000000000000000000000000000000000000000000000e08f6c3b9d39cbc591403253a4df109a036c0d8a37da33871f0144d491f6712aff0000000000000000000000000000000000000000000000000000000000000013557064617465642043757276652053746f727900000000000000000000000000000000000000000000000000000000000000000000000000000000000000002e516d597741504a7a7635435a736e4136323573335866326e656d7459675070486457457a37396f6a576e50626447000000000000000000000000000000000000",
          "blockHash": "0x0000000000000000000000000000000000000000000000000000000000000000",
          "blockNumber": "0x2996d93",
          "blockTimestamp": "0x69bd3809",
          "transactionHash": "0xda12ed1a9dc29c4a0fb3133cbd10734e4e94b527da3d99c67536ba80d03e5d79",
          "transactionIndex": "0xb9",
          "logIndex": "0x366",
          "removed": false
        },
        {
          "address": "0x337c5b96f03fb335b433291695a4171fd5ded8b0",
          "topics": [
            "0xcdd5a1c6ea1934cc5ea61aadac9c2782a941967d902fdea4f7034463d9a0cfb8",
            "0x000000000000000000000000000000000000000000000000000000000000000e",
            "0x0000000000000000000000000000000000000000000000000000000000000000",
            "0x000000000000000000000000017596303ee2f3c1250aa67d2d33dbae1d1c4dbf"
          ],
          "data": "0x000000000000000000000000000000000000000000000000000000000000006000000000000000000000000000000000000000000000000000000000000000a08f6c3b9d39cbc591403253a4df109a036c0d8a37da33871f0144d491f6712aff0000000000000000000000000000000000000000000000000000000000000013557064617465642043757276652053746f727900000000000000000000000000000000000000000000000000000000000000000000000000000000000000002e516d597741504a7a7635435a736e4136323573335866326e656d7459675070486457457a37396f6a576e50626447000000000000000000000000000000000000",
          "blockHash": "0x0000000000000000000000000000000000000000000000000000000000000000",
          "blockNumber": "0x2996d93",
          "blockTimestamp": "0x69bd3809",
          "transactionHash": "0xda12ed1a9dc29c4a0fb3133cbd10734e4e94b527da3d99c67536ba80d03e5d79",
          "transactionIndex": "0xb9",
          "logIndex": "0x367",
          "removed": false
        }
      ],
      "logsBloom": "0x00000000000000000000000000000000000000000000000000000000040020000000000000000000001000000000000001000000000000000000000100000040000000000000000801000000000000000000000000000000400020000000000200000000022000040000000000000800000000000100000000000800000000000000000000000000000000000000000018000000000800000000000000000000000000002000000000000000000000000000000000000020000000800000040000000000008080000000000000000000004000000000002000000000000020000000080000000000000000000000000000001000000000020000000000000800",
      "type": "0x2",
      "transactionHash": "0xda12ed1a9dc29c4a0fb3133cbd10734e4e94b527da3d99c67536ba80d03e5d79",
      "transactionIndex": "0xb9",
      "blockHash": "0x0000000000000000000000000000000000000000000000000000000000000000",
      "blockNumber": "0x2996d93",
      "gasUsed": "0x64142",
      "effectiveGasPrice": "0x50a745",
      "blobGasUsed": "0x5d64",
      "from": "0x017596303ee2f3c1250aa67d2d33dbae1d1c4dbf",
      "to": "0x337c5b96f03fb335b433291695a4171fd5ded8b0",
      "contractAddress": null,
      "daFootprintGasScalar": "0x8b",
      "l1BaseFeeScalar": "0x8dd",
      "l1BlobBaseFee": "0x28de9c",
      "l1BlobBaseFeeScalar": "0x101c12",
      "l1Fee": "0x24bb9a7e",
      "l1GasPrice": "0x35ce8f7",
      "l1GasUsed": "0xac6"
    },
    {
      "status": "0x1",
      "cumulativeGasUsed": "0x24dd13a",
      "logs": [
        {
          "address": "0xcedf4946193e40d7010edf11e0803571edc8e5a7",
          "topics": [
            "0x8c5be1e5ebec7d5bd14f71427d1e84f3dd0314c0f7b2291e5b200ac8c7c3b925",
            "0x000000000000000000000000017596303ee2f3c1250aa67d2d33dbae1d1c4dbf",
            "0x000000000000000000000000c5a076cad94176c2996b32d8466be1ce757faa27"
          ],
          "data": "0xffffffffffffffffffffffffffffffffffffffffffffffffffffffffffffffff",
          "blockHash": "0x0000000000000000000000000000000000000000000000000000000000000000",
          "blockNumber": "0x2996d94",
          "blockTimestamp": "0x69bd380b",
          "transactionHash": "0x4bf8ea1fdf64112c4cb754a364aa5d38309edeb9fc99f94d8fe2389e53d089ce",
          "transactionIndex": "0x9a",
          "logIndex": "0x35a",
          "removed": false
        }
      ],
      "logsBloom": "0x00000000000000000000000000000000000000000000000000000000040000000010000000000000000000000000000000000000000000000000000000200000000000000000000000000000000000000000000000000000000000000000000200000000000000000080000000000000000000000000000000000000000000000000000000000000000000000000000000000000000000020004000000000000020000000000000000000000800000000000000000000000000000800000000000000000000000000000000000000000000000000000000000000000040000000010000000000000000000000000000000000000000000000000000000000000",
      "type": "0x2",
      "transactionHash": "0x4bf8ea1fdf64112c4cb754a364aa5d38309edeb9fc99f94d8fe2389e53d089ce",
      "transactionIndex": "0x9a",
      "blockHash": "0x0000000000000000000000000000000000000000000000000000000000000000",
      "blockNumber": "0x2996d94",
      "gasUsed": "0xc0a0",
      "effectiveGasPrice": "0x508f1f",
      "blobGasUsed": "0x364c",
      "from": "0x017596303ee2f3c1250aa67d2d33dbae1d1c4dbf",
      "to": "0xcedf4946193e40d7010edf11e0803571edc8e5a7",
      "contractAddress": null,
      "daFootprintGasScalar": "0x8b",
      "l1BaseFeeScalar": "0x8dd",
      "l1BlobBaseFee": "0x2905ce",
      "l1BlobBaseFeeScalar": "0x101c12",
      "l1Fee": "0x2dbe0dce",
      "l1GasPrice": "0x36f20bd",
      "l1GasUsed": "0x640"
    },
    {
      "status": "0x1",
      "cumulativeGasUsed": "0x3117851",
      "logs": [
        {
          "address": "0xcedf4946193e40d7010edf11e0803571edc8e5a7",
          "topics": [
            "0xddf252ad1be2c89b69c2b068fc378daa952ba7f163c4a11628f55a4df523b3ef",
            "0x0000000000000000000000000000000000000000000000000000000000000000",
            "0x000000000000000000000000017596303ee2f3c1250aa67d2d33dbae1d1c4dbf"
          ],
          "data": "0x0000000000000000000000000000000000000000000000000de0b6b3a7640000",
          "blockHash": "0x0000000000000000000000000000000000000000000000000000000000000000",
          "blockNumber": "0x2996d95",
          "blockTimestamp": "0x69bd380d",
          "transactionHash": "0x60ce2ee1b345ad56fe5dab6f0b79951d2b8c9735b95c91d22d4de15ffefddac0",
          "transactionIndex": "0x83",
          "logIndex": "0x427",
          "removed": false
        },
        {
          "address": "0xf8a2c39111fceb9c950aaf28a9e34ebad99b85c1",
          "topics": [
            "0xddf252ad1be2c89b69c2b068fc378daa952ba7f163c4a11628f55a4df523b3ef",
            "0x000000000000000000000000017596303ee2f3c1250aa67d2d33dbae1d1c4dbf",
            "0x000000000000000000000000c5a076cad94176c2996b32d8466be1ce757faa27"
          ],
          "data": "0x00000000000000000000000000000000000000000000000000072d2de6724000",
          "blockHash": "0x0000000000000000000000000000000000000000000000000000000000000000",
          "blockNumber": "0x2996d95",
          "blockTimestamp": "0x69bd380d",
          "transactionHash": "0x60ce2ee1b345ad56fe5dab6f0b79951d2b8c9735b95c91d22d4de15ffefddac0",
          "transactionIndex": "0x83",
          "logIndex": "0x428",
          "removed": false
        },
        {
          "address": "0xc5a076cad94176c2996b32d8466be1ce757faa27",
          "topics": [
            "0x02ed9b10d8b33a6a9fda664247bfd8f6248f74cff85cc84e56b7530c2fce560a",
            "0x000000000000000000000000cedf4946193e40d7010edf11e0803571edc8e5a7",
            "0x000000000000000000000000017596303ee2f3c1250aa67d2d33dbae1d1c4dbf",
            "0x000000000000000000000000f8a2c39111fceb9c950aaf28a9e34ebad99b85c1"
          ],
          "data": "0x000000000000000000000000017596303ee2f3c1250aa67d2d33dbae1d1c4dbf0000000000000000000000000000000000000000000000000de0b6b3a764000000000000000000000000000000000000000000000000000000072d2de6724000",
          "blockHash": "0x0000000000000000000000000000000000000000000000000000000000000000",
          "blockNumber": "0x2996d95",
          "blockTimestamp": "0x69bd380d",
          "transactionHash": "0x60ce2ee1b345ad56fe5dab6f0b79951d2b8c9735b95c91d22d4de15ffefddac0",
          "transactionIndex": "0x83",
          "logIndex": "0x429",
          "removed": false
        }
      ],
      "logsBloom": "0x00000000000000800000000000000000000000000000000000000000040000000010000000000000000000000000004000000000000000000000000100000040000000000000000000001008000000000000000000000000000020000000000200000000022000040080000000000880000000000000000000000010000000000000000000000000000000000000000010000000000800020004000000000000000000000000000000000000800000000000000000001000000000800000000000000002000080000000000000000000204000000000000000000000040020000000000000000000000000000000000000000000000000000000000000000000",
      "type": "0x2",
      "transactionHash": "0x60ce2ee1b345ad56fe5dab6f0b79951d2b8c9735b95c91d22d4de15ffefddac0",
      "transactionIndex": "0x83",
      "blockHash": "0x0000000000000000000000000000000000000000000000000000000000000000",
      "blockNumber": "0x2996d95",
      "gasUsed": "0x24fed",
      "effectiveGasPrice": "0x508c92",
      "blobGasUsed": "0x3e71",
      "from": "0x017596303ee2f3c1250aa67d2d33dbae1d1c4dbf",
      "to": "0xc5a076cad94176c2996b32d8466be1ce757faa27",
      "contractAddress": null,
      "daFootprintGasScalar": "0x8b",
      "l1BaseFeeScalar": "0x8dd",
      "l1BlobBaseFee": "0x2905ce",
      "l1BlobBaseFeeScalar": "0x101c12",
      "l1Fee": "0x2e7ad56c",
      "l1GasPrice": "0x36f20bd",
      "l1GasUsed": "0x738"
    },
    {
      "status": "0x1",
      "cumulativeGasUsed": "0x18f51db",
      "logs": [
        {
          "address": "0xcedf4946193e40d7010edf11e0803571edc8e5a7",
          "topics": [
            "0xddf252ad1be2c89b69c2b068fc378daa952ba7f163c4a11628f55a4df523b3ef",
            "0x000000000000000000000000017596303ee2f3c1250aa67d2d33dbae1d1c4dbf",
            "0x0000000000000000000000000000000000000000000000000000000000000000"
          ],
          "data": "0x0000000000000000000000000000000000000000000000000de0b6b3a7640000",
          "blockHash": "0x0000000000000000000000000000000000000000000000000000000000000000",
          "blockNumber": "0x2996d96",
          "blockTimestamp": "0x69bd380f",
          "transactionHash": "0xcd22f6b30de087c28355beeb0561032fd8c7889efa4535fe2d84db79b91c9980",
          "transactionIndex": "0x70",
          "logIndex": "0x26d",
          "removed": false
        },
        {
          "address": "0xf8a2c39111fceb9c950aaf28a9e34ebad99b85c1",
          "topics": [
            "0xddf252ad1be2c89b69c2b068fc378daa952ba7f163c4a11628f55a4df523b3ef",
            "0x000000000000000000000000c5a076cad94176c2996b32d8466be1ce757faa27",
            "0x000000000000000000000000017596303ee2f3c1250aa67d2d33dbae1d1c4dbf"
          ],
          "data": "0x000000000000000000000000000000000000000000000000000708ccaca7c000",
          "blockHash": "0x0000000000000000000000000000000000000000000000000000000000000000",
          "blockNumber": "0x2996d96",
          "blockTimestamp": "0x69bd380f",
          "transactionHash": "0xcd22f6b30de087c28355beeb0561032fd8c7889efa4535fe2d84db79b91c9980",
          "transactionIndex": "0x70",
          "logIndex": "0x26e",
          "removed": false
        },
        {
          "address": "0xc5a076cad94176c2996b32d8466be1ce757faa27",
          "topics": [
            "0x80a56de61873550ae491e454783a8dfc9d08a6f8bdace0887eabd4315c4b9da8",
            "0x000000000000000000000000cedf4946193e40d7010edf11e0803571edc8e5a7",
            "0x000000000000000000000000017596303ee2f3c1250aa67d2d33dbae1d1c4dbf",
            "0x000000000000000000000000f8a2c39111fceb9c950aaf28a9e34ebad99b85c1"
          ],
          "data": "0x000000000000000000000000017596303ee2f3c1250aa67d2d33dbae1d1c4dbf0000000000000000000000000000000000000000000000000de0b6b3a7640000000000000000000000000000000000000000000000000000000708ccaca7c000",
          "blockHash": "0x0000000000000000000000000000000000000000000000000000000000000000",
          "blockNumber": "0x2996d96",
          "blockTimestamp": "0x69bd380f",
          "transactionHash": "0xcd22f6b30de087c28355beeb0561032fd8c7889efa4535fe2d84db79b91c9980",
          "transactionIndex": "0x70",
          "logIndex": "0x26f",
          "removed": false
        }
      ],
      "logsBloom": "0x00000000000000000000000000000000000000000000000000000000040000000010000000000000000000000000004000000000000000000000000100000040000000000000000000001008000000000000000000000000000020000000000200000000022000040080000000000800000000000000000000000010000000000000000000000000000000000000000010080000000800020004000000000000000000000000000000000000800000000000000000000000000000800000000000000002000080000000000000000000204000000000000000000000040020000000000000000000000000000000000000000000000000040000000001000000",
      "type": "0x2",
      "transactionHash": "0xcd22f6b30de087c28355beeb0561032fd8c7889efa4535fe2d84db79b91c9980",
      "transactionIndex": "0x70",
      "blockHash": "0x0000000000000000000000000000000000000000000000000000000000000000",
      "blockNumber": "0x2996d96",
      "gasUsed": "0x14a9b",
      "effectiveGasPrice": "0x50a607",
      "blobGasUsed": "0x3d5b",
      "from": "0x017596303ee2f3c1250aa67d2d33dbae1d1c4dbf",
      "to": "0xc5a076cad94176c2996b32d8466be1ce757faa27",
      "contractAddress": null,
      "daFootprintGasScalar": "0x8b",
      "l1BaseFeeScalar": "0x8dd",
      "l1BlobBaseFee": "0x2905ce",
      "l1BlobBaseFeeScalar": "0x101c12",
      "l1Fee": "0xb04411ae",
      "l1GasPrice": "0x36f20bd",
      "l1GasUsed": "0x710"
    }
  ],
  "libraries": [],
  "pending": [],
  "returns": {},
  "timestamp": 1774008333799,
  "chain": 8453,
  "commit": "61f0a0a"
}