{
  "transactions": [
    {
      "hash": "0x26f85ccdecb905d815a89a22f869913fbfc208a4f9486a63451cc840813b933e",
      "transactionType": "CALL",
      "contractName": null,
      "contractAddress": "0x05c4d59529807316d6fa09cdaa509addfe85b474",
      "function": "createStoryline(string,string,bytes32,bool)",
      "arguments": [
        "Gas Measurement Test Story",
        "QmTestCID00000000000000000000000000000000000000",
        "0xd84df4b0f4aadb626a06f0a0556c235e75ae9247a32a6a5528ac198642303dc8",
        "true"
      ],
      "transaction": {
        "from": "0x017596303ee2f3c1250aa67d2d33dbae1d1c4dbf",
        "to": "0x05c4d59529807316d6fa09cdaa509addfe85b474",
        "gas": "0x12d07c4",
        "value": "0x0",
        "input": "0xe3c8fc1c000000000000000000000000000000000000000000000000000000000000008000000000000000000000000000000000000000000000000000000000000000c0d84df4b0f4aadb626a06f0a0556c235e75ae9247a32a6a5528ac198642303dc80000000000000000000000000000000000000000000000000000000000000001000000000000000000000000000000000000000000000000000000000000001a476173204d6561737572656d656e7420546573742053746f7279000000000000000000000000000000000000000000000000000000000000000000000000002f516d5465737443494430303030303030303030303030303030303030303030303030303030303030303030303030300000000000000000000000000000000000",
        "nonce": "0x4",
        "chainId": "0x14a34"
      },
      "additionalContracts": [
        {
          "transactionType": "CREATE2",
          "contractName": null,
          "address": "0x5b536d45742382af7b58a1d8706e4c281972acc7",
          "initCode": "0x3d602d80600a3d3981f3363d3d373d3d3d363d7337f540de37afe8bdf6c722d87cb019f30e5e406a5af43d82803e903d91602b57fd5bf3"
        }
      ],
      "isFixedGasLimit": false
    },
    {
      "hash": "0x50b8f1dc1bc9442966b3981fb9ed228b87489ee52cb0d1ec09433820e6dbe55e",
      "transactionType": "CALL",
      "contractName": null,
      "contractAddress": "0x05c4d59529807316d6fa09cdaa509addfe85b474",
      "function": "chainPlot(uint256,string,bytes32)",
      "arguments": [
        "1",
        "QmTestCID11111111111111111111111111111111111111",
        "0x80c198bed23d50636249b999210dc0d13a35f9d4f91236114010f0034c0814cf"
      ],
      "transaction": {
        "from": "0x017596303ee2f3c1250aa67d2d33dbae1d1c4dbf",
        "to": "0x05c4d59529807316d6fa09cdaa509addfe85b474",
        "gas": "0xe385",
        "value": "0x0",
        "input": "0x6a20a79b0000000000000000000000000000000000000000000000000000000000000001000000000000000000000000000000000000000000000000000000000000006080c198bed23d50636249b999210dc0d13a35f9d4f91236114010f0034c0814cf000000000000000000000000000000000000000000000000000000000000002f516d5465737443494431313131313131313131313131313131313131313131313131313131313131313131313131310000000000000000000000000000000000",
        "nonce": "0x5",
        "chainId": "0x14a34"
      },
      "additionalContracts": [],
      "isFixedGasLimit": false
    }
  ],
  "receipts": [
    {
      "status": "0x1",
      "cumulativeGasUsed": "0xe58662",
      "logs": [
        {
          "address": "0x5dfa75b0185efbaef286e80b847ce84ff8a62c2d",
          "topics": [
            "0x6596c1670eb3390048d23721809c3da5d3f531375ac0e2cab0f77a808ed64331",
            "0x0000000000000000000000005b536d45742382af7b58a1d8706e4c281972acc7",
            "0x0000000000000000000000004200000000000000000000000000000000000006"
          ],
          "data": "0x00000000000000000000000000000000000000000000000000000000000000400000000000000000000000000000000000000000000000000000000000000080000000000000000000000000000000000000000000000000000000000000001a476173204d6561737572656d656e7420546573742053746f72790000000000000000000000000000000000000000000000000000000000000000000000000006504c4f542d310000000000000000000000000000000000000000000000000000",
          "blockHash": "0x0000000000000000000000000000000000000000000000000000000000000000",
          "blockNumber": "0x250dfda",
          "blockTimestamp": "0x69b51e94",
          "transactionHash": "0x26f85ccdecb905d815a89a22f869913fbfc208a4f9486a63451cc840813b933e",
          "transactionIndex": "0x7",
          "logIndex": "0xd",
          "removed": false
        },
        {
          "address": "0x5dfa75b0185efbaef286e80b847ce84ff8a62c2d",
          "topics": [
            "0x9dcef3aa57f22970dfc6ff519e5421e041cc4153300a7dabe19bffe85e255688",
            "0x0000000000000000000000005b536d45742382af7b58a1d8706e4c281972acc7",
            "0x000000000000000000000000017596303ee2f3c1250aa67d2d33dbae1d1c4dbf"
          ],
          "data": "0x",
          "blockHash": "0x0000000000000000000000000000000000000000000000000000000000000000",
          "blockNumber": "0x250dfda",
          "blockTimestamp": "0x69b51e94",
          "transactionHash": "0x26f85ccdecb905d815a89a22f869913fbfc208a4f9486a63451cc840813b933e",
          "transactionIndex": "0x7",
          "logIndex": "0xe",
          "removed": false
        },
        {
          "address": "0x05c4d59529807316d6fa09cdaa509addfe85b474",
          "topics": [
            "0xff972730618409d15438e7d96bd0047cc7fdcfb51ea622b67460d396b4602853",
            "0x0000000000000000000000000000000000000000000000000000000000000001",
            "0x000000000000000000000000017596303ee2f3c1250aa67d2d33dbae1d1c4dbf"
          ],
          "data": "0x0000000000000000000000005b536d45742382af7b58a1d8706e4c281972acc700000000000000000000000000000000000000000000000000000000000000a0000000000000000000000000000000000000000000000000000000000000000100000000000000000000000000000000000000000000000000000000000000e0d84df4b0f4aadb626a06f0a0556c235e75ae9247a32a6a5528ac198642303dc8000000000000000000000000000000000000000000000000000000000000001a476173204d6561737572656d656e7420546573742053746f7279000000000000000000000000000000000000000000000000000000000000000000000000002f516d5465737443494430303030303030303030303030303030303030303030303030303030303030303030303030300000000000000000000000000000000000",
          "blockHash": "0x0000000000000000000000000000000000000000000000000000000000000000",
          "blockNumber": "0x250dfda",
          "blockTimestamp": "0x69b51e94",
          "transactionHash": "0x26f85ccdecb905d815a89a22f869913fbfc208a4f9486a63451cc840813b933e",
          "transactionIndex": "0x7",
          "logIndex": "0xf",
          "removed": false
        },
        {
          "address": "0x05c4d59529807316d6fa09cdaa509addfe85b474",
          "topics": [
            "0xc2cbc4ca4431d856ab27d59801030b2ef47c0d84f472cd5478c8fe7253aff1ce",
            "0x0000000000000000000000000000000000000000000000000000000000000001",
            "0x0000000000000000000000000000000000000000000000000000000000000000",
            "0x000000000000000000000000017596303ee2f3c1250aa67d2d33dbae1d1c4dbf"
          ],
          "data": "0x0000000000000000000000000000000000000000000000000000000000000040d84df4b0f4aadb626a06f0a0556c235e75ae9247a32a6a5528ac198642303dc8000000000000000000000000000000000000000000000000000000000000002f516d5465737443494430303030303030303030303030303030303030303030303030303030303030303030303030300000000000000000000000000000000000",
          "blockHash": "0x0000000000000000000000000000000000000000000000000000000000000000",
          "blockNumber": "0x250dfda",
          "blockTimestamp": "0x69b51e94",
          "transactionHash": "0x26f85ccdecb905d815a89a22f869913fbfc208a4f9486a63451cc840813b933e",
          "transactionIndex": "0x7",
          "logIndex": "0x10",
          "removed": false
        }
      ],
      "logsBloom": "0x00000000000000000000000000000000000000000000000000000000040020000002000000000000001000000000000000000000000000000020000000440000000200000020000000000000000000000000000000040000000000000000000200000000020000000000000000000800000010000100000000000800000002000000000000000000000000000000000000000000000000000000000000000000000000002000000000000000000000000000002000000000000000800000040000000000008014000000000000000000000000000000000000000000200060000000080008000000000000000000000000001000000000020000000000000c00",
      "type": "0x2",
      "transactionHash": "0x26f85ccdecb905d815a89a22f869913fbfc208a4f9486a63451cc840813b933e",
      "transactionIndex": "0x7",
      "blockHash": "0x0000000000000000000000000000000000000000000000000000000000000000",
      "blockNumber": "0x250dfda",
      "gasUsed": "0xd9f0c6",
      "effectiveGasPrice": "0x5b8d80",
      "blobGasUsed": "0x5172",
      "from": "0x017596303ee2f3c1250aa67d2d33dbae1d1c4dbf",
      "to": "0x05c4d59529807316d6fa09cdaa509addfe85b474",
      "contractAddress": null,
      "daFootprintGasScalar": "0x8b",
      "l1BaseFeeScalar": "0x44d",
      "l1BlobBaseFee": "0x1",
      "l1BlobBaseFeeScalar": "0xa118b",
      "l1Fee": "0x51",
      "l1GasPrice": "0x9",
      "l1GasUsed": "0x96a"
    },
    {
      "status": "0x1",
      "cumulativeGasUsed": "0xe621f4",
      "logs": [
        {
          "address": "0x05c4d59529807316d6fa09cdaa509addfe85b474",
          "topics": [
            "0xc2cbc4ca4431d856ab27d59801030b2ef47c0d84f472cd5478c8fe7253aff1ce",
            "0x0000000000000000000000000000000000000000000000000000000000000001",
            "0x0000000000000000000000000000000000000000000000000000000000000001",
            "0x000000000000000000000000017596303ee2f3c1250aa67d2d33dbae1d1c4dbf"
          ],
          "data": "0x000000000000000000000000000000000000000000000000000000000000004080c198bed23d50636249b999210dc0d13a35f9d4f91236114010f0034c0814cf000000000000000000000000000000000000000000000000000000000000002f516d5465737443494431313131313131313131313131313131313131313131313131313131313131313131313131310000000000000000000000000000000000",
          "blockHash": "0x0000000000000000000000000000000000000000000000000000000000000000",
          "blockNumber": "0x250dfda",
          "blockTimestamp": "0x69b51e94",
          "transactionHash": "0x50b8f1dc1bc9442966b3981fb9ed228b87489ee52cb0d1ec09433820e6dbe55e",
          "transactionIndex": "0x8",
          "logIndex": "0x11",
          "removed": false
        }
      ],
      "logsBloom": "0x00000000000000000000000000000000000000000000000000000000040000000000000000000000001000000000000000000000000000000000000000440000000000000020000000000000000000000000000000040000000000000000000200000000000000000000000000000000000000000000000000000000000002000000000000000000000000000000000000000000000000000000000000000000000000000000000000000000000000000000000000000000000000800000000000000000000010000000000000000000000000000000000000000000000040000000000000000000000000000000000000000000000000000000000000000400",
      "type": "0x2",
      "transactionHash": "0x50b8f1dc1bc9442966b3981fb9ed228b87489ee52cb0d1ec09433820e6dbe55e",
      "transactionIndex": "0x8",
      "blockHash": "0x0000000000000000000000000000000000000000000000000000000000000000",
      "blockNumber": "0x250dfda",
      "gasUsed": "0x9b92",
      "effectiveGasPrice": "0x5b8d80",
      "blobGasUsed": "0x3e71",
      "from": "0x017596303ee2f3c1250aa67d2d33dbae1d1c4dbf",
      "to": "0x05c4d59529807316d6fa09cdaa509addfe85b474",
      "contractAddress": null,
      "daFootprintGasScalar": "0x8b",
      "l1BaseFeeScalar": "0x44d",
      "l1BlobBaseFee": "0x1",
      "l1BlobBaseFeeScalar": "0xa118b",
      "l1Fee": "0x51",
      "l1GasPrice": "0x9",
      "l1GasUsed": "0x738"
    }
  ],
  "libraries": [],
  "pending": [],
  "returns": {},
  "timestamp": 1773477522187,
  "chain": 84532,
  "commit": "85fc1e5"
}