{
  "transactions": [
    {
      "hash": "0xf4287e02a5cbaed3b39fb3186abdcd43e6ceeffb488d66a61b11fd4fe849e099",
      "transactionType": "CALL",
      "contractName": null,
      "contractAddress": "0x498581ff718922c3f8e6a244956af099b2652b2b",
      "function": "initialize((address,address,uint24,int24,address),uint160)",
      "arguments": [
        "(0x0000000000000000000000000000000000000000, 0xF8A2C39111FCEB9C950aAf28A9E34EBaD99b85C1, 3000, 60, 0x0000000000000000000000000000000000000000)",
        "79061913993278860732495193206006"
      ],
      "transaction": {
        "from": "0x017596303ee2f3c1250aa67d2d33dbae1d1c4dbf",
        "to": "0x498581ff718922c3f8e6a244956af099b2652b2b",
        "gas": "0x116e6",
        "value": "0x0",
        "input": "0x6276cbbe0000000000000000000000000000000000000000000000000000000000000000000000000000000000000000f8a2c39111fceb9c950aaf28a9e34ebad99b85c10000000000000000000000000000000000000000000000000000000000000bb8000000000000000000000000000000000000000000000000000000000000003c000000000000000000000000000000000000000000000000000000000000000000000000000000000000000000000000000003e5e6d27252c090388968d86cf6",
        "nonce": "0x1b5",
        "chainId": "0x2105"
      },
      "additionalContracts": [],
      "isFixedGasLimit": false
    },
    {
      "hash": "0xab6bf4d54c206fe24484b76295d0f0e01b85f6849fc4f67b924b5f9650d09311",
      "transactionType": "CALL",
      "contractName": null,
      "contractAddress": "0xf8a2c39111fceb9c950aaf28a9e34ebad99b85c1",
      "function": "approve(address,uint256)",
      "arguments": [
        "0x000000000022D473030F116dDEE9F6B43aC78BA3",
        "115792089237316195423570985008687907853269984665640564039457584007913129639935"
      ],
      "transaction": {
        "from": "0x017596303ee2f3c1250aa67d2d33dbae1d1c4dbf",
        "to": "0xf8a2c39111fceb9c950aaf28a9e34ebad99b85c1",
        "gas": "0x109bd",
        "value": "0x0",
        "input": "0x095ea7b3000000000000000000000000000000000022d473030f116ddee9f6b43ac78ba3ffffffffffffffffffffffffffffffffffffffffffffffffffffffffffffffff",
        "nonce": "0x1b6",
        "chainId": "0x2105"
      },
      "additionalContracts": [],
      "isFixedGasLimit": false
    },
    {
      "hash": "0xaf6715c9041ccc39e3e9e87c44ae8b61d78dd366f5be06a6f43e3bd442f18c1e",
      "transactionType": "CALL",
      "contractName": null,
      "contractAddress": "0x000000000022d473030f116ddee9f6b43ac78ba3",
      "function": "approve(address,address,uint160,uint48)",
      "arguments": [
        "0xF8A2C39111FCEB9C950aAf28A9E34EBaD99b85C1",
        "0x7C5f5A4bBd8fD63184577525326123B519429bDc",
        "1461501637330902918203684832716283019655932542975",
        "281474976710655"
      ],
      "transaction": {
        "from": "0x017596303ee2f3c1250aa67d2d33dbae1d1c4dbf",
        "to": "0x000000000022d473030f116ddee9f6b43ac78ba3",
        "gas": "0x1112d",
        "value": "0x0",
        "input": "0x87517c45000000000000000000000000f8a2c39111fceb9c950aaf28a9e34ebad99b85c10000000000000000000000007c5f5a4bbd8fd63184577525326123b519429bdc000000000000000000000000ffffffffffffffffffffffffffffffffffffffff0000000000000000000000000000000000000000000000000000ffffffffffff",
        "nonce": "0x1b7",
        "chainId": "0x2105"
      },
      "additionalContracts": [],
      "isFixedGasLimit": false
    },
    {
      "hash": "0x94f7a2c0292183d5468ea8ec50d3da6f27c56654a089071ba138efc1546c3bb6",
      "transactionType": "CALL",
      "contractName": null,
      "contractAddress": "0x7c5f5a4bbd8fd63184577525326123b519429bdc",
      "function": "modifyLiquidities(bytes,uint256)",
      "arguments": [
        "0x000000000000000000000000000000000000000000000000000000000000004000000000000000000000000000000000000000000000000000000000000000800000000000000000000000000000000000000000000000000000000000000003020d140000000000000000000000000000000000000000000000000000000000000000000000000000000000000000000000000000000000000000000000000300000000000000000000000000000000000000000000000000000000000000600000000000000000000000000000000000000000000000000000000000000220000000000000000000000000000000000000000000000000000000000000028000000000000000000000000000000000000000000000000000000000000001a00000000000000000000000000000000000000000000000000000000000000000000000000000000000000000f8a2c39111fceb9c950aaf28a9e34ebad99b85c10000000000000000000000000000000000000000000000000000000000000bb8000000000000000000000000000000000000000000000000000000000000003c0000000000000000000000000000000000000000000000000000000000000000000000000000000000000000000000000000000000000000000000000002041800000000000000000000000000000000000000000000000000000000000232f8000000000000000000000000000000000000000000000000356f3e7fecaf6b1400000000000000000000000000000000000000000000000000038d7ea4c6800000000000000000000000000000000000000000000000003635c9adc5dea00000000000000000000000000000017596303ee2f3c1250aa67d2d33dbae1d1c4dbf0000000000000000000000000000000000000000000000000000000000000180000000000000000000000000000000000000000000000000000000000000000000000000000000000000000000000000000000000000000000000000000000400000000000000000000000000000000000000000000000000000000000000000000000000000000000000000f8a2c39111fceb9c950aaf28a9e34ebad99b85c100000000000000000000000000000000000000000000000000000000000000600000000000000000000000000000000000000000000000000000000000000000000000000000000000000000017596303ee2f3c1250aa67d2d33dbae1d1c4dbf0000000000000000000000000000000000000000000000000000000000000000",
        "1774245599"
      ],
      "transaction": {
        "from": "0x017596303ee2f3c1250aa67d2d33dbae1d1c4dbf",
        "to": "0x7c5f5a4bbd8fd63184577525326123b519429bdc",
        "gas": "0x7d0c8",
        "value": "0x38d7ea4c68000",
        "input": "0xdd46508f00000000000000000000000000000000000000000000000000000000000000400000000000000000000000000000000000000000000000000000000069c0d6df00000000000000000000000000000000000000000000000000000000000003a0000000000000000000000000000000000000000000000000000000000000004000000000000000000000000000000000000000000000000000000000000000800000000000000000000000000000000000000000000000000000000000000003020d140000000000000000000000000000000000000000000000000000000000000000000000000000000000000000000000000000000000000000000000000300000000000000000000000000000000000000000000000000000000000000600000000000000000000000000000000000000000000000000000000000000220000000000000000000000000000000000000000000000000000000000000028000000000000000000000000000000000000000000000000000000000000001a00000000000000000000000000000000000000000000000000000000000000000000000000000000000000000f8a2c39111fceb9c950aaf28a9e34ebad99b85c10000000000000000000000000000000000000000000000000000000000000bb8000000000000000000000000000000000000000000000000000000000000003c0000000000000000000000000000000000000000000000000000000000000000000000000000000000000000000000000000000000000000000000000002041800000000000000000000000000000000000000000000000000000000000232f8000000000000000000000000000000000000000000000000356f3e7fecaf6b1400000000000000000000000000000000000000000000000000038d7ea4c6800000000000000000000000000000000000000000000000003635c9adc5dea00000000000000000000000000000017596303ee2f3c1250aa67d2d33dbae1d1c4dbf0000000000000000000000000000000000000000000000000000000000000180000000000000000000000000000000000000000000000000000000000000000000000000000000000000000000000000000000000000000000000000000000400000000000000000000000000000000000000000000000000000000000000000000000000000000000000000f8a2c39111fceb9c950aaf28a9e34ebad99b85c100000000000000000000000000000000000000000000000000000000000000600000000000000000000000000000000000000000000000000000000000000000000000000000000000000000017596303ee2f3c1250aa67d2d33dbae1d1c4dbf0000000000000000000000000000000000000000000000000000000000000000",
        "nonce": "0x1b8",
        "chainId": "0x2105"
      },
      "additionalContracts": [],
      "isFixedGasLimit": false
    }
  ],
  "receipts": [
    {
      "status": "0x1",
      "cumulativeGasUsed": "0xac3298",
      "logs": [
        {
          "address": "0x498581ff718922c3f8e6a244956af099b2652b2b",
          "topics": [
            "0xdd466e674ea557f56295e2d0218a125ea4b4f0f6f3307b95f85e6110838d6438",
            "0x8ac0625a58745b0956142dae68f569e50df898facda78eca4ce47118e1c9ded3",
            "0x0000000000000000000000000000000000000000000000000000000000000000",
            "0x000000000000000000000000f8a2c39111fceb9c950aaf28a9e34ebad99b85c1"
          ],
          "data": "0x0000000000000000000000000000000000000000000000000000000000000bb8000000000000000000000000000000000000000000000000000000000000003c000000000000000000000000000000000000000000000000000000000000000000000000000000000000000000000000000003e5e6d27252c090388968d86cf60000000000000000000000000000000000000000000000000000000000021b88",
          "blockHash": "0x319d31bf1f90ec5b12885212cdb250e4181c69b749129cd1d8f5df1e19a602f9",
          "blockNumber": "0x29b3cc8",
          "blockTimestamp": "0x69c0d673",
          "transactionHash": "0xf4287e02a5cbaed3b39fb3186abdcd43e6ceeffb488d66a61b11fd4fe849e099",
          "transactionIndex": "0x29",
          "logIndex": "0x16b",
          "removed": false
        }
      ],
      "logsBloom": "0x00000000000000000000000000000000000000000000000000000000000000000008000000080000000000000000000000000000000000000000000000000000000000000000000000000000000000000000000000000000000000000000000000000000022000000000000000000800000000000000000000000000000000000000000000004008000000000000000000000001000800000000000000200000000000000000000000000000000000000000000000000000000000000000000000000000000080000000000000000000000800000000000000000400000020000000000000000000000000000000000000000400000000000000000000000000",
      "type": "0x2",
      "transactionHash": "0xf4287e02a5cbaed3b39fb3186abdcd43e6ceeffb488d66a61b11fd4fe849e099",
      "transactionIndex": "0x29",
      "blockHash": "0x319d31bf1f90ec5b12885212cdb250e4181c69b749129cd1d8f5df1e19a602f9",
      "blockNumber": "0x29b3cc8",
      "gasUsed": "0xc9ec",
      "effectiveGasPrice": "0x4c4b4a",
      "blobGasUsed": "0x3878",
      "from": "0x017596303ee2f3c1250aa67d2d33dbae1d1c4dbf",
      "to": "0x498581ff718922c3f8e6a244956af099b2652b2b",
      "contractAddress": null,
      "daFootprintGasScalar": "0x8b",
      "l1BaseFeeScalar": "0x8dd",
      "l1BlobBaseFee": "0x33835e",
      "l1BlobBaseFeeScalar": "0x101c12",
      "l1Fee": "0x22fb1a34",
      "l1GasPrice": "0x35b4b19",
      "l1GasUsed": "0x68a"
    },
    {
      "status": "0x1",
      "cumulativeGasUsed": "0x2822add",
      "logs": [
        {
          "address": "0xf8a2c39111fceb9c950aaf28a9e34ebad99b85c1",
          "topics": [
            "0x8c5be1e5ebec7d5bd14f71427d1e84f3dd0314c0f7b2291e5b200ac8c7c3b925",
            "0x000000000000000000000000017596303ee2f3c1250aa67d2d33dbae1d1c4dbf",
            "0x000000000000000000000000000000000022d473030f116ddee9f6b43ac78ba3"
          ],
          "data": "0xffffffffffffffffffffffffffffffffffffffffffffffffffffffffffffffff",
          "blockHash": "0x88e0b08e175d7015c30ee61111bb0a43496c7329cd592ff5e9d47b4df4e7cc68",
          "blockNumber": "0x29b3cc9",
          "blockTimestamp": "0x69c0d675",
          "transactionHash": "0xab6bf4d54c206fe24484b76295d0f0e01b85f6849fc4f67b924b5f9650d09311",
          "transactionIndex": "0x7f",
          "logIndex": "0x31f",
          "removed": false
        }
      ],
      "logsBloom": "0x00000000000000000000000000000000000000000000000000000000040000000000000000000000000000000000004000000000800000000000000000200000000000000000000000005000000000000000000000000800000000000000000200000000000000000000000000000000000000000000000000000000000000000000000000000000000000000000000000000000000000000000000000000000020000000000000000000000000000000000000000000000000000800000000000000000000000000000000000000000200000000000000000000000000000000010000000000000000000000000000000000000000000000000000000000000",
      "type": "0x2",
      "transactionHash": "0xab6bf4d54c206fe24484b76295d0f0e01b85f6849fc4f67b924b5f9650d09311",
      "transactionIndex": "0x7f",
      "blockHash": "0x88e0b08e175d7015c30ee61111bb0a43496c7329cd592ff5e9d47b4df4e7cc68",
      "blockNumber": "0x29b3cc9",
      "gasUsed": "0xc064",
      "effectiveGasPrice": "0x4c4b4a",
      "blobGasUsed": "0x364c",
      "from": "0x017596303ee2f3c1250aa67d2d33dbae1d1c4dbf",
      "to": "0xf8a2c39111fceb9c950aaf28a9e34ebad99b85c1",
      "contractAddress": null,
      "daFootprintGasScalar": "0x8b",
      "l1BaseFeeScalar": "0x8dd",
      "l1BlobBaseFee": "0x33835e",
      "l1BlobBaseFeeScalar": "0x101c12",
      "l1Fee": "0x216e243b",
      "l1GasPrice": "0x35b4b19",
      "l1GasUsed": "0x640"
    },
    {
      "status": "0x1",
      "cumulativeGasUsed": "0xd304ba",
      "logs": [
        {
          "address": "0x000000000022d473030f116ddee9f6b43ac78ba3",
          "topics": [
            "0xda9fa7c1b00402c17d0161b249b1ab8bbec047c5a52207b9c112deffd817036b",
            "0x000000000000000000000000017596303ee2f3c1250aa67d2d33dbae1d1c4dbf",
            "0x000000000000000000000000f8a2c39111fceb9c950aaf28a9e34ebad99b85c1",
            "0x0000000000000000000000007c5f5a4bbd8fd63184577525326123b519429bdc"
          ],
          "data": "0x000000000000000000000000ffffffffffffffffffffffffffffffffffffffff0000000000000000000000000000000000000000000000000000ffffffffffff",
          "blockHash": "0xf947605ce9842ddf9616e7e1698c66546b3210715c828fddc07052d6ff03b862",
          "blockNumber": "0x29b3ccb",
          "blockTimestamp": "0x69c0d679",
          "transactionHash": "0xaf6715c9041ccc39e3e9e87c44ae8b61d78dd366f5be06a6f43e3bd442f18c1e",
          "transactionIndex": "0x39",
          "logIndex": "0x1c1",
          "removed": false
        }
      ],
      "logsBloom": "0x00010000000000000000000000000000000000000000000000000000040000000000000000000000000000000000000000000000000000000000000000082000000000000000000000000000000000000000000000000000000000000000000200000000002000000000000000000000000000000000000000000000000000000020000000000000000000000000000000000000000800000000000000000000000000000000000000000000000000000000000000000000000000880000000200000000000080000000000000000000000000000000000040000000000000000000000000000000000000000000000000000000002000000000000000000400",
      "type": "0x2",
      "transactionHash": "0xaf6715c9041ccc39e3e9e87c44ae8b61d78dd366f5be06a6f43e3bd442f18c1e",
      "transactionIndex": "0x39",
      "blockHash": "0xf947605ce9842ddf9616e7e1698c66546b3210715c828fddc07052d6ff03b862",
      "blockNumber": "0x29b3ccb",
      "gasUsed": "0xbaca",
      "effectiveGasPrice": "0x4c4b4a",
      "blobGasUsed": "0x3bba",
      "from": "0x017596303ee2f3c1250aa67d2d33dbae1d1c4dbf",
      "to": "0x000000000022d473030f116ddee9f6b43ac78ba3",
      "contractAddress": null,
      "daFootprintGasScalar": "0x8b",
      "l1BaseFeeScalar": "0x8dd",
      "l1BlobBaseFee": "0x33835e",
      "l1BlobBaseFeeScalar": "0x101c12",
      "l1Fee": "0x24f0396e",
      "l1GasPrice": "0x35b4b19",
      "l1GasUsed": "0x6e7"
    },
    {
      "status": "0x1",
      "cumulativeGasUsed": "0x151c56a",
      "logs": [
        {
          "address": "0x7c5f5a4bbd8fd63184577525326123b519429bdc",
          "topics": [
            "0xddf252ad1be2c89b69c2b068fc378daa952ba7f163c4a11628f55a4df523b3ef",
            "0x0000000000000000000000000000000000000000000000000000000000000000",
            "0x000000000000000000000000017596303ee2f3c1250aa67d2d33dbae1d1c4dbf",
            "0x00000000000000000000000000000000000000000000000000000000001fb95f"
          ],
          "data": "0x",
          "blockHash": "0x0000000000000000000000000000000000000000000000000000000000000000",
          "blockNumber": "0x29b3ccd",
          "blockTimestamp": "0x69c0d67d",
          "transactionHash": "0x94f7a2c0292183d5468ea8ec50d3da6f27c56654a089071ba138efc1546c3bb6",
          "transactionIndex": "0x40",
          "logIndex": "0x231",
          "removed": false
        },
        {
          "address": "0x498581ff718922c3f8e6a244956af099b2652b2b",
          "topics": [
            "0xf208f4912782fd25c7f114ca3723a2d5dd6f3bcc3ac8db5af63baa85f711d5ec",
            "0x8ac0625a58745b0956142dae68f569e50df898facda78eca4ce47118e1c9ded3",
            "0x0000000000000000000000007c5f5a4bbd8fd63184577525326123b519429bdc"
          ],
          "data": "0x000000000000000000000000000000000000000000000000000000000002041800000000000000000000000000000000000000000000000000000000000232f8000000000000000000000000000000000000000000000000356f3e7fecaf6b1400000000000000000000000000000000000000000000000000000000001fb95f",
          "blockHash": "0x0000000000000000000000000000000000000000000000000000000000000000",
          "blockNumber": "0x29b3ccd",
          "blockTimestamp": "0x69c0d67d",
          "transactionHash": "0x94f7a2c0292183d5468ea8ec50d3da6f27c56654a089071ba138efc1546c3bb6",
          "transactionIndex": "0x40",
          "logIndex": "0x232",
          "removed": false
        },
        {
          "address": "0xf8a2c39111fceb9c950aaf28a9e34ebad99b85c1",
          "topics": [
            "0xddf252ad1be2c89b69c2b068fc378daa952ba7f163c4a11628f55a4df523b3ef",
            "0x000000000000000000000000017596303ee2f3c1250aa67d2d33dbae1d1c4dbf",
            "0x000000000000000000000000498581ff718922c3f8e6a244956af099b2652b2b"
          ],
          "data": "0x000000000000000000000000000000000000000000000035fb9ba37f2e1ef8a8",
          "blockHash": "0x0000000000000000000000000000000000000000000000000000000000000000",
          "blockNumber": "0x29b3ccd",
          "blockTimestamp": "0x69c0d67d",
          "transactionHash": "0x94f7a2c0292183d5468ea8ec50d3da6f27c56654a089071ba138efc1546c3bb6",
          "transactionIndex": "0x40",
          "logIndex": "0x233",
          "removed": false
        }
      ],
      "logsBloom": "0x00000000000000000000000000000000000040000000000000000000040000000028000000080000000000000000004000000000000000000000000000002000000000000000000000001008000000000000000000000000000000000000000200000000020000000000000000000800040000000000000000000010000000000000000001004000000000000000000000000000000000000000000400000000004004000000000008000000000000000000000000000000000000800000000200000002000801000000000000000000200800000000000000000400000020000000000000000000000000000000000004020400002000000000000000000000",
      "type": "0x2",
      "transactionHash": "0x94f7a2c0292183d5468ea8ec50d3da6f27c56654a089071ba138efc1546c3bb6",
      "transactionIndex": "0x40",
      "blockHash": "0x0000000000000000000000000000000000000000000000000000000000000000",
      "blockNumber": "0x29b3ccd",
      "gasUsed": "0x5a888",
      "effectiveGasPrice": "0x4c4b4a",
      "blobGasUsed": "0x847c",
      "from": "0x017596303ee2f3c1250aa67d2d33dbae1d1c4dbf",
      "to": "0x7c5f5a4bbd8fd63184577525326123b519429bdc",
      "contractAddress": null,
      "daFootprintGasScalar": "0x8b",
      "l1BaseFeeScalar": "0x8dd",
      "l1BlobBaseFee": "0x33835e",
      "l1BlobBaseFeeScalar": "0x101c12",
      "l1Fee": "0x216e243b",
      "l1GasPrice": "0x35b4b19",
      "l1GasUsed": "0xf45"
    }
  ],
  "libraries": [],
  "pending": [],
  "returns": {},
  "timestamp": 1774245499757,
  "chain": 8453,
  "commit": "be779c0"
}