{
  "transactions": [
    {
      "hash": "0x5ba6dc91f6f622ba2e921215ea183c187776915dd6309b0b888975f4f3b6c8a9",
      "transactionType": "CREATE",
      "contractName": "PLTest",
      "contractAddress": "0x6ef4a3f654f2afcea8a8704d61be5271536c13fa",
      "function": null,
      "arguments": [
        "10000000000000000000000"
      ],
      "transaction": {
        "from": "0x017596303ee2f3c1250aa67d2d33dbae1d1c4dbf",
        "gas": "0x1161bf",
        "value": "0x0",
        "input": "0x608060405234801561000f575f5ffd5b50604051610fd1380380610fd183398181016040528101906100319190610191565b3360015f6101000a81548173ffffffffffffffffffffffffffffffffffffffff021916908373ffffffffffffffffffffffffffffffffffffffff160217905550610081338261008760201b60201c565b50610244565b805f5f82825461009791906101e9565b925050819055508060025f8473ffffffffffffffffffffffffffffffffffffffff1673ffffffffffffffffffffffffffffffffffffffff1681526020019081526020015f205f8282546100ea91906101e9565b925050819055508173ffffffffffffffffffffffffffffffffffffffff165f73ffffffffffffffffffffffffffffffffffffffff167fddf252ad1be2c89b69c2b068fc378daa952ba7f163c4a11628f55a4df523b3ef8360405161014e919061022b565b60405180910390a35050565b5f5ffd5b5f819050919050565b6101708161015e565b811461017a575f5ffd5b50565b5f8151905061018b81610167565b92915050565b5f602082840312156101a6576101a561015a565b5b5f6101b38482850161017d565b91505092915050565b7f4e487b71000000000000000000000000000000000000000000000000000000005f52601160045260245ffd5b5f6101f38261015e565b91506101fe8361015e565b9250828201905080821115610216576102156101bc565b5b92915050565b6102258161015e565b82525050565b5f60208201905061023e5f83018461021c565b92915050565b610d80806102515f395ff3fe608060405234801561000f575f5ffd5b50600436106100a7575f3560e01c806340c10f191161006f57806340c10f191461016557806370a08231146101815780638da5cb5b146101b157806395d89b41146101cf578063a9059cbb146101ed578063dd62ed3e1461021d576100a7565b806306fdde03146100ab578063095ea7b3146100c957806318160ddd146100f957806323b872dd14610117578063313ce56714610147575b5f5ffd5b6100b361024d565b6040516100c09190610920565b60405180910390f35b6100e360048036038101906100de91906109d1565b610286565b6040516100f09190610a29565b60405180910390f35b610101610373565b60405161010e9190610a51565b60405180910390f35b610131600480360381019061012c9190610a6a565b610378565b60405161013e9190610a29565b60405180910390f35b61014f6104fd565b60405161015c9190610ad5565b60405180910390f35b61017f600480360381019061017a91906109d1565b610502565b005b61019b60048036038101906101969190610aee565b61059f565b6040516101a89190610a51565b60405180910390f35b6101b96105b4565b6040516101c69190610b28565b60405180910390f35b6101d76105d9565b6040516101e49190610920565b60405180910390f35b610207600480360381019061020291906109d1565b610612565b6040516102149190610a29565b60405180910390f35b61023760048036038101906102329190610b41565b610626565b6040516102449190610a51565b60405180910390f35b6040518060400160405280600781526020017f706c2d746573740000000000000000000000000000000000000000000000000081525081565b5f8160035f3373ffffffffffffffffffffffffffffffffffffffff1673ffffffffffffffffffffffffffffffffffffffff1681526020019081526020015f205f8573ffffffffffffffffffffffffffffffffffffffff1673ffffffffffffffffffffffffffffffffffffffff1681526020019081526020015f20819055508273ffffffffffffffffffffffffffffffffffffffff163373ffffffffffffffffffffffffffffffffffffffff167f8c5be1e5ebec7d5bd14f71427d1e84f3dd0314c0f7b2291e5b200ac8c7c3b925846040516103619190610a51565b60405180910390a36001905092915050565b5f5481565b5f5f60035f8673ffffffffffffffffffffffffffffffffffffffff1673ffffffffffffffffffffffffffffffffffffffff1681526020019081526020015f205f3373ffffffffffffffffffffffffffffffffffffffff1673ffffffffffffffffffffffffffffffffffffffff1681526020019081526020015f205490507fffffffffffffffffffffffffffffffffffffffffffffffffffffffffffffffff81146104e8578281101561045f576040517f08c379a000000000000000000000000000000000000000000000000000000000815260040161045690610bc9565b60405180910390fd5b828161046b9190610c14565b60035f8773ffffffffffffffffffffffffffffffffffffffff1673ffffffffffffffffffffffffffffffffffffffff1681526020019081526020015f205f3373ffffffffffffffffffffffffffffffffffffffff1673ffffffffffffffffffffffffffffffffffffffff1681526020019081526020015f20819055505b6104f3858585610646565b9150509392505050565b601281565b60015f9054906101000a900473ffffffffffffffffffffffffffffffffffffffff1673ffffffffffffffffffffffffffffffffffffffff163373ffffffffffffffffffffffffffffffffffffffff1614610591576040517f08c379a000000000000000000000000000000000000000000000000000000000815260040161058890610c91565b60405180910390fd5b61059b82826107dd565b5050565b6002602052805f5260405f205f915090505481565b60015f9054906101000a900473ffffffffffffffffffffffffffffffffffffffff1681565b6040518060400160405280600781526020017f504c5f544553540000000000000000000000000000000000000000000000000081525081565b5f61061e338484610646565b905092915050565b6003602052815f5260405f20602052805f5260405f205f91509150505481565b5f8160025f8673ffffffffffffffffffffffffffffffffffffffff1673ffffffffffffffffffffffffffffffffffffffff1681526020019081526020015f205410156106c7576040517f08c379a00000000000000000000000000000000000000000000000000000000081526004016106be90610cf9565b60405180910390fd5b8160025f8673ffffffffffffffffffffffffffffffffffffffff1673ffffffffffffffffffffffffffffffffffffffff1681526020019081526020015f205f8282546107139190610c14565b925050819055508160025f8573ffffffffffffffffffffffffffffffffffffffff1673ffffffffffffffffffffffffffffffffffffffff1681526020019081526020015f205f8282546107669190610d17565b925050819055508273ffffffffffffffffffffffffffffffffffffffff168473ffffffffffffffffffffffffffffffffffffffff167fddf252ad1be2c89b69c2b068fc378daa952ba7f163c4a11628f55a4df523b3ef846040516107ca9190610a51565b60405180910390a3600190509392505050565b805f5f8282546107ed9190610d17565b925050819055508060025f8473ffffffffffffffffffffffffffffffffffffffff1673ffffffffffffffffffffffffffffffffffffffff1681526020019081526020015f205f8282546108409190610d17565b925050819055508173ffffffffffffffffffffffffffffffffffffffff165f73ffffffffffffffffffffffffffffffffffffffff167fddf252ad1be2c89b69c2b068fc378daa952ba7f163c4a11628f55a4df523b3ef836040516108a49190610a51565b60405180910390a35050565b5f81519050919050565b5f82825260208201905092915050565b8281835e5f83830152505050565b5f601f19601f8301169050919050565b5f6108f2826108b0565b6108fc81856108ba565b935061090c8185602086016108ca565b610915816108d8565b840191505092915050565b5f6020820190508181035f83015261093881846108e8565b905092915050565b5f5ffd5b5f73ffffffffffffffffffffffffffffffffffffffff82169050919050565b5f61096d82610944565b9050919050565b61097d81610963565b8114610987575f5ffd5b50565b5f8135905061099881610974565b92915050565b5f819050919050565b6109b08161099e565b81146109ba575f5ffd5b50565b5f813590506109cb816109a7565b92915050565b5f5f604083850312156109e7576109e6610940565b5b5f6109f48582860161098a565b9250506020610a05858286016109bd565b9150509250929050565b5f8115159050919050565b610a2381610a0f565b82525050565b5f602082019050610a3c5f830184610a1a565b92915050565b610a4b8161099e565b82525050565b5f602082019050610a645f830184610a42565b92915050565b5f5f5f60608486031215610a8157610a80610940565b5b5f610a8e8682870161098a565b9350506020610a9f8682870161098a565b9250506040610ab0868287016109bd565b9150509250925092565b5f60ff82169050919050565b610acf81610aba565b82525050565b5f602082019050610ae85f830184610ac6565b92915050565b5f60208284031215610b0357610b02610940565b5b5f610b108482850161098a565b91505092915050565b610b2281610963565b82525050565b5f602082019050610b3b5f830184610b19565b92915050565b5f5f60408385031215610b5757610b56610940565b5b5f610b648582860161098a565b9250506020610b758582860161098a565b9150509250929050565b7f696e73756666696369656e7420616c6c6f77616e6365000000000000000000005f82015250565b5f610bb36016836108ba565b9150610bbe82610b7f565b602082019050919050565b5f6020820190508181035f830152610be081610ba7565b9050919050565b7f4e487b71000000000000000000000000000000000000000000000000000000005f52601160045260245ffd5b5f610c1e8261099e565b9150610c298361099e565b9250828203905081811115610c4157610c40610be7565b5b92915050565b7f6f6e6c79206f776e6572000000000000000000000000000000000000000000005f82015250565b5f610c7b600a836108ba565b9150610c8682610c47565b602082019050919050565b5f6020820190508181035f830152610ca881610c6f565b9050919050565b7f696e73756666696369656e742062616c616e63650000000000000000000000005f82015250565b5f610ce36014836108ba565b9150610cee82610caf565b602082019050919050565b5f6020820190508181035f830152610d1081610cd7565b9050919050565b5f610d218261099e565b9150610d2c8361099e565b9250828201905080821115610d4457610d43610be7565b5b9291505056fea26469706673582212205ac6d9765353f2bb68d7dd561f040cf26280a9c66ea1b12ef879355c3141eefa64736f6c634300081c003300000000000000000000000000000000000000000000021e19e0c9bab2400000",
        "nonce": "0x55",
        "chainId": "0x14a34"
      },
      "additionalContracts": [],
      "isFixedGasLimit": false
    },
    {
      "hash": "0xf38c61346cf2932c8201f76e6e827456a30678b1907cb8e1876f975816eaaead",
      "transactionType": "CALL",
      "contractName": null,
      "contractAddress": "0x05e73354cfdd6745c338b50bcfdfa3aa6fa03408",
      "function": "initialize((address,address,uint24,int24,address),uint160)",
      "arguments": [
        "(0x4200000000000000000000000000000000000006, 0x6Ef4A3f654F2AfcEa8A8704D61Be5271536c13Fa, 3000, 60, 0x0000000000000000000000000000000000000000)",
        "11204562847321190656000"
      ],
      "transaction": {
        "from": "0x017596303ee2f3c1250aa67d2d33dbae1d1c4dbf",
        "to": "0x05e73354cfdd6745c338b50bcfdfa3aa6fa03408",
        "gas": "0x1274c",
        "value": "0x0",
        "input": "0x6276cbbe00000000000000000000000042000000000000000000000000000000000000060000000000000000000000006ef4a3f654f2afcea8a8704d61be5271536c13fa0000000000000000000000000000000000000000000000000000000000000bb8000000000000000000000000000000000000000000000000000000000000003c000000000000000000000000000000000000000000000000000000000000000000000000000000000000000000000000000000000000025f668bb15206e96800",
        "nonce": "0x56",
        "chainId": "0x14a34"
      },
      "additionalContracts": [],
      "isFixedGasLimit": false
    },
    {
      "hash": "0x1babe8d76f9d68b7f2d34e5b9f7a20470dbf97a4b6cd252bb4cf44d466d9453b",
      "transactionType": "CALL",
      "contractName": "PLTest",
      "contractAddress": "0x6ef4a3f654f2afcea8a8704d61be5271536c13fa",
      "function": "approve(address,uint256)",
      "arguments": [
        "0x000000000022D473030F116dDEE9F6B43aC78BA3",
        "115792089237316195423570985008687907853269984665640564039457584007913129639935"
      ],
      "transaction": {
        "from": "0x017596303ee2f3c1250aa67d2d33dbae1d1c4dbf",
        "to": "0x6ef4a3f654f2afcea8a8704d61be5271536c13fa",
        "gas": "0x10c49",
        "value": "0x0",
        "input": "0x095ea7b3000000000000000000000000000000000022d473030f116ddee9f6b43ac78ba3ffffffffffffffffffffffffffffffffffffffffffffffffffffffffffffffff",
        "nonce": "0x57",
        "chainId": "0x14a34"
      },
      "additionalContracts": [],
      "isFixedGasLimit": false
    },
    {
      "hash": "0x94b4c381933e1fad01cfecb2185eaf60cec731cc154e46467a885b6874be1eae",
      "transactionType": "CALL",
      "contractName": null,
      "contractAddress": "0x4200000000000000000000000000000000000006",
      "function": "deposit()",
      "arguments": [],
      "transaction": {
        "from": "0x017596303ee2f3c1250aa67d2d33dbae1d1c4dbf",
        "to": "0x4200000000000000000000000000000000000006",
        "gas": "0x95cf",
        "value": "0x11c37937e08000",
        "input": "0xd0e30db0",
        "nonce": "0x58",
        "chainId": "0x14a34"
      },
      "additionalContracts": [],
      "isFixedGasLimit": false
    },
    {
      "hash": "0xf666818fe1ed33e57c0f01799dce3e52d2d1d05854ebb8061c6186e09eff0735",
      "transactionType": "CALL",
      "contractName": null,
      "contractAddress": "0x4200000000000000000000000000000000000006",
      "function": "approve(address,uint256)",
      "arguments": [
        "0x000000000022D473030F116dDEE9F6B43aC78BA3",
        "115792089237316195423570985008687907853269984665640564039457584007913129639935"
      ],
      "transaction": {
        "from": "0x017596303ee2f3c1250aa67d2d33dbae1d1c4dbf",
        "to": "0x4200000000000000000000000000000000000006",
        "gas": "0x10868",
        "value": "0x0",
        "input": "0x095ea7b3000000000000000000000000000000000022d473030f116ddee9f6b43ac78ba3ffffffffffffffffffffffffffffffffffffffffffffffffffffffffffffffff",
        "nonce": "0x59",
        "chainId": "0x14a34"
      },
      "additionalContracts": [],
      "isFixedGasLimit": false
    },
    {
      "hash": "0xf2663b51fbda65555e7722d981cfc0ec9c024c3a77cc59f177e4505322df0688",
      "transactionType": "CALL",
      "contractName": null,
      "contractAddress": "0x000000000022d473030f116ddee9f6b43ac78ba3",
      "function": "approve(address,address,uint160,uint48)",
      "arguments": [
        "0x6Ef4A3f654F2AfcEa8A8704D61Be5271536c13Fa",
        "0x4B2C77d209D3405F41a037Ec6c77F7F5b8e2ca80",
        "1461501637330902918203684832716283019655932542975",
        "281474976710655"
      ],
      "transaction": {
        "from": "0x017596303ee2f3c1250aa67d2d33dbae1d1c4dbf",
        "to": "0x000000000022d473030f116ddee9f6b43ac78ba3",
        "gas": "0x1112d",
        "value": "0x0",
        "input": "0x87517c450000000000000000000000006ef4a3f654f2afcea8a8704d61be5271536c13fa0000000000000000000000004b2c77d209d3405f41a037ec6c77f7f5b8e2ca80000000000000000000000000ffffffffffffffffffffffffffffffffffffffff0000000000000000000000000000000000000000000000000000ffffffffffff",
        "nonce": "0x5a",
        "chainId": "0x14a34"
      },
      "additionalContracts": [],
      "isFixedGasLimit": false
    },
    {
      "hash": "0x296ccf7e020d43568fc2fb53c4419157d22998a36133a9a753cf87c2460992e7",
      "transactionType": "CALL",
      "contractName": null,
      "contractAddress": "0x000000000022d473030f116ddee9f6b43ac78ba3",
      "function": "approve(address,address,uint160,uint48)",
      "arguments": [
        "0x4200000000000000000000000000000000000006",
        "0x4B2C77d209D3405F41a037Ec6c77F7F5b8e2ca80",
        "1461501637330902918203684832716283019655932542975",
        "281474976710655"
      ],
      "transaction": {
        "from": "0x017596303ee2f3c1250aa67d2d33dbae1d1c4dbf",
        "to": "0x000000000022d473030f116ddee9f6b43ac78ba3",
        "gas": "0x10ff1",
        "value": "0x0",
        "input": "0x87517c4500000000000000000000000042000000000000000000000000000000000000060000000000000000000000004b2c77d209d3405f41a037ec6c77f7f5b8e2ca80000000000000000000000000ffffffffffffffffffffffffffffffffffffffff0000000000000000000000000000000000000000000000000000ffffffffffff",
        "nonce": "0x5b",
        "chainId": "0x14a34"
      },
      "additionalContracts": [],
      "isFixedGasLimit": false
    },
    {
      "hash": "0x440ad5c6affc15bd09dec661599a14db2a0602ceb62aec47041a787612c41070",
      "transactionType": "CALL",
      "contractName": null,
      "contractAddress": "0x4b2c77d209d3405f41a037ec6c77f7f5b8e2ca80",
      "function": "modifyLiquidities(bytes,uint256)",
      "arguments": [
        "0x000000000000000000000000000000000000000000000000000000000000004000000000000000000000000000000000000000000000000000000000000000800000000000000000000000000000000000000000000000000000000000000002020d00000000000000000000000000000000000000000000000000000000000000000000000000000000000000000000000000000000000000000000000000020000000000000000000000000000000000000000000000000000000000000040000000000000000000000000000000000000000000000000000000000000020000000000000000000000000000000000000000000000000000000000000001a000000000000000000000000042000000000000000000000000000000000000060000000000000000000000006ef4a3f654f2afcea8a8704d61be5271536c13fa0000000000000000000000000000000000000000000000000000000000000bb8000000000000000000000000000000000000000000000000000000000000003c0000000000000000000000000000000000000000000000000000000000000000fffffffffffffffffffffffffffffffffffffffffffffffffffffffffffb1874fffffffffffffffffffffffffffffffffffffffffffffffffffffffffffb475400000000000000000000000000000000000000000000000000000000a20413a50000000000000000000000000000000000000000000000000011c37937e080000000000000000000000000000000000000000000000000056bc75e2d63100000000000000000000000000000017596303ee2f3c1250aa67d2d33dbae1d1c4dbf00000000000000000000000000000000000000000000000000000000000001800000000000000000000000000000000000000000000000000000000000000000000000000000000000000000000000000000000000000000000000000000004000000000000000000000000042000000000000000000000000000000000000060000000000000000000000006ef4a3f654f2afcea8a8704d61be5271536c13fa",
        "1774165358"
      ],
      "transaction": {
        "from": "0x017596303ee2f3c1250aa67d2d33dbae1d1c4dbf",
        "to": "0x4b2c77d209d3405f41a037ec6c77f7f5b8e2ca80",
        "gas": "0x88a36",
        "value": "0x0",
        "input": "0xdd46508f00000000000000000000000000000000000000000000000000000000000000400000000000000000000000000000000000000000000000000000000069bf9d6e0000000000000000000000000000000000000000000000000000000000000300000000000000000000000000000000000000000000000000000000000000004000000000000000000000000000000000000000000000000000000000000000800000000000000000000000000000000000000000000000000000000000000002020d00000000000000000000000000000000000000000000000000000000000000000000000000000000000000000000000000000000000000000000000000020000000000000000000000000000000000000000000000000000000000000040000000000000000000000000000000000000000000000000000000000000020000000000000000000000000000000000000000000000000000000000000001a000000000000000000000000042000000000000000000000000000000000000060000000000000000000000006ef4a3f654f2afcea8a8704d61be5271536c13fa0000000000000000000000000000000000000000000000000000000000000bb8000000000000000000000000000000000000000000000000000000000000003c0000000000000000000000000000000000000000000000000000000000000000fffffffffffffffffffffffffffffffffffffffffffffffffffffffffffb1874fffffffffffffffffffffffffffffffffffffffffffffffffffffffffffb475400000000000000000000000000000000000000000000000000000000a20413a50000000000000000000000000000000000000000000000000011c37937e080000000000000000000000000000000000000000000000000056bc75e2d63100000000000000000000000000000017596303ee2f3c1250aa67d2d33dbae1d1c4dbf00000000000000000000000000000000000000000000000000000000000001800000000000000000000000000000000000000000000000000000000000000000000000000000000000000000000000000000000000000000000000000000004000000000000000000000000042000000000000000000000000000000000000060000000000000000000000006ef4a3f654f2afcea8a8704d61be5271536c13fa",
        "nonce": "0x5c",
        "chainId": "0x14a34"
      },
      "additionalContracts": [],
      "isFixedGasLimit": false
    }
  ],
  "receipts": [
    {
      "status": "0x1",
      "cumulativeGasUsed": "0x2099fb",
      "logs": [
        {
          "address": "0x6ef4a3f654f2afcea8a8704d61be5271536c13fa",
          "topics": [
            "0xddf252ad1be2c89b69c2b068fc378daa952ba7f163c4a11628f55a4df523b3ef",
            "0x0000000000000000000000000000000000000000000000000000000000000000",
            "0x000000000000000000000000017596303ee2f3c1250aa67d2d33dbae1d1c4dbf"
          ],
          "data": "0x00000000000000000000000000000000000000000000021e19e0c9bab2400000",
          "blockHash": "0x0000000000000000000000000000000000000000000000000000000000000000",
          "blockNumber": "0x2561f12",
          "blockTimestamp": "0x69bf9d04",
          "transactionHash": "0xf38c61346cf2932c8201f76e6e827456a30678b1907cb8e1876f975816eaaead",
          "transactionIndex": "0x6",
          "logIndex": "0x41",
          "removed": false
        }
      ],
      "logsBloom": "0x00000000000000000000000000000000000000000000000000000000040000000000000000000000000000000000000000000000000000000000000000000000000000000000000000000008000000000000000000000000000000000000000200000000020000000000000000000800000000000000000000000010000000000000000000000000000000000000000000000000010000000000000010000000000000000000000000000000000000000000000000000000000000800000200000000002000000000000000000000000000000000000000000000000000020000000000000000000000000000000000000000000000000000000000000000000",
      "type": "0x2",
      "transactionHash": "0xf38c61346cf2932c8201f76e6e827456a30678b1907cb8e1876f975816eaaead",
      "transactionIndex": "0x6",
      "blockHash": "0x0000000000000000000000000000000000000000000000000000000000000000",
      "blockNumber": "0x2561f12",
      "gasUsed": "0xd5ee2",
      "effectiveGasPrice": "0x5b8d80",
      "blobGasUsed": "0x3c933",
      "from": "0x017596303ee2f3c1250aa67d2d33dbae1d1c4dbf",
      "to": null,
      "contractAddress": "0x6ef4a3f654f2afcea8a8704d61be5271536c13fa",
      "daFootprintGasScalar": "0x8b",
      "l1BaseFeeScalar": "0x44d",
      "l1BlobBaseFee": "0x4",
      "l1BlobBaseFeeScalar": "0xa118b",
      "l1Fee": "0x185",
      "l1GasPrice": "0x47",
      "l1GasUsed": "0x6f92"
    },
    {
      "status": "0x1",
      "cumulativeGasUsed": "0x2163e5",
      "logs": [
        {
          "address": "0x05e73354cfdd6745c338b50bcfdfa3aa6fa03408",
          "topics": [
            "0xdd466e674ea557f56295e2d0218a125ea4b4f0f6f3307b95f85e6110838d6438",
            "0xcb801750c03be6e5db09148460fa58d19e87526b1d371223ea668656ac0d1786",
            "0x0000000000000000000000004200000000000000000000000000000000000006",
            "0x0000000000000000000000006ef4a3f654f2afcea8a8704d61be5271536c13fa"
          ],
          "data": "0x0000000000000000000000000000000000000000000000000000000000000bb8000000000000000000000000000000000000000000000000000000000000003c000000000000000000000000000000000000000000000000000000000000000000000000000000000000000000000000000000000000025f668bb15206e96800fffffffffffffffffffffffffffffffffffffffffffffffffffffffffffb2fc9",
          "blockHash": "0x0000000000000000000000000000000000000000000000000000000000000000",
          "blockNumber": "0x2561f12",
          "blockTimestamp": "0x69bf9d04",
          "transactionHash": "0xf666818fe1ed33e57c0f01799dce3e52d2d1d05854ebb8061c6186e09eff0735",
          "transactionIndex": "0x7",
          "logIndex": "0x42",
          "removed": false
        }
      ],
      "logsBloom": "0x00000000000000000000000000100000000000000000000000000000000000000000000100000000000000000000000000000000000000000020000000000000000000000000000000000000000000000000000000100000000000000000000000000000000000000000000000000000000010000000000000000000000000000000000004000008000000000000000000000001000000000000000000200000000000000000000000000100000000000000000000000000000000000080000000000000001004000000800000000000000000000000000000000000000000000000000000000000000000000000000000000000000000000000000000000002",
      "type": "0x2",
      "transactionHash": "0xf666818fe1ed33e57c0f01799dce3e52d2d1d05854ebb8061c6186e09eff0735",
      "transactionIndex": "0x7",
      "blockHash": "0x0000000000000000000000000000000000000000000000000000000000000000",
      "blockNumber": "0x2561f12",
      "gasUsed": "0xc9ea",
      "effectiveGasPrice": "0x5b8d80",
      "blobGasUsed": "0x3efc",
      "from": "0x017596303ee2f3c1250aa67d2d33dbae1d1c4dbf",
      "to": "0x05e73354cfdd6745c338b50bcfdfa3aa6fa03408",
      "contractAddress": null,
      "daFootprintGasScalar": "0x8b",
      "l1BaseFeeScalar": "0x44d",
      "l1BlobBaseFee": "0x4",
      "l1BlobBaseFeeScalar": "0xa118b",
      "l1Fee": "0x185",
      "l1GasPrice": "0x47",
      "l1GasUsed": "0x745"
    },
    {
      "status": "0x1",
      "cumulativeGasUsed": "0x221b57",
      "logs": [
        {
          "address": "0x6ef4a3f654f2afcea8a8704d61be5271536c13fa",
          "topics": [
            "0x8c5be1e5ebec7d5bd14f71427d1e84f3dd0314c0f7b2291e5b200ac8c7c3b925",
            "0x000000000000000000000000017596303ee2f3c1250aa67d2d33dbae1d1c4dbf",
            "0x000000000000000000000000000000000022d473030f116ddee9f6b43ac78ba3"
          ],
          "data": "0xffffffffffffffffffffffffffffffffffffffffffffffffffffffffffffffff",
          "blockHash": "0x0000000000000000000000000000000000000000000000000000000000000000",
          "blockNumber": "0x2561f12",
          "blockTimestamp": "0x69bf9d04",
          "transactionHash": "0xf2663b51fbda65555e7722d981cfc0ec9c024c3a77cc59f177e4505322df0688",
          "transactionIndex": "0x8",
          "logIndex": "0x43",
          "removed": false
        }
      ],
      "logsBloom": "0x00000000000000000000000000000000000000000000000000000000040000000000000000000000000000000000000000000000800000000000000000200000000000000000000000004000000000000000000000000800000000000000000200000000000000000000000000000000000000000000000000000000000000000000000000000000000000000000000000000000010000000000000010000000020000000000000000000000000000000000000000000000000000800000200000000000000000000000000000000000000000000000000000000000000000000010000000000000000000000000000000000000000000000000000000000000",
      "type": "0x2",
      "transactionHash": "0xf2663b51fbda65555e7722d981cfc0ec9c024c3a77cc59f177e4505322df0688",
      "transactionIndex": "0x8",
      "blockHash": "0x0000000000000000000000000000000000000000000000000000000000000000",
      "blockNumber": "0x2561f12",
      "gasUsed": "0xb772",
      "effectiveGasPrice": "0x5b8d80",
      "blobGasUsed": "0x364c",
      "from": "0x017596303ee2f3c1250aa67d2d33dbae1d1c4dbf",
      "to": "0x6ef4a3f654f2afcea8a8704d61be5271536c13fa",
      "contractAddress": null,
      "daFootprintGasScalar": "0x8b",
      "l1BaseFeeScalar": "0x44d",
      "l1BlobBaseFee": "0x4",
      "l1BlobBaseFeeScalar": "0xa118b",
      "l1Fee": "0x185",
      "l1GasPrice": "0x47",
      "l1GasUsed": "0x640"
    },
    {
      "status": "0x1",
      "cumulativeGasUsed": "0x2287cd",
      "logs": [
        {
          "address": "0x4200000000000000000000000000000000000006",
          "topics": [
            "0xe1fffcc4923d04b559f4d29a8bfc6cda04eb5b0d3c460751c2402c5c5cc9109c",
            "0x000000000000000000000000017596303ee2f3c1250aa67d2d33dbae1d1c4dbf"
          ],
          "data": "0x0000000000000000000000000000000000000000000000000011c37937e08000",
          "blockHash": "0x0000000000000000000000000000000000000000000000000000000000000000",
          "blockNumber": "0x2561f12",
          "blockTimestamp": "0x69bf9d04",
          "transactionHash": "0x5ba6dc91f6f622ba2e921215ea183c187776915dd6309b0b888975f4f3b6c8a9",
          "transactionIndex": "0x9",
          "logIndex": "0x44",
          "removed": false
        }
      ],
      "logsBloom": "0x00000000000000000000000000000000000000000000000000040000040000000000000000000000000000100000000000000000000000000000000000000000000000000000000000000000000000000000000000000000000000008000000200000000000000000000000000000000000000000000000000000000000000000000000000000000000000000000000000000001002000000000000000000000000000000000000000000000000000000000000000000000000000800000000000000000000000000000000000000000000000000000000000000000000000000000000000000000000000000000000000000000000000400000000000000000",
      "type": "0x2",
      "transactionHash": "0x5ba6dc91f6f622ba2e921215ea183c187776915dd6309b0b888975f4f3b6c8a9",
      "transactionIndex": "0x9",
      "blockHash": "0x0000000000000000000000000000000000000000000000000000000000000000",
      "blockNumber": "0x2561f12",
      "gasUsed": "0x6c76",
      "effectiveGasPrice": "0x5b8d80",
      "blobGasUsed": "0x364c",
      "from": "0x017596303ee2f3c1250aa67d2d33dbae1d1c4dbf",
      "to": "0x4200000000000000000000000000000000000006",
      "contractAddress": null,
      "daFootprintGasScalar": "0x8b",
      "l1BaseFeeScalar": "0x44d",
      "l1BlobBaseFee": "0x4",
      "l1BlobBaseFeeScalar": "0xa118b",
      "l1Fee": "0x185",
      "l1GasPrice": "0x47",
      "l1GasUsed": "0x640"
    },
    {
      "status": "0x1",
      "cumulativeGasUsed": "0x233c98",
      "logs": [
        {
          "address": "0x4200000000000000000000000000000000000006",
          "topics": [
            "0x8c5be1e5ebec7d5bd14f71427d1e84f3dd0314c0f7b2291e5b200ac8c7c3b925",
            "0x000000000000000000000000017596303ee2f3c1250aa67d2d33dbae1d1c4dbf",
            "0x000000000000000000000000000000000022d473030f116ddee9f6b43ac78ba3"
          ],
          "data": "0xffffffffffffffffffffffffffffffffffffffffffffffffffffffffffffffff",
          "blockHash": "0x0000000000000000000000000000000000000000000000000000000000000000",
          "blockNumber": "0x2561f12",
          "blockTimestamp": "0x69bf9d04",
          "transactionHash": "0x1babe8d76f9d68b7f2d34e5b9f7a20470dbf97a4b6cd252bb4cf44d466d9453b",
          "transactionIndex": "0xa",
          "logIndex": "0x45",
          "removed": false
        }
      ],
      "logsBloom": "0x00000000000000000000000000000000000000000000000000040000040000000000000000000000000000100000000000000000800000000000000000200000000000000000000000004000000000000000000000000800000000000000000200000000000000000000000000000000000000000000000000000000000000000000000000000000000000000000000000000000002000000000000000000000020000000000000000000000000000000000000000000000000000800000000000000000000000000000000000000000000000000000000000000000000000000010000000000000000000000000000000000000000000000000000000000000",
      "type": "0x2",
      "transactionHash": "0x1babe8d76f9d68b7f2d34e5b9f7a20470dbf97a4b6cd252bb4cf44d466d9453b",
      "transactionIndex": "0xa",
      "blockHash": "0x0000000000000000000000000000000000000000000000000000000000000000",
      "blockNumber": "0x2561f12",
      "gasUsed": "0xb4cb",
      "effectiveGasPrice": "0x5b8d80",
      "blobGasUsed": "0x364c",
      "from": "0x017596303ee2f3c1250aa67d2d33dbae1d1c4dbf",
      "to": "0x4200000000000000000000000000000000000006",
      "contractAddress": null,
      "daFootprintGasScalar": "0x8b",
      "l1BaseFeeScalar": "0x44d",
      "l1BlobBaseFee": "0x4",
      "l1BlobBaseFeeScalar": "0xa118b",
      "l1Fee": "0x185",
      "l1GasPrice": "0x47",
      "l1GasUsed": "0x640"
    },
    {
      "status": "0x1",
      "cumulativeGasUsed": "0x23f762",
      "logs": [
        {
          "address": "0x000000000022d473030f116ddee9f6b43ac78ba3",
          "topics": [
            "0xda9fa7c1b00402c17d0161b249b1ab8bbec047c5a52207b9c112deffd817036b",
            "0x000000000000000000000000017596303ee2f3c1250aa67d2d33dbae1d1c4dbf",
            "0x0000000000000000000000006ef4a3f654f2afcea8a8704d61be5271536c13fa",
            "0x0000000000000000000000004b2c77d209d3405f41a037ec6c77f7f5b8e2ca80"
          ],
          "data": "0x000000000000000000000000ffffffffffffffffffffffffffffffffffffffff0000000000000000000000000000000000000000000000000000ffffffffffff",
          "blockHash": "0x0000000000000000000000000000000000000000000000000000000000000000",
          "blockNumber": "0x2561f12",
          "blockTimestamp": "0x69bf9d04",
          "transactionHash": "0x94b4c381933e1fad01cfecb2185eaf60cec731cc154e46467a885b6874be1eae",
          "transactionIndex": "0xb",
          "logIndex": "0x46",
          "removed": false
        }
      ],
      "logsBloom": "0x00010000000000010000000000100000000000000000000000000000040000000000000000000000000000000000000000000000000000000008000010080000000000000000000000000000000000000000000000000000000000000000000200000000000000000000000000000000000000000000000000000000000000000020000000000000000000000000000000000000000000000000000000000000000000000000000000000000000000000000000000000000000000880080000000000000000000000000000000000000000000000000000040000000000000000000000000000000000000000000000000000000000000000000000000000402",
      "type": "0x2",
      "transactionHash": "0x94b4c381933e1fad01cfecb2185eaf60cec731cc154e46467a885b6874be1eae",
      "transactionIndex": "0xb",
      "blockHash": "0x0000000000000000000000000000000000000000000000000000000000000000",
      "blockNumber": "0x2561f12",
      "gasUsed": "0xbaca",
      "effectiveGasPrice": "0x5b8d80",
      "blobGasUsed": "0x3cd0",
      "from": "0x017596303ee2f3c1250aa67d2d33dbae1d1c4dbf",
      "to": "0x000000000022d473030f116ddee9f6b43ac78ba3",
      "contractAddress": null,
      "daFootprintGasScalar": "0x8b",
      "l1BaseFeeScalar": "0x44d",
      "l1BlobBaseFee": "0x4",
      "l1BlobBaseFeeScalar": "0xa118b",
      "l1Fee": "0x185",
      "l1GasPrice": "0x47",
      "l1GasUsed": "0x702"
    },
    {
      "status": "0x1",
      "cumulativeGasUsed": "0x24b154",
      "logs": [
        {
          "address": "0x000000000022d473030f116ddee9f6b43ac78ba3",
          "topics": [
            "0xda9fa7c1b00402c17d0161b249b1ab8bbec047c5a52207b9c112deffd817036b",
            "0x000000000000000000000000017596303ee2f3c1250aa67d2d33dbae1d1c4dbf",
            "0x0000000000000000000000004200000000000000000000000000000000000006",
            "0x0000000000000000000000004b2c77d209d3405f41a037ec6c77f7f5b8e2ca80"
          ],
          "data": "0x000000000000000000000000ffffffffffffffffffffffffffffffffffffffff0000000000000000000000000000000000000000000000000000ffffffffffff",
          "blockHash": "0x0000000000000000000000000000000000000000000000000000000000000000",
          "blockNumber": "0x2561f12",
          "blockTimestamp": "0x69bf9d04",
          "transactionHash": "0x296ccf7e020d43568fc2fb53c4419157d22998a36133a9a753cf87c2460992e7",
          "transactionIndex": "0xc",
          "logIndex": "0x47",
          "removed": false
        }
      ],
      "logsBloom": "0x00010000000000010000000000000000000000000000000000000000040000000000000000000000000000000000000000000000000000000028000010080000000000000000000000000000000000000000000000000000000000000000000200000000000000000000000000000000000010000000000000000000000000000020000000000000000000000000000000000000000000000000000000000000000000000000000000000000000000000000000000000000000000880000000000000000000004000000000000000000000000000000000040000000000000000000000000000000000000000000000000000000000000000000000000000400",
      "type": "0x2",
      "transactionHash": "0x296ccf7e020d43568fc2fb53c4419157d22998a36133a9a753cf87c2460992e7",
      "transactionIndex": "0xc",
      "blockHash": "0x0000000000000000000000000000000000000000000000000000000000000000",
      "blockNumber": "0x2561f12",
      "gasUsed": "0xb9f2",
      "effectiveGasPrice": "0x5b8d80",
      "blobGasUsed": "0x3878",
      "from": "0x017596303ee2f3c1250aa67d2d33dbae1d1c4dbf",
      "to": "0x000000000022d473030f116ddee9f6b43ac78ba3",
      "contractAddress": null,
      "daFootprintGasScalar": "0x8b",
      "l1BaseFeeScalar": "0x44d",
      "l1BlobBaseFee": "0x4",
      "l1BlobBaseFeeScalar": "0xa118b",
      "l1Fee": "0x185",
      "l1GasPrice": "0x47",
      "l1GasUsed": "0x68a"
    },
    {
      "status": "0x1",
      "cumulativeGasUsed": "0x2a882d",
      "logs": [
        {
          "address": "0x4b2c77d209d3405f41a037ec6c77f7f5b8e2ca80",
          "topics": [
            "0xddf252ad1be2c89b69c2b068fc378daa952ba7f163c4a11628f55a4df523b3ef",
            "0x0000000000000000000000000000000000000000000000000000000000000000",
            "0x000000000000000000000000017596303ee2f3c1250aa67d2d33dbae1d1c4dbf",
            "0x0000000000000000000000000000000000000000000000000000000000005170"
          ],
          "data": "0x",
          "blockHash": "0x0000000000000000000000000000000000000000000000000000000000000000",
          "blockNumber": "0x2561f12",
          "blockTimestamp": "0x69bf9d04",
          "transactionHash": "0x440ad5c6affc15bd09dec661599a14db2a0602ceb62aec47041a787612c41070",
          "transactionIndex": "0xd",
          "logIndex": "0x48",
          "removed": false
        },
        {
          "address": "0x05e73354cfdd6745c338b50bcfdfa3aa6fa03408",
          "topics": [
            "0xf208f4912782fd25c7f114ca3723a2d5dd6f3bcc3ac8db5af63baa85f711d5ec",
            "0xcb801750c03be6e5db09148460fa58d19e87526b1d371223ea668656ac0d1786",
            "0x0000000000000000000000004b2c77d209d3405f41a037ec6c77f7f5b8e2ca80"
          ],
          "data": "0xfffffffffffffffffffffffffffffffffffffffffffffffffffffffffffb1874fffffffffffffffffffffffffffffffffffffffffffffffffffffffffffb475400000000000000000000000000000000000000000000000000000000a20413a50000000000000000000000000000000000000000000000000000000000005170",
          "blockHash": "0x0000000000000000000000000000000000000000000000000000000000000000",
          "blockNumber": "0x2561f12",
          "blockTimestamp": "0x69bf9d04",
          "transactionHash": "0x440ad5c6affc15bd09dec661599a14db2a0602ceb62aec47041a787612c41070",
          "transactionIndex": "0xd",
          "logIndex": "0x49",
          "removed": false
        },
        {
          "address": "0x4200000000000000000000000000000000000006",
          "topics": [
            "0xddf252ad1be2c89b69c2b068fc378daa952ba7f163c4a11628f55a4df523b3ef",
            "0x000000000000000000000000017596303ee2f3c1250aa67d2d33dbae1d1c4dbf",
            "0x00000000000000000000000005e73354cfdd6745c338b50bcfdfa3aa6fa03408"
          ],
          "data": "0x0000000000000000000000000000000000000000000000000011c37937c7d541",
          "blockHash": "0x0000000000000000000000000000000000000000000000000000000000000000",
          "blockNumber": "0x2561f12",
          "blockTimestamp": "0x69bf9d04",
          "transactionHash": "0x440ad5c6affc15bd09dec661599a14db2a0602ceb62aec47041a787612c41070",
          "transactionIndex": "0xd",
          "logIndex": "0x4a",
          "removed": false
        },
        {
          "address": "0x6ef4a3f654f2afcea8a8704d61be5271536c13fa",
          "topics": [
            "0xddf252ad1be2c89b69c2b068fc378daa952ba7f163c4a11628f55a4df523b3ef",
            "0x000000000000000000000000017596303ee2f3c1250aa67d2d33dbae1d1c4dbf",
            "0x00000000000000000000000005e73354cfdd6745c338b50bcfdfa3aa6fa03408"
          ],
          "data": "0x0000000000000000000000000000000000000000000000000000000000000064",
          "blockHash": "0x0000000000000000000000000000000000000000000000000000000000000000",
          "blockNumber": "0x2561f12",
          "blockTimestamp": "0x69bf9d04",
          "transactionHash": "0x440ad5c6affc15bd09dec661599a14db2a0602ceb62aec47041a787612c41070",
          "transactionIndex": "0xd",
          "logIndex": "0x4b",
          "removed": false
        }
      ],
      "logsBloom": "0x00000000000000010000000000000000000000000000000000040000040000000100000100000000000000100000000000000000000000000008000090000800000000000010000000000008000000000000000000100000000000008000000200000000020000100000000000000800000000000000000000000010000000000000000005000000000000000000000000000000012000000000000010000000000004000000000000000100000000000000000000000000000000800000200000000002001000000000800000000000000000000000000000000000000020000000000000400000000000000800000004000000000000000000000000000000",
      "type": "0x2",
      "transactionHash": "0x440ad5c6affc15bd09dec661599a14db2a0602ceb62aec47041a787612c41070",
      "transactionIndex": "0xd",
      "blockHash": "0x0000000000000000000000000000000000000000000000000000000000000000",
      "blockNumber": "0x2561f12",
      "gasUsed": "0x5d6d9",
      "effectiveGasPrice": "0x5b8d80",
      "blobGasUsed": "0x80af",
      "from": "0x017596303ee2f3c1250aa67d2d33dbae1d1c4dbf",
      "to": "0x4b2c77d209d3405f41a037ec6c77f7f5b8e2ca80",
      "contractAddress": null,
      "daFootprintGasScalar": "0x8b",
      "l1BaseFeeScalar": "0x44d",
      "l1BlobBaseFee": "0x4",
      "l1BlobBaseFeeScalar": "0xa118b",
      "l1Fee": "0x185",
      "l1GasPrice": "0x47",
      "l1GasUsed": "0xeda"
    }
  ],
  "libraries": [],
  "pending": [],
  "returns": {},
  "timestamp": 1774165251799,
  "chain": 84532,
  "commit": "5c6b019"
}